{
  "contractName": "MasterUniverse2",
  "abi": [
    {
      "inputs": [
        {
          "internalType": "contract NovaToken2",
          "name": "_nova",
          "type": "address"
        },
        {
          "internalType": "address",
          "name": "_devaddr",
          "type": "address"
        },
        {
          "internalType": "uint256",
          "name": "_novaPerBlock",
          "type": "uint256"
        },
        {
          "internalType": "uint256",
          "name": "_startBlock",
          "type": "uint256"
        },
        {
          "internalType": "uint256",
          "name": "_bonusEndBlock",
          "type": "uint256"
        }
      ],
      "stateMutability": "nonpayable",
      "type": "constructor"
    },
    {
      "anonymous": false,
      "inputs": [
        {
          "indexed": true,
          "internalType": "address",
          "name": "user",
          "type": "address"
        },
        {
          "indexed": true,
          "internalType": "uint256",
          "name": "pid",
          "type": "uint256"
        },
        {
          "indexed": false,
          "internalType": "uint256",
          "name": "amount",
          "type": "uint256"
        }
      ],
      "name": "Deposit",
      "type": "event"
    },
    {
      "anonymous": false,
      "inputs": [
        {
          "indexed": true,
          "internalType": "address",
          "name": "user",
          "type": "address"
        },
        {
          "indexed": true,
          "internalType": "uint256",
          "name": "pid",
          "type": "uint256"
        },
        {
          "indexed": false,
          "internalType": "uint256",
          "name": "amount",
          "type": "uint256"
        }
      ],
      "name": "EmergencyWithdraw",
      "type": "event"
    },
    {
      "anonymous": false,
      "inputs": [
        {
          "indexed": true,
          "internalType": "address",
          "name": "previousOwner",
          "type": "address"
        },
        {
          "indexed": true,
          "internalType": "address",
          "name": "newOwner",
          "type": "address"
        }
      ],
      "name": "OwnershipTransferred",
      "type": "event"
    },
    {
      "anonymous": false,
      "inputs": [
        {
          "indexed": true,
          "internalType": "address",
          "name": "user",
          "type": "address"
        },
        {
          "indexed": true,
          "internalType": "uint256",
          "name": "pid",
          "type": "uint256"
        },
        {
          "indexed": false,
          "internalType": "uint256",
          "name": "amount",
          "type": "uint256"
        }
      ],
      "name": "Withdraw",
      "type": "event"
    },
    {
      "inputs": [],
      "name": "BONUS_MULTIPLIER",
      "outputs": [
        {
          "internalType": "uint256",
          "name": "",
          "type": "uint256"
        }
      ],
      "stateMutability": "view",
      "type": "function",
      "constant": true
    },
    {
      "inputs": [],
      "name": "bonusEndBlock",
      "outputs": [
        {
          "internalType": "uint256",
          "name": "",
          "type": "uint256"
        }
      ],
      "stateMutability": "view",
      "type": "function",
      "constant": true
    },
    {
      "inputs": [],
      "name": "devaddr",
      "outputs": [
        {
          "internalType": "address",
          "name": "",
          "type": "address"
        }
      ],
      "stateMutability": "view",
      "type": "function",
      "constant": true
    },
    {
      "inputs": [],
      "name": "nova",
      "outputs": [
        {
          "internalType": "contract NovaToken2",
          "name": "",
          "type": "address"
        }
      ],
      "stateMutability": "view",
      "type": "function",
      "constant": true
    },
    {
      "inputs": [],
      "name": "novaPerBlock",
      "outputs": [
        {
          "internalType": "uint256",
          "name": "",
          "type": "uint256"
        }
      ],
      "stateMutability": "view",
      "type": "function",
      "constant": true
    },
    {
      "inputs": [],
      "name": "owner",
      "outputs": [
        {
          "internalType": "address",
          "name": "",
          "type": "address"
        }
      ],
      "stateMutability": "view",
      "type": "function",
      "constant": true
    },
    {
      "inputs": [
        {
          "internalType": "uint256",
          "name": "",
          "type": "uint256"
        }
      ],
      "name": "poolInfo",
      "outputs": [
        {
          "internalType": "contract IERC20",
          "name": "lpToken",
          "type": "address"
        },
        {
          "internalType": "uint256",
          "name": "allocPoint",
          "type": "uint256"
        },
        {
          "internalType": "uint256",
          "name": "lastRewardBlock",
          "type": "uint256"
        },
        {
          "internalType": "uint256",
          "name": "accNovaPerShare",
          "type": "uint256"
        },
        {
          "internalType": "uint256",
          "name": "totalPlasmaPower",
          "type": "uint256"
        }
      ],
      "stateMutability": "view",
      "type": "function",
      "constant": true
    },
    {
      "inputs": [],
      "name": "renounceOwnership",
      "outputs": [],
      "stateMutability": "nonpayable",
      "type": "function"
    },
    {
      "inputs": [],
      "name": "startBlock",
      "outputs": [
        {
          "internalType": "uint256",
          "name": "",
          "type": "uint256"
        }
      ],
      "stateMutability": "view",
      "type": "function",
      "constant": true
    },
    {
      "inputs": [],
      "name": "startTimestamp",
      "outputs": [
        {
          "internalType": "uint256",
          "name": "",
          "type": "uint256"
        }
      ],
      "stateMutability": "view",
      "type": "function",
      "constant": true
    },
    {
      "inputs": [],
      "name": "totalAllocPoint",
      "outputs": [
        {
          "internalType": "uint256",
          "name": "",
          "type": "uint256"
        }
      ],
      "stateMutability": "view",
      "type": "function",
      "constant": true
    },
    {
      "inputs": [
        {
          "internalType": "address",
          "name": "newOwner",
          "type": "address"
        }
      ],
      "name": "transferOwnership",
      "outputs": [],
      "stateMutability": "nonpayable",
      "type": "function"
    },
    {
      "inputs": [
        {
          "internalType": "uint256",
          "name": "",
          "type": "uint256"
        },
        {
          "internalType": "address",
          "name": "",
          "type": "address"
        }
      ],
      "name": "userInfo",
      "outputs": [
        {
          "internalType": "uint256",
          "name": "amount",
          "type": "uint256"
        },
        {
          "internalType": "uint256",
          "name": "rewardDebt",
          "type": "uint256"
        },
        {
          "internalType": "uint256",
          "name": "lastStakedTime",
          "type": "uint256"
        },
        {
          "internalType": "uint256",
          "name": "buffRate",
          "type": "uint256"
        },
        {
          "internalType": "uint256",
          "name": "plasmaPower",
          "type": "uint256"
        }
      ],
      "stateMutability": "view",
      "type": "function",
      "constant": true
    },
    {
      "inputs": [],
      "name": "poolLength",
      "outputs": [
        {
          "internalType": "uint256",
          "name": "",
          "type": "uint256"
        }
      ],
      "stateMutability": "view",
      "type": "function",
      "constant": true
    },
    {
      "inputs": [
        {
          "internalType": "uint256",
          "name": "_allocPoint",
          "type": "uint256"
        },
        {
          "internalType": "contract IERC20",
          "name": "_lpToken",
          "type": "address"
        },
        {
          "internalType": "bool",
          "name": "_withUpdate",
          "type": "bool"
        }
      ],
      "name": "add",
      "outputs": [],
      "stateMutability": "nonpayable",
      "type": "function"
    },
    {
      "inputs": [
        {
          "internalType": "uint256",
          "name": "_pid",
          "type": "uint256"
        },
        {
          "internalType": "uint256",
          "name": "_allocPoint",
          "type": "uint256"
        },
        {
          "internalType": "bool",
          "name": "_withUpdate",
          "type": "bool"
        }
      ],
      "name": "set",
      "outputs": [],
      "stateMutability": "nonpayable",
      "type": "function"
    },
    {
      "inputs": [
        {
          "internalType": "uint256",
          "name": "_from",
          "type": "uint256"
        },
        {
          "internalType": "uint256",
          "name": "_to",
          "type": "uint256"
        }
      ],
      "name": "getMultiplier",
      "outputs": [
        {
          "internalType": "uint256",
          "name": "",
          "type": "uint256"
        }
      ],
      "stateMutability": "view",
      "type": "function",
      "constant": true
    },
    {
      "inputs": [
        {
          "internalType": "uint256",
          "name": "_from",
          "type": "uint256"
        },
        {
          "internalType": "uint256",
          "name": "_to",
          "type": "uint256"
        }
      ],
      "name": "calculateNovaPerBlock",
      "outputs": [
        {
          "internalType": "uint256",
          "name": "",
          "type": "uint256"
        }
      ],
      "stateMutability": "view",
      "type": "function",
      "constant": true
    },
    {
      "inputs": [
        {
          "internalType": "uint256",
          "name": "_pid",
          "type": "uint256"
        },
        {
          "internalType": "address",
          "name": "_user",
          "type": "address"
        }
      ],
      "name": "pendingNova",
      "outputs": [
        {
          "internalType": "uint256",
          "name": "",
          "type": "uint256"
        }
      ],
      "stateMutability": "view",
      "type": "function",
      "constant": true
    },
    {
      "inputs": [],
      "name": "massUpdatePools",
      "outputs": [],
      "stateMutability": "nonpayable",
      "type": "function"
    },
    {
      "inputs": [
        {
          "internalType": "uint256",
          "name": "_pid",
          "type": "uint256"
        },
        {
          "internalType": "address",
          "name": "_user",
          "type": "address"
        }
      ],
      "name": "calculateFeesPercentage",
      "outputs": [
        {
          "internalType": "uint256",
          "name": "",
          "type": "uint256"
        }
      ],
      "stateMutability": "view",
      "type": "function",
      "constant": true
    },
    {
      "inputs": [
        {
          "internalType": "uint256",
          "name": "_pid",
          "type": "uint256"
        },
        {
          "internalType": "uint256",
          "name": "_amount",
          "type": "uint256"
        }
      ],
      "name": "deposit",
      "outputs": [],
      "stateMutability": "nonpayable",
      "type": "function"
    },
    {
      "inputs": [
        {
          "internalType": "uint256",
          "name": "_pid",
          "type": "uint256"
        },
        {
          "internalType": "uint256",
          "name": "_amount",
          "type": "uint256"
        }
      ],
      "name": "withdraw",
      "outputs": [],
      "stateMutability": "nonpayable",
      "type": "function"
    },
    {
      "inputs": [
        {
          "internalType": "uint256",
          "name": "_pid",
          "type": "uint256"
        }
      ],
      "name": "emergencyWithdraw",
      "outputs": [],
      "stateMutability": "nonpayable",
      "type": "function"
    },
    {
      "inputs": [
        {
          "internalType": "address",
          "name": "_devaddr",
          "type": "address"
        }
      ],
      "name": "dev",
      "outputs": [],
      "stateMutability": "nonpayable",
      "type": "function"
    }
  ],
  "bytecode": "0x608060405260006007556040518060a00160405280600062ffffff16815260200161fde862ffffff1681526020016202f9b862ffffff1681526020016206f15862ffffff168152602001620ee09862ffffff16815250600a9060056200006792919062000235565b503480156200007557600080fd5b5060405162002f5338038062002f53833981810160405260a08110156200009b57600080fd5b8101908080519060200190929190805190602001909291908051906020019092919080519060200190929190805190602001909291905050506000620000e66200022d60201b60201c565b9050806000806101000a81548173ffffffffffffffffffffffffffffffffffffffff021916908373ffffffffffffffffffffffffffffffffffffffff1602179055508073ffffffffffffffffffffffffffffffffffffffff16600073ffffffffffffffffffffffffffffffffffffffff167f8be0079c531659141344cd1fd0a4f28419497f9722a3daafe3b4186f6b6457e060405160405180910390a35084600160006101000a81548173ffffffffffffffffffffffffffffffffffffffff021916908373ffffffffffffffffffffffffffffffffffffffff16021790555083600260006101000a81548173ffffffffffffffffffffffffffffffffffffffff021916908373ffffffffffffffffffffffffffffffffffffffff160217905550826004819055508060038190555081600881905550426009819055505050505050620002a0565b600033905090565b82600581019282156200026e579160200282015b828111156200026d578251829062ffffff1690559160200191906001019062000249565b5b5090506200027d919062000281565b5090565b5b808211156200029c57600081600090555060010162000282565b5090565b612ca380620002b06000396000f3fe608060405234801561001057600080fd5b50600436106101735760003560e01c806364482f79116100de57806393f1a40b11610097578063e16faa6411610071578063e16faa6414610626578063e2bbb15814610672578063e6fd48bc146106aa578063f2fde38b146106c857610173565b806393f1a40b14610512578063c673fa3714610590578063d49e77cd146105f257610173565b806364482f79146103e2578063715018a6146104265780638aa28550146104305780638d88a90e1461044e5780638da5cb5b146104925780638dbb1e3a146104c657610173565b80633e841aa0116101305780633e841aa0146102d4578063441a3e701461033657806348cd4cb11461036e578063516e16711461038c5780635312ea8e146103aa578063630b5ba1146103d857610173565b8063081e3eda146101785780631526fe271461019657806317caf6f11461020a5780631aed6553146102285780631e5ba66c146102465780631eaaa0451461027a575b600080fd5b61018061070c565b6040518082815260200191505060405180910390f35b6101c2600480360360208110156101ac57600080fd5b8101908080359060200190929190505050610719565b604051808673ffffffffffffffffffffffffffffffffffffffff1681526020018581526020018481526020018381526020018281526020019550505050505060405180910390f35b61021261077c565b6040518082815260200191505060405180910390f35b610230610782565b6040518082815260200191505060405180910390f35b61024e610788565b604051808273ffffffffffffffffffffffffffffffffffffffff16815260200191505060405180910390f35b6102d26004803603606081101561029057600080fd5b8101908080359060200190929190803573ffffffffffffffffffffffffffffffffffffffff1690602001909291908035151590602001909291905050506107ae565b005b610320600480360360408110156102ea57600080fd5b8101908080359060200190929190803573ffffffffffffffffffffffffffffffffffffffff169060200190929190505050610998565b6040518082815260200191505060405180910390f35b61036c6004803603604081101561034c57600080fd5b810190808035906020019092919080359060200190929190505050610a68565b005b610376610ed7565b6040518082815260200191505060405180910390f35b610394610edd565b6040518082815260200191505060405180910390f35b6103d6600480360360208110156103c057600080fd5b8101908080359060200190929190505050610ee3565b005b6103e061103a565b005b610424600480360360608110156103f857600080fd5b810190808035906020019092919080359060200190929190803515159060200190929190505050611067565b005b61042e6111b1565b005b610438611337565b6040518082815260200191505060405180910390f35b6104906004803603602081101561046457600080fd5b81019080803573ffffffffffffffffffffffffffffffffffffffff16906020019092919050505061133c565b005b61049a611443565b604051808273ffffffffffffffffffffffffffffffffffffffff16815260200191505060405180910390f35b6104fc600480360360408110156104dc57600080fd5b81019080803590602001909291908035906020019092919050505061146c565b6040518082815260200191505060405180910390f35b61055e6004803603604081101561052857600080fd5b8101908080359060200190929190803573ffffffffffffffffffffffffffffffffffffffff16906020019092919050505061151e565b604051808681526020018581526020018481526020018381526020018281526020019550505050505060405180910390f35b6105dc600480360360408110156105a657600080fd5b8101908080359060200190929190803573ffffffffffffffffffffffffffffffffffffffff169060200190929190505050611561565b6040518082815260200191505060405180910390f35b6105fa6116ef565b604051808273ffffffffffffffffffffffffffffffffffffffff16815260200191505060405180910390f35b61065c6004803603604081101561063c57600080fd5b810190808035906020019092919080359060200190929190505050611715565b6040518082815260200191505060405180910390f35b6106a86004803603604081101561068857600080fd5b81019080803590602001909291908035906020019092919050505061183c565b005b6106b2611c2e565b6040518082815260200191505060405180910390f35b61070a600480360360208110156106de57600080fd5b81019080803573ffffffffffffffffffffffffffffffffffffffff169060200190929190505050611c34565b005b6000600580549050905090565b6005818154811061072657fe5b90600052602060002090600502016000915090508060000160009054906101000a900473ffffffffffffffffffffffffffffffffffffffff16908060010154908060020154908060030154908060040154905085565b60075481565b60035481565b600160009054906101000a900473ffffffffffffffffffffffffffffffffffffffff1681565b6107b6611e3f565b73ffffffffffffffffffffffffffffffffffffffff1660008054906101000a900473ffffffffffffffffffffffffffffffffffffffff1673ffffffffffffffffffffffffffffffffffffffff1614610876576040517f08c379a00000000000000000000000000000000000000000000000000000000081526004018080602001828103825260208152602001807f4f776e61626c653a2063616c6c6572206973206e6f7420746865206f776e657281525060200191505060405180910390fd5b80156108855761088461103a565b5b600060085443116108985760085461089a565b435b90506108b184600754611e4790919063ffffffff16565b60078190555060056040518060a001604052808573ffffffffffffffffffffffffffffffffffffffff168152602001868152602001838152602001600081526020016000815250908060018154018082558091505060019003906000526020600020906005020160009091909190915060008201518160000160006101000a81548173ffffffffffffffffffffffffffffffffffffffff021916908373ffffffffffffffffffffffffffffffffffffffff16021790555060208201518160010155604082015181600201556060820151816003015560808201518160040155505050505050565b6000806006600085815260200190815260200160002060008473ffffffffffffffffffffffffffffffffffffffff1673ffffffffffffffffffffffffffffffffffffffff168152602001908152602001600020905060004290506000610a346018610a26603c610a18603c88600201548803611ecf90919063ffffffff16565b611ecf90919063ffffffff16565b611ecf90919063ffffffff16565b90506000610a59610a4f600284611ecf90919063ffffffff16565b601e036001611f19565b90508094505050505092915050565b610a7061070c565b8210610ae4576040517f08c379a00000000000000000000000000000000000000000000000000000000081526004018080602001828103825260078152602001807f626164207069640000000000000000000000000000000000000000000000000081525060200191505060405180910390fd5b600060058381548110610af357fe5b9060005260206000209060050201905060006006600085815260200190815260200160002060003373ffffffffffffffffffffffffffffffffffffffff1673ffffffffffffffffffffffffffffffffffffffff16815260200190815260200160002090508281600001541015610bd1576040517f08c379a00000000000000000000000000000000000000000000000000000000081526004018080602001828103825260128152602001807f77697468647261773a206e6f7420676f6f64000000000000000000000000000081525060200191505060405180910390fd5b6000610bea848360000154611f3290919063ffffffff16565b1480610c14575067016345785d8a0000610c11848360000154611f3290919063ffffffff16565b10155b610c69576040517f08c379a0000000000000000000000000000000000000000000000000000000008152600401808060200182810382526025815260200180612bfe6025913960400191505060405180910390fd5b610c7284611f7c565b6000610cbc8260010154610cae64e8d4a51000610ca08760030154876004015461220f90919063ffffffff16565b611ecf90919063ffffffff16565b611f3290919063ffffffff16565b9050600080821115610d4e576000610cd48733610998565b9050610cfc6064610cee838661220f90919063ffffffff16565b611ecf90919063ffffffff16565b91506000610d138385611f3290919063ffffffff16565b9050610d41600260009054906101000a900473ffffffffffffffffffffffffffffffffffffffff1684612295565b610d4b3382612295565b50505b6000851115610e4657610da633868660000160009054906101000a900473ffffffffffffffffffffffffffffffffffffffff1673ffffffffffffffffffffffffffffffffffffffff1661243f9092919063ffffffff16565b610dbd858460000154611f3290919063ffffffff16565b8360000181905550610dd283600001546124e1565b8360030181905550600083600401549050610dfe8460030154856000015461220f90919063ffffffff16565b8460040181905550610e338460040154610e25838860040154611f3290919063ffffffff16565b611e4790919063ffffffff16565b8560040181905550428460020181905550505b610e7864e8d4a51000610e6a8660030154866004015461220f90919063ffffffff16565b611ecf90919063ffffffff16565b8360010181905550853373ffffffffffffffffffffffffffffffffffffffff167ff279e6a1f5e320cca91135676d9cb6e44ca8a08c0b88342bcdb1144f6511b568876040518082815260200191505060405180910390a3505050505050565b60085481565b60045481565b600060058281548110610ef257fe5b9060005260206000209060050201905060006006600084815260200190815260200160002060003373ffffffffffffffffffffffffffffffffffffffff1673ffffffffffffffffffffffffffffffffffffffff16815260200190815260200160002090506000816000015490506000826000018190555060008260010181905550610f8e82600401548460040154611f3290919063ffffffff16565b8360040181905550610fe533828560000160009054906101000a900473ffffffffffffffffffffffffffffffffffffffff1673ffffffffffffffffffffffffffffffffffffffff1661243f9092919063ffffffff16565b833373ffffffffffffffffffffffffffffffffffffffff167fbb757047c2b5f3974fe26b7c10f732e7bce710b0952a71082702781e62ae0595836040518082815260200191505060405180910390a350505050565b6000600580549050905060005b818110156110635761105881611f7c565b806001019050611047565b5050565b61106f611e3f565b73ffffffffffffffffffffffffffffffffffffffff1660008054906101000a900473ffffffffffffffffffffffffffffffffffffffff1673ffffffffffffffffffffffffffffffffffffffff161461112f576040517f08c379a00000000000000000000000000000000000000000000000000000000081526004018080602001828103825260208152602001807f4f776e61626c653a2063616c6c6572206973206e6f7420746865206f776e657281525060200191505060405180910390fd5b801561113e5761113d61103a565b5b611183826111756005868154811061115257fe5b906000526020600020906005020160010154600754611f3290919063ffffffff16565b611e4790919063ffffffff16565b600781905550816005848154811061119757fe5b906000526020600020906005020160010181905550505050565b6111b9611e3f565b73ffffffffffffffffffffffffffffffffffffffff1660008054906101000a900473ffffffffffffffffffffffffffffffffffffffff1673ffffffffffffffffffffffffffffffffffffffff1614611279576040517f08c379a00000000000000000000000000000000000000000000000000000000081526004018080602001828103825260208152602001807f4f776e61626c653a2063616c6c6572206973206e6f7420746865206f776e657281525060200191505060405180910390fd5b600073ffffffffffffffffffffffffffffffffffffffff1660008054906101000a900473ffffffffffffffffffffffffffffffffffffffff1673ffffffffffffffffffffffffffffffffffffffff167f8be0079c531659141344cd1fd0a4f28419497f9722a3daafe3b4186f6b6457e060405160405180910390a360008060006101000a81548173ffffffffffffffffffffffffffffffffffffffff021916908373ffffffffffffffffffffffffffffffffffffffff160217905550565b600281565b600260009054906101000a900473ffffffffffffffffffffffffffffffffffffffff1673ffffffffffffffffffffffffffffffffffffffff163373ffffffffffffffffffffffffffffffffffffffff16146113ff576040517f08c379a00000000000000000000000000000000000000000000000000000000081526004018080602001828103825260098152602001807f6465763a207775743f000000000000000000000000000000000000000000000081525060200191505060405180910390fd5b80600260006101000a81548173ffffffffffffffffffffffffffffffffffffffff021916908373ffffffffffffffffffffffffffffffffffffffff16021790555050565b60008060009054906101000a900473ffffffffffffffffffffffffffffffffffffffff16905090565b600060035482116114a45761149d600261148f8585611f3290919063ffffffff16565b61220f90919063ffffffff16565b9050611518565b60035483106114c7576114c08383611f3290919063ffffffff16565b9050611518565b6115156114df60035484611f3290919063ffffffff16565b61150760026114f987600354611f3290919063ffffffff16565b61220f90919063ffffffff16565b611e4790919063ffffffff16565b90505b92915050565b6006602052816000526040600020602052806000526040600020600091509150508060000154908060010154908060020154908060030154908060040154905085565b6000806005848154811061157157fe5b9060005260206000209060050201905060006006600086815260200190815260200160002060008573ffffffffffffffffffffffffffffffffffffffff1673ffffffffffffffffffffffffffffffffffffffff16815260200190815260200160002090506000826003015490508260020154431180156115f657506000836004015414155b156116a057600061160b84600201544361146c565b9050600061165960075461164b876001015461163d61162e8a6002015443611715565b8761220f90919063ffffffff16565b61220f90919063ffffffff16565b611ecf90919063ffffffff16565b905061169b61168c866004015461167e64e8d4a510008561220f90919063ffffffff16565b611ecf90919063ffffffff16565b84611e4790919063ffffffff16565b925050505b6116e482600101546116d664e8d4a510006116c885876004015461220f90919063ffffffff16565b611ecf90919063ffffffff16565b611f3290919063ffffffff16565b935050505092915050565b600260009054906101000a900473ffffffffffffffffffffffffffffffffffffffff1681565b6000806008548403905060006008548403905060006117338361254b565b905060006117408361254b565b905060008183141561176e576117676001830360020a600454611ecf90919063ffffffff16565b905061182e565b600085600a600185036005811061178157fe5b01540390506000600a600185036005811061179857fe5b01548603905060006117bb6001870360020a600454611ecf90919063ffffffff16565b905060006117da6001870360020a600454611ecf90919063ffffffff16565b90506118276117f28a8a611f3290919063ffffffff16565b611805838661220f90919063ffffffff16565b611818858861220f90919063ffffffff16565b01611ecf90919063ffffffff16565b9450505050505b809550505050505092915050565b61184461070c565b82106118b8576040517f08c379a00000000000000000000000000000000000000000000000000000000081526004018080602001828103825260078152602001807f626164207069640000000000000000000000000000000000000000000000000081525060200191505060405180910390fd5b6000811161192e576040517f08c379a00000000000000000000000000000000000000000000000000000000081526004018080602001828103825260138152602001807f616d6f756e7420636f756c64276e20626520300000000000000000000000000081525060200191505060405180910390fd5b60006005838154811061193d57fe5b9060005260206000209060050201905060006006600085815260200190815260200160002060003373ffffffffffffffffffffffffffffffffffffffff1673ffffffffffffffffffffffffffffffffffffffff16815260200190815260200160002090506119aa84611f7c565b6000816000015414156119c1574281600201819055505b600081600001541115611aae576000611a188260010154611a0a64e8d4a510006119fc8760030154876004015461220f90919063ffffffff16565b611ecf90919063ffffffff16565b611f3290919063ffffffff16565b90506000811115611aac576000611a2f8633610998565b90506000611a596064611a4b848661220f90919063ffffffff16565b611ecf90919063ffffffff16565b90506000611a708285611f3290919063ffffffff16565b9050611a9e600260009054906101000a900473ffffffffffffffffffffffffffffffffffffffff1683612295565b611aa83382612295565b5050505b505b6000831115611b9f57611b083330858560000160009054906101000a900473ffffffffffffffffffffffffffffffffffffffff1673ffffffffffffffffffffffffffffffffffffffff166125db909392919063ffffffff16565b611b1f838260000154611e4790919063ffffffff16565b8160000181905550611b3481600001546124e1565b8160030181905550600081600401549050611b608260030154836000015461220f90919063ffffffff16565b8260040181905550611b958260040154611b87838660040154611f3290919063ffffffff16565b611e4790919063ffffffff16565b8360040181905550505b611bd164e8d4a51000611bc38460030154846004015461220f90919063ffffffff16565b611ecf90919063ffffffff16565b8160010181905550833373ffffffffffffffffffffffffffffffffffffffff167f90890809c654f11d6e72a28fa60149770a0d11ec6c92319d6ceb2bb0a4ea1a15856040518082815260200191505060405180910390a350505050565b60095481565b611c3c611e3f565b73ffffffffffffffffffffffffffffffffffffffff1660008054906101000a900473ffffffffffffffffffffffffffffffffffffffff1673ffffffffffffffffffffffffffffffffffffffff1614611cfc576040517f08c379a00000000000000000000000000000000000000000000000000000000081526004018080602001828103825260208152602001807f4f776e61626c653a2063616c6c6572206973206e6f7420746865206f776e657281525060200191505060405180910390fd5b600073ffffffffffffffffffffffffffffffffffffffff168173ffffffffffffffffffffffffffffffffffffffff161415611d82576040517f08c379a0000000000000000000000000000000000000000000000000000000008152600401808060200182810382526026815260200180612bb26026913960400191505060405180910390fd5b8073ffffffffffffffffffffffffffffffffffffffff1660008054906101000a900473ffffffffffffffffffffffffffffffffffffffff1673ffffffffffffffffffffffffffffffffffffffff167f8be0079c531659141344cd1fd0a4f28419497f9722a3daafe3b4186f6b6457e060405160405180910390a3806000806101000a81548173ffffffffffffffffffffffffffffffffffffffff021916908373ffffffffffffffffffffffffffffffffffffffff16021790555050565b600033905090565b600080828401905083811015611ec5576040517f08c379a000000000000000000000000000000000000000000000000000000000815260040180806020018281038252601b8152602001807f536166654d6174683a206164646974696f6e206f766572666c6f77000000000081525060200191505060405180910390fd5b8091505092915050565b6000611f1183836040518060400160405280601a81526020017f536166654d6174683a206469766973696f6e206279207a65726f00000000000081525061269c565b905092915050565b6000818311611f285781611f2a565b825b905092915050565b6000611f7483836040518060400160405280601e81526020017f536166654d6174683a207375627472616374696f6e206f766572666c6f770000815250612762565b905092915050565b600060058281548110611f8b57fe5b9060005260206000209060050201905080600201544311611fac575061220c565b600081600401541415611fc8574381600201819055505061220c565b6000611fd882600201544361146c565b90506000612026600754612018856001015461200a611ffb886002015443611715565b8761220f90919063ffffffff16565b61220f90919063ffffffff16565b611ecf90919063ffffffff16565b9050600160009054906101000a900473ffffffffffffffffffffffffffffffffffffffff1673ffffffffffffffffffffffffffffffffffffffff166340c10f19600260009054906101000a900473ffffffffffffffffffffffffffffffffffffffff1661209d600a85611ecf90919063ffffffff16565b6040518363ffffffff1660e01b8152600401808373ffffffffffffffffffffffffffffffffffffffff16815260200182815260200192505050600060405180830381600087803b1580156120f057600080fd5b505af1158015612104573d6000803e3d6000fd5b50505050600160009054906101000a900473ffffffffffffffffffffffffffffffffffffffff1673ffffffffffffffffffffffffffffffffffffffff166340c10f1930836040518363ffffffff1660e01b8152600401808373ffffffffffffffffffffffffffffffffffffffff16815260200182815260200192505050600060405180830381600087803b15801561219b57600080fd5b505af11580156121af573d6000803e3d6000fd5b505050506121f76121e484600401546121d664e8d4a510008561220f90919063ffffffff16565b611ecf90919063ffffffff16565b8460030154611e4790919063ffffffff16565b83600301819055504383600201819055505050505b50565b600080831415612222576000905061228f565b600082840290508284828161223357fe5b041461228a576040517f08c379a0000000000000000000000000000000000000000000000000000000008152600401808060200182810382526021815260200180612c236021913960400191505060405180910390fd5b809150505b92915050565b6000600160009054906101000a900473ffffffffffffffffffffffffffffffffffffffff1673ffffffffffffffffffffffffffffffffffffffff166370a08231306040518263ffffffff1660e01b8152600401808273ffffffffffffffffffffffffffffffffffffffff16815260200191505060206040518083038186803b15801561232057600080fd5b505afa158015612334573d6000803e3d6000fd5b505050506040513d602081101561234a57600080fd5b81019080805190602001909291905050509050600160009054906101000a900473ffffffffffffffffffffffffffffffffffffffff1673ffffffffffffffffffffffffffffffffffffffff1663a9059cbb848385116123a957846123ab565b835b6040518363ffffffff1660e01b8152600401808373ffffffffffffffffffffffffffffffffffffffff16815260200182815260200192505050602060405180830381600087803b1580156123fe57600080fd5b505af1158015612412573d6000803e3d6000fd5b505050506040513d602081101561242857600080fd5b810190808051906020019092919050505050505050565b6124dc8363a9059cbb60e01b8484604051602401808373ffffffffffffffffffffffffffffffffffffffff16815260200182815260200192505050604051602081830303815290604052907bffffffffffffffffffffffffffffffffffffffffffffffffffffffff19166020820180517bffffffffffffffffffffffffffffffffffffffffffffffffffffffff8381831617835250505050612822565b505050565b6000671bc16d674ec8000082116124fb57600c9050612546565b671bc16d674ec800008211801561251a575067d02ab486cedc00008211155b1561252857600a9050612546565b68056bc75e2d6310000082116125415760089050612546565b600690505b919050565b600080600a60046005811061255c57fe5b0154831061256d57600590506125d2565b600a60036005811061257b57fe5b0154831061258c57600490506125d1565b600a60026005811061259a57fe5b015483106125ab57600390506125d0565b600a6001600581106125b957fe5b015483106125ca57600290506125cf565b600190505b5b5b5b80915050919050565b612696846323b872dd60e01b858585604051602401808473ffffffffffffffffffffffffffffffffffffffff1681526020018373ffffffffffffffffffffffffffffffffffffffff1681526020018281526020019350505050604051602081830303815290604052907bffffffffffffffffffffffffffffffffffffffffffffffffffffffff19166020820180517bffffffffffffffffffffffffffffffffffffffffffffffffffffffff8381831617835250505050612822565b50505050565b60008083118290612748576040517f08c379a00000000000000000000000000000000000000000000000000000000081526004018080602001828103825283818151815260200191508051906020019080838360005b8381101561270d5780820151818401526020810190506126f2565b50505050905090810190601f16801561273a5780820380516001836020036101000a031916815260200191505b509250505060405180910390fd5b50600083858161275457fe5b049050809150509392505050565b600083831115829061280f576040517f08c379a00000000000000000000000000000000000000000000000000000000081526004018080602001828103825283818151815260200191508051906020019080838360005b838110156127d45780820151818401526020810190506127b9565b50505050905090810190601f1680156128015780820380516001836020036101000a031916815260200191505b509250505060405180910390fd5b5060008385039050809150509392505050565b6060612884826040518060400160405280602081526020017f5361666545524332303a206c6f772d6c6576656c2063616c6c206661696c65648152508573ffffffffffffffffffffffffffffffffffffffff166129119092919063ffffffff16565b905060008151111561290c578080602001905160208110156128a557600080fd5b810190808051906020019092919050505061290b576040517f08c379a000000000000000000000000000000000000000000000000000000000815260040180806020018281038252602a815260200180612c44602a913960400191505060405180910390fd5b5b505050565b60606129208484600085612929565b90509392505050565b606082471015612984576040517f08c379a0000000000000000000000000000000000000000000000000000000008152600401808060200182810382526026815260200180612bd86026913960400191505060405180910390fd5b61298d85612ad2565b6129ff576040517f08c379a000000000000000000000000000000000000000000000000000000000815260040180806020018281038252601d8152602001807f416464726573733a2063616c6c20746f206e6f6e2d636f6e747261637400000081525060200191505060405180910390fd5b600060608673ffffffffffffffffffffffffffffffffffffffff1685876040518082805190602001908083835b60208310612a4f5780518252602082019150602081019050602083039250612a2c565b6001836020036101000a03801982511681845116808217855250505050505090500191505060006040518083038185875af1925050503d8060008114612ab1576040519150601f19603f3d011682016040523d82523d6000602084013e612ab6565b606091505b5091509150612ac6828286612ae5565b92505050949350505050565b600080823b905060008111915050919050565b60608315612af557829050612baa565b600083511115612b085782518084602001fd5b816040517f08c379a00000000000000000000000000000000000000000000000000000000081526004018080602001828103825283818151815260200191508051906020019080838360005b83811015612b6f578082015181840152602081019050612b54565b50505050905090810190601f168015612b9c5780820380516001836020036101000a031916815260200191505b509250505060405180910390fd5b939250505056fe4f776e61626c653a206e6577206f776e657220697320746865207a65726f2061646472657373416464726573733a20696e73756666696369656e742062616c616e636520666f722063616c6c796f752063616e2774206b656570206c657373207468616e20302e31204c5020746f6b656e536166654d6174683a206d756c7469706c69636174696f6e206f766572666c6f775361666545524332303a204552433230206f7065726174696f6e20646964206e6f742073756363656564a2646970667358221220468dad1cb852a99a1230a7c18d73bd23dec59dc8475ce2b63dce3b226b614c0764736f6c63430007000033",
  "immutableReferences": {},
  "source": "// SPDX-License-Identifier: MIT\npragma solidity ^0.7.0;\n\nimport \"@openzeppelin/contracts/access/Ownable.sol\";\nimport {SafeMath} from \"@openzeppelin/contracts/math/SafeMath.sol\";\nimport {SafeERC20} from \"@openzeppelin/contracts/token/ERC20/SafeERC20.sol\";\nimport \"./NovaToken2.sol\";\n\n// MasterUniverse is the master of Nova. He can make Nova and he is a fair guy.\n//\n// Note that it's ownable and the owner wields tremendous power. The ownership\n// will be transferred to a governance smart contract once NOVA is sufficiently\n// distributed and the community can show to govern itself.\n//\n// Have fun reading it. Hopefully it's bug-free. God bless.\ncontract MasterUniverse2 is Ownable {\n    using SafeMath for uint256;\n    using SafeERC20 for IERC20;\n\n    // Info of each user.\n    struct UserInfo {\n        uint256 amount; // How many LP tokens the user has provided.\n        uint256 rewardDebt; // Reward debt. See explanation below.\n        uint256 lastStakedTime; // Useful for fees calculate\n        uint256 buffRate; // Calculated per share of LP\n        uint256 plasmaPower;\n        //\n        // We do some fancy math here. Basically, any point in time, the amount of NOVAs\n        // entitled to a user but is pending to be distributed is:\n        //\n        //   pending reward = (user.amount * pool.accNovaPerShare) - user.rewardDebt\n        //\n        // Whenever a user deposits or withdraws LP tokens to a pool. Here's what happens:\n        //   1. The pool's `accNovaPerShare` (and `lastRewardBlock`) gets updated.\n        //   2. User receives the pending reward sent to his/her address.\n        //   3. User's `amount` gets updated.\n        //   4. User's `rewardDebt` gets updated.\n    }\n\n    // Info of each pool.\n    struct PoolInfo {\n        IERC20 lpToken; // Address of LP token contract.\n        uint256 allocPoint; // How many allocation points assigned to this pool. NOVAs to distribute per block.\n        uint256 lastRewardBlock; // Last block number that NOVAs distribution occurs.\n        uint256 accNovaPerShare; // Accumulated NOVAs per share, times 1e12. See below.\n        uint256 totalPlasmaPower;\n    }\n\n    // The NOVA TOKEN!\n    NovaToken2 public nova;\n    // Dev address.\n    address public devaddr;\n    // Block number when bonus NOVA period ends.\n    uint256 public bonusEndBlock;\n    // NOVA tokens created per block.\n    uint256 public novaPerBlock;\n    // Bonus multiplier for early nova makers.\n    uint256 public constant BONUS_MULTIPLIER = 2; //10 for test\n    // Info of each pool.\n    PoolInfo[] public poolInfo;\n    // Info of each user that stakes LP tokens.\n    mapping(uint256 => mapping(address => UserInfo)) public userInfo;\n    // Total allocation points. Must be the sum of all allocation points in all pools.\n    uint256 public totalAllocPoint = 0;\n    // The block number when NOVA mining starts.\n    uint256 public startBlock;\n    // The timestamp when NOVA mining starts\n    uint256 public startTimestamp;\n    // Halving constant : 1 => 0 | 2 => 10 * 6500 | 3 ...\n    uint256[5] private halvings = [0,65000,195000,455000,975000];\n    //uint256[5] private halvings = [0,10,30,70,150]; // For test\n\n    // Test version\n    // uint256 private constant TINY_LIMIT = 5 * 1 wei;\n    // uint256 private constant COMMON_LIMIT = 20 * 1 wei;\n    // uint256 private constant HUGE_LIMIT = 80 * 1 wei;\n\n    // PROD version\n    uint256 private constant TINY_LIMIT = 2 * 1 ether;\n    uint256 private constant COMMON_LIMIT = 15 * 1 ether;\n    uint256 private constant HUGE_LIMIT = 100 * 1 ether;\n\n    event Deposit(address indexed user, uint256 indexed pid, uint256 amount);\n    event Withdraw(address indexed user, uint256 indexed pid, uint256 amount);\n    event EmergencyWithdraw(address indexed user, uint256 indexed pid, uint256 amount);\n\n    constructor(\n        NovaToken2 _nova,\n        address _devaddr,\n        uint256 _novaPerBlock,\n        uint256 _startBlock,\n        uint256 _bonusEndBlock\n    ) {\n        nova = _nova;\n        devaddr = _devaddr;\n        novaPerBlock = _novaPerBlock;\n        bonusEndBlock = _bonusEndBlock;\n        startBlock = _startBlock;\n        startTimestamp = block.timestamp;\n    }\n\n    function poolLength() public view returns (uint256) {\n        return poolInfo.length;\n    }\n\n    // Add a new lp to the pool. Can only be called by the owner.\n    // XXX DO NOT add the same LP token more than once. Rewards will be messed up if you do.\n    function add(uint256 _allocPoint, IERC20 _lpToken, bool _withUpdate) public onlyOwner {\n        if (_withUpdate) {\n            massUpdatePools();\n        }\n        uint256 lastRewardBlock = block.number > startBlock ? block.number : startBlock;\n        totalAllocPoint = totalAllocPoint.add(_allocPoint);\n        poolInfo.push(PoolInfo({\n            lpToken: _lpToken,\n            allocPoint: _allocPoint,\n            lastRewardBlock: lastRewardBlock,\n            accNovaPerShare: 0,\n            totalPlasmaPower: 0\n        }));\n    }\n\n    // Update the given pool's NOVA allocation point. Can only be called by the owner.\n    function set(uint256 _pid, uint256 _allocPoint, bool _withUpdate) public onlyOwner {\n        if (_withUpdate) {\n            massUpdatePools();\n        }\n        totalAllocPoint = totalAllocPoint.sub(poolInfo[_pid].allocPoint).add(_allocPoint);\n        poolInfo[_pid].allocPoint = _allocPoint;\n    }\n\n    // Return reward multiplier over the given _from to _to block.\n    function getMultiplier(uint256 _from, uint256 _to) public view returns (uint256) {\n        if (_to <= bonusEndBlock) {\n            return _to.sub(_from).mul(BONUS_MULTIPLIER);\n        } else if (_from >= bonusEndBlock) {\n            return _to.sub(_from);\n        } else {\n            return bonusEndBlock.sub(_from).mul(BONUS_MULTIPLIER).add(\n                _to.sub(bonusEndBlock)\n            );\n        }\n    }\n\n    function calculateBuffRate(uint _amount) private pure returns (uint256) {\n        if (_amount <= TINY_LIMIT) {\n            return 12;\n        } else if (_amount > TINY_LIMIT && _amount <= COMMON_LIMIT) {\n            return 10;\n        } else if (_amount <= HUGE_LIMIT) {\n            return 8;\n        } else {\n            return 6;\n        }\n    }\n\n    // From pool.lastRewardBlock, to block.number\n    function calculateNovaPerBlock(uint256 _from, uint256 _to) public view returns (uint256)\n    {\n        // _from = 5 | _to = 20\n        uint256 countFrom = _from - startBlock;\n        uint256 countTo = _to - startBlock;\n        uint256 fromHalvingCycle = getHalvingCycleByBlockCount(countFrom); //1\n        uint256 toHalvingCycle = getHalvingCycleByBlockCount(countTo); //2\n        uint256 novaPerBlockNow;\n\n        if(fromHalvingCycle == toHalvingCycle){\n            novaPerBlockNow = novaPerBlock.div(2**(toHalvingCycle-1));\n        } else {\n            uint256 blockWithPreviousHalving = halvings[toHalvingCycle-1] - countFrom; // 10 - 5\n            uint256 blockWithCurrentHalving = countTo - halvings[toHalvingCycle-1]; // 20 - 10\n            uint previousNovaPerBlock = novaPerBlock.div(2**(fromHalvingCycle-1)); // div 1\n            uint currentNovaPerBlock = novaPerBlock.div(2**(toHalvingCycle-1)); // div 2\n            novaPerBlockNow = (blockWithPreviousHalving.mul(previousNovaPerBlock) + blockWithCurrentHalving.mul(currentNovaPerBlock)).div(countTo.sub(countFrom)); // (5*1 + 10*0.5) / 15\n        }\n        return novaPerBlockNow;\n    }\n\n    function getHalvingCycleByBlockCount(uint256 _blockCount) private view returns (uint256)\n    {\n        uint256 halvingCycle;\n        if(_blockCount >= halvings[4]){\n            halvingCycle = 5;\n        } else if(_blockCount >= halvings[3]){\n            halvingCycle = 4;\n        } else if(_blockCount >= halvings[2]){\n            halvingCycle = 3;\n        } else if(_blockCount >= halvings[1]){\n            halvingCycle = 2;\n        }  else {\n            halvingCycle = 1;\n        }\n        return halvingCycle;\n    }\n\n    // View function to see pending NOVAs on frontend.\n    function pendingNova(uint256 _pid, address _user) external view returns (uint256) {\n        PoolInfo storage pool = poolInfo[_pid];\n        UserInfo storage user = userInfo[_pid][_user];\n        uint256 accNovaPerShare = pool.accNovaPerShare;\n        if (block.number > pool.lastRewardBlock && pool.totalPlasmaPower != 0) {\n            uint256 multiplier = getMultiplier(pool.lastRewardBlock, block.number);\n            uint256 novaReward = multiplier.mul(calculateNovaPerBlock(pool.lastRewardBlock, block.number)).mul(pool.allocPoint).div(totalAllocPoint);\n            accNovaPerShare = accNovaPerShare.add(novaReward.mul(1e12).div(pool.totalPlasmaPower));\n        }\n\n        return user.plasmaPower.mul(accNovaPerShare).div(1e12).sub(user.rewardDebt);\n    }\n\n    // Update reward variables for all pools. Be careful of gas spending!\n    function massUpdatePools() public {\n        uint256 length = poolInfo.length;\n        for (uint256 pid = 0; pid < length; ++pid) {\n            updatePool(pid);\n        }\n    }\n\n    function calculateFeesPercentage(uint256 _pid, address _user) public view returns (uint256) {\n        UserInfo storage user = userInfo[_pid][_user];\n        uint currentTimestamp = block.timestamp; \n        uint daysSinceStartStaking = (currentTimestamp - user.lastStakedTime).div(60).div(60).div(24);\n        uint feesPercentage = max(30 - daysSinceStartStaking.div(2), 1); // -1% by two days - start to 30, and min to 1\n        return feesPercentage;\n    }\n\n    function max(uint a, uint b) private pure returns (uint) {\n        return a > b ? a : b;\n    }\n\n    // Update reward variables of the given pool to be up-to-date.\n    function updatePool(uint256 _pid) private {\n        PoolInfo storage pool = poolInfo[_pid];\n        if (block.number <= pool.lastRewardBlock) {\n            return;\n        }\n        if (pool.totalPlasmaPower == 0) {\n            pool.lastRewardBlock = block.number;\n            return;\n        }\n        uint256 multiplier = getMultiplier(pool.lastRewardBlock, block.number);\n        uint256 novaReward = multiplier.mul(calculateNovaPerBlock(pool.lastRewardBlock, block.number)).mul(pool.allocPoint).div(totalAllocPoint);\n        nova.mint(devaddr, novaReward.div(10));\n        nova.mint(address(this), novaReward);\n        pool.accNovaPerShare = pool.accNovaPerShare.add(novaReward.mul(1e12).div(pool.totalPlasmaPower));\n        pool.lastRewardBlock = block.number;\n    }\n\n    // Deposit LP tokens to MasterUniverse for NOVA allocation.\n    function deposit(uint256 _pid, uint256 _amount) external {\n        require(_pid < poolLength(), \"bad pid\");\n        require(_amount > 0, \"amount could'n be 0\");\n        //require(_amount >= 0.1 ether, \"amount could'n be lower than 0.1 LP token\");\n\n        PoolInfo storage pool = poolInfo[_pid];\n        UserInfo storage user = userInfo[_pid][msg.sender];\n\n        updatePool(_pid);\n\n        if (user.amount == 0) {\n            user.lastStakedTime = block.timestamp; \n        }\n\n        // they already staked so let's harvest\n        if (user.amount > 0) {\n            uint256 pending = user.plasmaPower.mul(pool.accNovaPerShare).div(1e12).sub(user.rewardDebt);\n            if (pending > 0) {\n                uint feesPercentage = calculateFeesPercentage(_pid, msg.sender);\n                uint256 fees = pending.mul(feesPercentage).div(100);\n                uint256 gain = pending.sub(fees);\n                safeNovaTransfer(devaddr, fees);\n                safeNovaTransfer(msg.sender, gain);\n            }\n        }\n\n        if (_amount > 0) {\n            pool.lpToken.safeTransferFrom(address(msg.sender),address(this),_amount);\n            user.amount = user.amount.add(_amount);\n            user.buffRate = calculateBuffRate(user.amount);\n            uint prevPlasmaPower = user.plasmaPower;\n            user.plasmaPower = user.amount.mul(user.buffRate);\n            pool.totalPlasmaPower = pool.totalPlasmaPower.sub(prevPlasmaPower).add(user.plasmaPower);\n        }\n\n        user.rewardDebt = user.plasmaPower.mul(pool.accNovaPerShare).div(1e12);\n        emit Deposit(msg.sender, _pid, _amount);\n    }\n\n    // Withdraw LP tokens from MasterUniverse.\n    function withdraw(uint256 _pid, uint256 _amount) external {\n        require(_pid < poolLength(), \"bad pid\");\n\n        PoolInfo storage pool = poolInfo[_pid];\n        UserInfo storage user = userInfo[_pid][msg.sender];\n\n        require(user.amount >= _amount, \"withdraw: not good\");\n        require(user.amount.sub(_amount) == 0 || user.amount.sub(_amount) >= 0.1 ether, \"you can't keep less than 0.1 LP token\");\n\n        updatePool(_pid);\n\n        uint256 pending = user.plasmaPower.mul(pool.accNovaPerShare).div(1e12).sub(user.rewardDebt);\n        uint256 fees;\n        if(pending > 0) {\n            uint feesPercentage = calculateFeesPercentage(_pid, msg.sender);\n            fees = pending.mul(feesPercentage).div(100);\n            uint256 gain = pending.sub(fees);\n            safeNovaTransfer(devaddr, fees);\n            safeNovaTransfer(msg.sender, gain);\n        }\n\n        if (_amount > 0) {\n            pool.lpToken.safeTransfer(address(msg.sender), _amount);\n            user.amount = user.amount.sub(_amount);\n            user.buffRate = calculateBuffRate(user.amount);\n            uint prevPlasmaPower = user.plasmaPower;\n            user.plasmaPower = user.amount.mul(user.buffRate);\n            pool.totalPlasmaPower = pool.totalPlasmaPower.sub(prevPlasmaPower).add(user.plasmaPower);\n            user.lastStakedTime = block.timestamp;\n        }\n\n        user.rewardDebt = user.plasmaPower.mul(pool.accNovaPerShare).div(1e12);\n        emit Withdraw(msg.sender, _pid, _amount);\n    }\n\n    // Withdraw without caring about rewards. EMERGENCY ONLY.\n    function emergencyWithdraw(uint256 _pid) public {\n        PoolInfo storage pool = poolInfo[_pid];\n        UserInfo storage user = userInfo[_pid][msg.sender];\n        uint256 amount = user.amount;\n        user.amount = 0;\n        user.rewardDebt = 0;\n        pool.totalPlasmaPower = pool.totalPlasmaPower.sub(user.plasmaPower);\n        pool.lpToken.safeTransfer(address(msg.sender), amount);\n        emit EmergencyWithdraw(msg.sender, _pid, amount);\n    }\n\n    // Safe nova transfer function, just in case\n    // if rounding error causes pool to not have enough NOVAs.\n    function safeNovaTransfer(address _to, uint256 _amount) private {\n        uint256 novaBal = nova.balanceOf(address(this));\n        nova.transfer(_to, _amount > novaBal ? novaBal : _amount);\n    }\n\n    // Update dev address by the previous dev.\n    function dev(address _devaddr) public {\n        require(msg.sender == devaddr, \"dev: wut?\");\n        devaddr = _devaddr;\n    }\n}\n",
  "sourcePath": "/Users/romain/Work/02_lab/komet/contracts/MasterUniverse2.sol",
  "compiler": {
    "name": "solc",
    "version": "0.7.0+commit.9e61f92b.Emscripten.clang"
  },
  "schemaVersion": "3.3.2",
  "updatedAt": "2020-12-12T22:28:14.070Z",
  "networkType": "ethereum",
  "devdoc": {
    "kind": "dev",
    "methods": {
      "owner()": {
        "details": "Returns the address of the current owner."
      },
      "renounceOwnership()": {
        "details": "Leaves the contract without owner. It will not be possible to call `onlyOwner` functions anymore. Can only be called by the current owner. NOTE: Renouncing ownership will leave the contract without an owner, thereby removing any functionality that is only available to the owner."
      },
      "transferOwnership(address)": {
        "details": "Transfers ownership of the contract to a new account (`newOwner`). Can only be called by the current owner."
      }
    },
    "version": 1
  },
  "userdoc": {
    "kind": "user",
    "methods": {},
    "version": 1
  }
}