{
  "contractName": "MasterUniverse",
  "abi": [
    {
      "inputs": [
        {
          "internalType": "contract NovaToken",
          "name": "_nova",
          "type": "address"
        },
        {
          "internalType": "address",
          "name": "_devaddr",
          "type": "address"
        },
        {
          "internalType": "uint256",
          "name": "_novaPerBlock",
          "type": "uint256"
        },
        {
          "internalType": "uint256",
          "name": "_startBlock",
          "type": "uint256"
        },
        {
          "internalType": "uint256",
          "name": "_bonusEndBlock",
          "type": "uint256"
        }
      ],
      "stateMutability": "nonpayable",
      "type": "constructor"
    },
    {
      "anonymous": false,
      "inputs": [
        {
          "indexed": true,
          "internalType": "address",
          "name": "user",
          "type": "address"
        },
        {
          "indexed": true,
          "internalType": "uint256",
          "name": "pid",
          "type": "uint256"
        },
        {
          "indexed": false,
          "internalType": "uint256",
          "name": "amount",
          "type": "uint256"
        }
      ],
      "name": "Deposit",
      "type": "event"
    },
    {
      "anonymous": false,
      "inputs": [
        {
          "indexed": true,
          "internalType": "address",
          "name": "user",
          "type": "address"
        },
        {
          "indexed": true,
          "internalType": "uint256",
          "name": "pid",
          "type": "uint256"
        },
        {
          "indexed": false,
          "internalType": "uint256",
          "name": "amount",
          "type": "uint256"
        }
      ],
      "name": "EmergencyWithdraw",
      "type": "event"
    },
    {
      "anonymous": false,
      "inputs": [
        {
          "indexed": true,
          "internalType": "address",
          "name": "previousOwner",
          "type": "address"
        },
        {
          "indexed": true,
          "internalType": "address",
          "name": "newOwner",
          "type": "address"
        }
      ],
      "name": "OwnershipTransferred",
      "type": "event"
    },
    {
      "anonymous": false,
      "inputs": [
        {
          "indexed": true,
          "internalType": "address",
          "name": "user",
          "type": "address"
        },
        {
          "indexed": true,
          "internalType": "uint256",
          "name": "pid",
          "type": "uint256"
        },
        {
          "indexed": false,
          "internalType": "uint256",
          "name": "amount",
          "type": "uint256"
        }
      ],
      "name": "Withdraw",
      "type": "event"
    },
    {
      "inputs": [],
      "name": "BONUS_MULTIPLIER",
      "outputs": [
        {
          "internalType": "uint256",
          "name": "",
          "type": "uint256"
        }
      ],
      "stateMutability": "view",
      "type": "function",
      "constant": true
    },
    {
      "inputs": [],
      "name": "bonusEndBlock",
      "outputs": [
        {
          "internalType": "uint256",
          "name": "",
          "type": "uint256"
        }
      ],
      "stateMutability": "view",
      "type": "function",
      "constant": true
    },
    {
      "inputs": [],
      "name": "devaddr",
      "outputs": [
        {
          "internalType": "address",
          "name": "",
          "type": "address"
        }
      ],
      "stateMutability": "view",
      "type": "function",
      "constant": true
    },
    {
      "inputs": [],
      "name": "nova",
      "outputs": [
        {
          "internalType": "contract NovaToken",
          "name": "",
          "type": "address"
        }
      ],
      "stateMutability": "view",
      "type": "function",
      "constant": true
    },
    {
      "inputs": [],
      "name": "novaPerBlock",
      "outputs": [
        {
          "internalType": "uint256",
          "name": "",
          "type": "uint256"
        }
      ],
      "stateMutability": "view",
      "type": "function",
      "constant": true
    },
    {
      "inputs": [],
      "name": "owner",
      "outputs": [
        {
          "internalType": "address",
          "name": "",
          "type": "address"
        }
      ],
      "stateMutability": "view",
      "type": "function",
      "constant": true
    },
    {
      "inputs": [
        {
          "internalType": "uint256",
          "name": "",
          "type": "uint256"
        }
      ],
      "name": "poolInfo",
      "outputs": [
        {
          "internalType": "contract IERC20",
          "name": "lpToken",
          "type": "address"
        },
        {
          "internalType": "uint256",
          "name": "allocPoint",
          "type": "uint256"
        },
        {
          "internalType": "uint256",
          "name": "lastRewardBlock",
          "type": "uint256"
        },
        {
          "internalType": "uint256",
          "name": "accNovaPerShare",
          "type": "uint256"
        },
        {
          "internalType": "uint256",
          "name": "totalLpStaked",
          "type": "uint256"
        }
      ],
      "stateMutability": "view",
      "type": "function",
      "constant": true
    },
    {
      "inputs": [],
      "name": "renounceOwnership",
      "outputs": [],
      "stateMutability": "nonpayable",
      "type": "function"
    },
    {
      "inputs": [],
      "name": "startBlock",
      "outputs": [
        {
          "internalType": "uint256",
          "name": "",
          "type": "uint256"
        }
      ],
      "stateMutability": "view",
      "type": "function",
      "constant": true
    },
    {
      "inputs": [],
      "name": "startTimestamp",
      "outputs": [
        {
          "internalType": "uint256",
          "name": "",
          "type": "uint256"
        }
      ],
      "stateMutability": "view",
      "type": "function",
      "constant": true
    },
    {
      "inputs": [],
      "name": "totalAllocPoint",
      "outputs": [
        {
          "internalType": "uint256",
          "name": "",
          "type": "uint256"
        }
      ],
      "stateMutability": "view",
      "type": "function",
      "constant": true
    },
    {
      "inputs": [
        {
          "internalType": "address",
          "name": "newOwner",
          "type": "address"
        }
      ],
      "name": "transferOwnership",
      "outputs": [],
      "stateMutability": "nonpayable",
      "type": "function"
    },
    {
      "inputs": [
        {
          "internalType": "uint256",
          "name": "",
          "type": "uint256"
        },
        {
          "internalType": "address",
          "name": "",
          "type": "address"
        }
      ],
      "name": "userInfo",
      "outputs": [
        {
          "internalType": "uint256",
          "name": "lastStakedTime",
          "type": "uint256"
        },
        {
          "internalType": "uint256",
          "name": "amount",
          "type": "uint256"
        },
        {
          "internalType": "uint256",
          "name": "rewardDebt",
          "type": "uint256"
        },
        {
          "internalType": "address",
          "name": "next",
          "type": "address"
        }
      ],
      "stateMutability": "view",
      "type": "function",
      "constant": true
    },
    {
      "inputs": [],
      "name": "poolLength",
      "outputs": [
        {
          "internalType": "uint256",
          "name": "",
          "type": "uint256"
        }
      ],
      "stateMutability": "view",
      "type": "function",
      "constant": true
    },
    {
      "inputs": [
        {
          "internalType": "uint256",
          "name": "_allocPoint",
          "type": "uint256"
        },
        {
          "internalType": "contract IERC20",
          "name": "_lpToken",
          "type": "address"
        },
        {
          "internalType": "bool",
          "name": "_withUpdate",
          "type": "bool"
        }
      ],
      "name": "add",
      "outputs": [],
      "stateMutability": "nonpayable",
      "type": "function"
    },
    {
      "inputs": [
        {
          "internalType": "uint256",
          "name": "_pid",
          "type": "uint256"
        },
        {
          "internalType": "address",
          "name": "_user",
          "type": "address"
        }
      ],
      "name": "maxBuffRate",
      "outputs": [
        {
          "internalType": "uint256",
          "name": "",
          "type": "uint256"
        }
      ],
      "stateMutability": "view",
      "type": "function",
      "constant": true
    },
    {
      "inputs": [
        {
          "internalType": "uint256",
          "name": "_pid",
          "type": "uint256"
        },
        {
          "internalType": "uint256",
          "name": "_allocPoint",
          "type": "uint256"
        },
        {
          "internalType": "bool",
          "name": "_withUpdate",
          "type": "bool"
        }
      ],
      "name": "set",
      "outputs": [],
      "stateMutability": "nonpayable",
      "type": "function"
    },
    {
      "inputs": [
        {
          "internalType": "uint256",
          "name": "_from",
          "type": "uint256"
        },
        {
          "internalType": "uint256",
          "name": "_to",
          "type": "uint256"
        }
      ],
      "name": "getMultiplier",
      "outputs": [
        {
          "internalType": "uint256",
          "name": "",
          "type": "uint256"
        }
      ],
      "stateMutability": "view",
      "type": "function",
      "constant": true
    },
    {
      "inputs": [
        {
          "internalType": "uint256",
          "name": "_pid",
          "type": "uint256"
        },
        {
          "internalType": "address",
          "name": "_user",
          "type": "address"
        },
        {
          "internalType": "uint256",
          "name": "_now_",
          "type": "uint256"
        }
      ],
      "name": "calculateBuffRate",
      "outputs": [
        {
          "internalType": "uint256",
          "name": "",
          "type": "uint256"
        }
      ],
      "stateMutability": "view",
      "type": "function",
      "constant": true
    },
    {
      "inputs": [],
      "name": "calculateNovaPerBlock",
      "outputs": [
        {
          "internalType": "uint256",
          "name": "",
          "type": "uint256"
        }
      ],
      "stateMutability": "view",
      "type": "function",
      "constant": true
    },
    {
      "inputs": [
        {
          "internalType": "uint256",
          "name": "_pid",
          "type": "uint256"
        }
      ],
      "name": "totalPlasmaPower",
      "outputs": [
        {
          "internalType": "uint256",
          "name": "",
          "type": "uint256"
        }
      ],
      "stateMutability": "view",
      "type": "function",
      "constant": true
    },
    {
      "inputs": [
        {
          "internalType": "uint256",
          "name": "_pid",
          "type": "uint256"
        },
        {
          "internalType": "address",
          "name": "_user",
          "type": "address"
        }
      ],
      "name": "pendingNova",
      "outputs": [
        {
          "internalType": "uint256",
          "name": "",
          "type": "uint256"
        }
      ],
      "stateMutability": "view",
      "type": "function",
      "constant": true
    },
    {
      "inputs": [],
      "name": "massUpdatePools",
      "outputs": [],
      "stateMutability": "nonpayable",
      "type": "function"
    },
    {
      "inputs": [
        {
          "internalType": "uint256",
          "name": "_pid",
          "type": "uint256"
        },
        {
          "internalType": "address",
          "name": "_user",
          "type": "address"
        }
      ],
      "name": "calculateFeesPercentage",
      "outputs": [
        {
          "internalType": "uint256",
          "name": "",
          "type": "uint256"
        }
      ],
      "stateMutability": "view",
      "type": "function",
      "constant": true
    },
    {
      "inputs": [
        {
          "internalType": "uint256",
          "name": "_pid",
          "type": "uint256"
        },
        {
          "internalType": "uint256",
          "name": "_amount",
          "type": "uint256"
        }
      ],
      "name": "deposit",
      "outputs": [],
      "stateMutability": "nonpayable",
      "type": "function"
    },
    {
      "inputs": [
        {
          "internalType": "uint256",
          "name": "_pid",
          "type": "uint256"
        },
        {
          "internalType": "uint256",
          "name": "_amount",
          "type": "uint256"
        }
      ],
      "name": "withdraw",
      "outputs": [],
      "stateMutability": "nonpayable",
      "type": "function"
    },
    {
      "inputs": [
        {
          "internalType": "uint256",
          "name": "_pid",
          "type": "uint256"
        }
      ],
      "name": "emergencyWithdraw",
      "outputs": [],
      "stateMutability": "nonpayable",
      "type": "function"
    },
    {
      "inputs": [
        {
          "internalType": "address",
          "name": "_devaddr",
          "type": "address"
        }
      ],
      "name": "dev",
      "outputs": [],
      "stateMutability": "nonpayable",
      "type": "function"
    }
  ],
  "bytecode": "0x608060405260006007553480156200001657600080fd5b506040516200320138038062003201833981810160405260a08110156200003c57600080fd5b810190808051906020019092919080519060200190929190805190602001909291908051906020019092919080519060200190929190505050600062000087620001ce60201b60201c565b9050806000806101000a81548173ffffffffffffffffffffffffffffffffffffffff021916908373ffffffffffffffffffffffffffffffffffffffff1602179055508073ffffffffffffffffffffffffffffffffffffffff16600073ffffffffffffffffffffffffffffffffffffffff167f8be0079c531659141344cd1fd0a4f28419497f9722a3daafe3b4186f6b6457e060405160405180910390a35084600160006101000a81548173ffffffffffffffffffffffffffffffffffffffff021916908373ffffffffffffffffffffffffffffffffffffffff16021790555083600260006101000a81548173ffffffffffffffffffffffffffffffffffffffff021916908373ffffffffffffffffffffffffffffffffffffffff160217905550826004819055508060038190555081600881905550426009819055505050505050620001d6565b600033905090565b61301b80620001e66000396000f3fe608060405234801561001057600080fd5b50600436106101c45760003560e01c80636ba8fd8b116100f957806393f1a40b11610097578063d49e77cd11610071578063d49e77cd14610780578063e2bbb158146107b4578063e6fd48bc146107ec578063f2fde38b1461080a576101c4565b806393f1a40b1461064f578063b674f528146106dc578063c673fa371461071e576101c4565b80638d88a90e116100d35780638d88a90e1461051f5780638da5cb5b146105635780638dbb1e3a146105975780638dfc9b50146105e3576101c4565b80636ba8fd8b146104d9578063715018a6146104f75780638aa2855014610501576101c4565b80633e841aa011610166578063516e167111610140578063516e16711461043f5780635312ea8e1461045d578063630b5ba11461048b57806364482f7914610495576101c4565b80633e841aa014610387578063441a3e70146103e957806348cd4cb114610421576101c4565b806317caf6f1116101a257806317caf6f1146102bd5780631aed6553146102db5780631e5ba66c146102f95780631eaaa0451461032d576101c4565b8063081e3eda146101c95780631526fe27146101e757806315cc65381461025b575b600080fd5b6101d161084e565b6040518082815260200191505060405180910390f35b610213600480360360208110156101fd57600080fd5b810190808035906020019092919050505061085b565b604051808673ffffffffffffffffffffffffffffffffffffffff1681526020018581526020018481526020018381526020018281526020019550505050505060405180910390f35b6102a76004803603604081101561027157600080fd5b8101908080359060200190929190803573ffffffffffffffffffffffffffffffffffffffff1690602001909291905050506108be565b6040518082815260200191505060405180910390f35b6102c5610a9c565b6040518082815260200191505060405180910390f35b6102e3610aa2565b6040518082815260200191505060405180910390f35b610301610aa8565b604051808273ffffffffffffffffffffffffffffffffffffffff16815260200191505060405180910390f35b6103856004803603606081101561034357600080fd5b8101908080359060200190929190803573ffffffffffffffffffffffffffffffffffffffff169060200190929190803515159060200190929190505050610ace565b005b6103d36004803603604081101561039d57600080fd5b8101908080359060200190929190803573ffffffffffffffffffffffffffffffffffffffff169060200190929190505050610cb8565b6040518082815260200191505060405180910390f35b61041f600480360360408110156103ff57600080fd5b810190808035906020019092919080359060200190929190505050610d88565b005b6104296110da565b6040518082815260200191505060405180910390f35b6104476110e0565b6040518082815260200191505060405180910390f35b6104896004803603602081101561047357600080fd5b81019080803590602001909291905050506110e6565b005b61049361121a565b005b6104d7600480360360608110156104ab57600080fd5b810190808035906020019092919080359060200190929190803515159060200190929190505050611247565b005b6104e1611391565b6040518082815260200191505060405180910390f35b6104ff611468565b005b6105096115ee565b6040518082815260200191505060405180910390f35b6105616004803603602081101561053557600080fd5b81019080803573ffffffffffffffffffffffffffffffffffffffff1690602001909291905050506115f3565b005b61056b6116fa565b604051808273ffffffffffffffffffffffffffffffffffffffff16815260200191505060405180910390f35b6105cd600480360360408110156105ad57600080fd5b810190808035906020019092919080359060200190929190505050611723565b6040518082815260200191505060405180910390f35b610639600480360360608110156105f957600080fd5b8101908080359060200190929190803573ffffffffffffffffffffffffffffffffffffffff169060200190929190803590602001909291905050506117d5565b6040518082815260200191505060405180910390f35b61069b6004803603604081101561066557600080fd5b8101908080359060200190929190803573ffffffffffffffffffffffffffffffffffffffff16906020019092919050505061189d565b604051808581526020018481526020018381526020018273ffffffffffffffffffffffffffffffffffffffff16815260200194505050505060405180910390f35b610708600480360360208110156106f257600080fd5b81019080803590602001909291905050506118fa565b6040518082815260200191505060405180910390f35b61076a6004803603604081101561073457600080fd5b8101908080359060200190929190803573ffffffffffffffffffffffffffffffffffffffff16906020019092919050505061190a565b6040518082815260200191505060405180910390f35b610788611aa3565b604051808273ffffffffffffffffffffffffffffffffffffffff16815260200191505060405180910390f35b6107ea600480360360408110156107ca57600080fd5b810190808035906020019092919080359060200190929190505050611ac9565b005b6107f4611f79565b6040518082815260200191505060405180910390f35b61084c6004803603602081101561082057600080fd5b81019080803573ffffffffffffffffffffffffffffffffffffffff169060200190929190505050611f7f565b005b6000600580549050905090565b6005818154811061086857fe5b90600052602060002090600502016000915090508060000160009054906101000a900473ffffffffffffffffffffffffffffffffffffffff16908060010154908060020154908060030154908060040154905085565b600080600584815481106108ce57fe5b9060005260206000209060050201905060006006600086815260200190815260200160002060008573ffffffffffffffffffffffffffffffffffffffff1673ffffffffffffffffffffffffffffffffffffffff168152602001908152602001600020905060008260040154116109ac576040517f08c379a00000000000000000000000000000000000000000000000000000000081526004018080602001828103825260058152602001807f302064697600000000000000000000000000000000000000000000000000000081525060200191505060405180910390fd5b60006109dd83600401546109cf612710856001015461218a90919063ffffffff16565b61221090919063ffffffff16565b9050600a81116109f357605a9350505050610a96565b600a81118015610a035750606481105b15610a145760969350505050610a96565b60648110610a285760289350505050610a96565b6040517f08c379a00000000000000000000000000000000000000000000000000000000081526004018080602001828103825260038152602001807f626164000000000000000000000000000000000000000000000000000000000081525060200191505060405180910390fd5b92915050565b60075481565b60035481565b600160009054906101000a900473ffffffffffffffffffffffffffffffffffffffff1681565b610ad661225a565b73ffffffffffffffffffffffffffffffffffffffff1660008054906101000a900473ffffffffffffffffffffffffffffffffffffffff1673ffffffffffffffffffffffffffffffffffffffff1614610b96576040517f08c379a00000000000000000000000000000000000000000000000000000000081526004018080602001828103825260208152602001807f4f776e61626c653a2063616c6c6572206973206e6f7420746865206f776e657281525060200191505060405180910390fd5b8015610ba557610ba461121a565b5b60006008544311610bb857600854610bba565b435b9050610bd18460075461226290919063ffffffff16565b60078190555060056040518060a001604052808573ffffffffffffffffffffffffffffffffffffffff168152602001868152602001838152602001600081526020016000815250908060018154018082558091505060019003906000526020600020906005020160009091909190915060008201518160000160006101000a81548173ffffffffffffffffffffffffffffffffffffffff021916908373ffffffffffffffffffffffffffffffffffffffff16021790555060208201518160010155604082015181600201556060820151816003015560808201518160040155505050505050565b6000806006600085815260200190815260200160002060008473ffffffffffffffffffffffffffffffffffffffff1673ffffffffffffffffffffffffffffffffffffffff168152602001908152602001600020905060004290506000610d546018610d46603c610d38603c8860000154880361221090919063ffffffff16565b61221090919063ffffffff16565b61221090919063ffffffff16565b90506000610d79610d6f60028461221090919063ffffffff16565b601e0360016122ea565b90508094505050505092915050565b610d9061084e565b8210610e04576040517f08c379a00000000000000000000000000000000000000000000000000000000081526004018080602001828103825260078152602001807f626164207069640000000000000000000000000000000000000000000000000081525060200191505060405180910390fd5b600060058381548110610e1357fe5b9060005260206000209060050201905060006006600085815260200190815260200160002060003373ffffffffffffffffffffffffffffffffffffffff1673ffffffffffffffffffffffffffffffffffffffff16815260200190815260200160002090508281600101541015610ef1576040517f08c379a00000000000000000000000000000000000000000000000000000000081526004018080602001828103825260128152602001807f77697468647261773a206e6f7420676f6f64000000000000000000000000000081525060200191505060405180910390fd5b610efa84612303565b6000610f06853361190a565b90506000811115610f9a576000610f1d8633610cb8565b90506000610f476064610f39848661218a90919063ffffffff16565b61221090919063ffffffff16565b90506000610f5e828561266290919063ffffffff16565b9050610f8c600260009054906101000a900473ffffffffffffffffffffffffffffffffffffffff16836126ac565b610f9633826126ac565b5050505b600084111561103157610fba84836001015461266290919063ffffffff16565b8260010181905550610fd984846004015461266290919063ffffffff16565b836004018190555061103033858560000160009054906101000a900473ffffffffffffffffffffffffffffffffffffffff1673ffffffffffffffffffffffffffffffffffffffff166128569092919063ffffffff16565b5b6000808460040154111561104d5761104a8633426128f8565b90505b61107b64e8d4a5100061106d86600301548461218a90919063ffffffff16565b61221090919063ffffffff16565b8360020181905550853373ffffffffffffffffffffffffffffffffffffffff167ff279e6a1f5e320cca91135676d9cb6e44ca8a08c0b88342bcdb1144f6511b568876040518082815260200191505060405180910390a3505050505050565b60085481565b60045481565b6000600582815481106110f557fe5b9060005260206000209060050201905060006006600084815260200190815260200160002060003373ffffffffffffffffffffffffffffffffffffffff1673ffffffffffffffffffffffffffffffffffffffff168152602001908152602001600020905060008160010154905060008260010181905550600082600201819055506111c533828560000160009054906101000a900473ffffffffffffffffffffffffffffffffffffffff1673ffffffffffffffffffffffffffffffffffffffff166128569092919063ffffffff16565b833373ffffffffffffffffffffffffffffffffffffffff167fbb757047c2b5f3974fe26b7c10f732e7bce710b0952a71082702781e62ae0595836040518082815260200191505060405180910390a350505050565b6000600580549050905060005b818110156112435761123881612303565b806001019050611227565b5050565b61124f61225a565b73ffffffffffffffffffffffffffffffffffffffff1660008054906101000a900473ffffffffffffffffffffffffffffffffffffffff1673ffffffffffffffffffffffffffffffffffffffff161461130f576040517f08c379a00000000000000000000000000000000000000000000000000000000081526004018080602001828103825260208152602001807f4f776e61626c653a2063616c6c6572206973206e6f7420746865206f776e657281525060200191505060405180910390fd5b801561131e5761131d61121a565b5b611363826113556005868154811061133257fe5b90600052602060002090600502016001015460075461266290919063ffffffff16565b61226290919063ffffffff16565b600781905550816005848154811061137757fe5b906000526020600020906005020160010181905550505050565b60008042905060006113ea60186113dc603c6113ce603c6113c060646009548a0361218a90919063ffffffff16565b61221090919063ffffffff16565b61221090919063ffffffff16565b61221090919063ffffffff16565b90506000613a9882106114035760009350505050611465565b611b5882106114155760089050611437565b610bb882106114275760049050611436565b6103e8821061143557600290505b5b5b60006004549050600082111561145d5761145a828261221090919063ffffffff16565b90505b809450505050505b90565b61147061225a565b73ffffffffffffffffffffffffffffffffffffffff1660008054906101000a900473ffffffffffffffffffffffffffffffffffffffff1673ffffffffffffffffffffffffffffffffffffffff1614611530576040517f08c379a00000000000000000000000000000000000000000000000000000000081526004018080602001828103825260208152602001807f4f776e61626c653a2063616c6c6572206973206e6f7420746865206f776e657281525060200191505060405180910390fd5b600073ffffffffffffffffffffffffffffffffffffffff1660008054906101000a900473ffffffffffffffffffffffffffffffffffffffff1673ffffffffffffffffffffffffffffffffffffffff167f8be0079c531659141344cd1fd0a4f28419497f9722a3daafe3b4186f6b6457e060405160405180910390a360008060006101000a81548173ffffffffffffffffffffffffffffffffffffffff021916908373ffffffffffffffffffffffffffffffffffffffff160217905550565b600a81565b600260009054906101000a900473ffffffffffffffffffffffffffffffffffffffff1673ffffffffffffffffffffffffffffffffffffffff163373ffffffffffffffffffffffffffffffffffffffff16146116b6576040517f08c379a00000000000000000000000000000000000000000000000000000000081526004018080602001828103825260098152602001807f6465763a207775743f000000000000000000000000000000000000000000000081525060200191505060405180910390fd5b80600260006101000a81548173ffffffffffffffffffffffffffffffffffffffff021916908373ffffffffffffffffffffffffffffffffffffffff16021790555050565b60008060009054906101000a900473ffffffffffffffffffffffffffffffffffffffff16905090565b6000600354821161175b57611754600a611746858561266290919063ffffffff16565b61218a90919063ffffffff16565b90506117cf565b600354831061177e57611777838361266290919063ffffffff16565b90506117cf565b6117cc6117966003548461266290919063ffffffff16565b6117be600a6117b08760035461266290919063ffffffff16565b61218a90919063ffffffff16565b61226290919063ffffffff16565b90505b92915050565b6000806006600086815260200190815260200160002060008573ffffffffffffffffffffffffffffffffffffffff1673ffffffffffffffffffffffffffffffffffffffff1681526020019081526020016000209050600061183686866108be565b9050600062015180836000015486038161184c57fe5b0490506000600782106118615782905061188f565b81600a0a8260020a83601e0a8161187457fe5b04600a028161187f57fe5b0490508281111561188e578290505b5b809450505050509392505050565b6006602052816000526040600020602052806000526040600020600091509150508060000154908060010154908060020154908060030160009054906101000a900473ffffffffffffffffffffffffffffffffffffffff16905084565b6000806064905080915050919050565b6000806005848154811061191a57fe5b9060005260206000209060050201905060006006600086815260200190815260200160002060008573ffffffffffffffffffffffffffffffffffffffff1673ffffffffffffffffffffffffffffffffffffffff168152602001908152602001600020905060008260030154905060006119948787426128f8565b905060006119a1886118fa565b90508460020154431180156119b65750600081115b15611a565760006119cb866002015443611723565b90506000611a13600754611a0589600101546119f76119e8611391565b8761218a90919063ffffffff16565b61218a90919063ffffffff16565b61221090919063ffffffff16565b9050611a51611a4284611a3464e8d4a510008561218a90919063ffffffff16565b61221090919063ffffffff16565b8661226290919063ffffffff16565b945050505b611a968460020154611a8864e8d4a51000611a7a878761218a90919063ffffffff16565b61221090919063ffffffff16565b61266290919063ffffffff16565b9550505050505092915050565b600260009054906101000a900473ffffffffffffffffffffffffffffffffffffffff1681565b611ad161084e565b8210611b45576040517f08c379a00000000000000000000000000000000000000000000000000000000081526004018080602001828103825260078152602001807f626164207069640000000000000000000000000000000000000000000000000081525060200191505060405180910390fd5b60008111611bbb576040517f08c379a00000000000000000000000000000000000000000000000000000000081526004018080602001828103825260138152602001807f616d6f756e7420636f756c64276e20626520300000000000000000000000000081525060200191505060405180910390fd5b600060058381548110611bca57fe5b9060005260206000209060050201905060006006600085815260200190815260200160002060003373ffffffffffffffffffffffffffffffffffffffff1673ffffffffffffffffffffffffffffffffffffffff1681526020019081526020016000209050611c3784612303565b600081600101541415611d96574281600001819055506006600085815260200190815260200160002060008073ffffffffffffffffffffffffffffffffffffffff1673ffffffffffffffffffffffffffffffffffffffff16815260200190815260200160002060030160009054906101000a900473ffffffffffffffffffffffffffffffffffffffff168160030160006101000a81548173ffffffffffffffffffffffffffffffffffffffff021916908373ffffffffffffffffffffffffffffffffffffffff160217905550336006600086815260200190815260200160002060008073ffffffffffffffffffffffffffffffffffffffff1673ffffffffffffffffffffffffffffffffffffffff16815260200190815260200160002060030160006101000a81548173ffffffffffffffffffffffffffffffffffffffff021916908373ffffffffffffffffffffffffffffffffffffffff1602179055505b600081600101541115611e45576000611daf853361190a565b90506000811115611e43576000611dc68633610cb8565b90506000611df06064611de2848661218a90919063ffffffff16565b61221090919063ffffffff16565b90506000611e07828561266290919063ffffffff16565b9050611e35600260009054906101000a900473ffffffffffffffffffffffffffffffffffffffff16836126ac565b611e3f33826126ac565b5050505b505b6000831115611ebf57611e6583826001015461226290919063ffffffff16565b8160010181905550611ebe3330858560000160009054906101000a900473ffffffffffffffffffffffffffffffffffffffff1673ffffffffffffffffffffffffffffffffffffffff16612978909392919063ffffffff16565b5b611ed683836004015461226290919063ffffffff16565b82600401819055506000611eeb8533426128f8565b9050611f1b64e8d4a51000611f0d85600301548461218a90919063ffffffff16565b61221090919063ffffffff16565b8260020181905550843373ffffffffffffffffffffffffffffffffffffffff167f90890809c654f11d6e72a28fa60149770a0d11ec6c92319d6ceb2bb0a4ea1a15866040518082815260200191505060405180910390a35050505050565b60095481565b611f8761225a565b73ffffffffffffffffffffffffffffffffffffffff1660008054906101000a900473ffffffffffffffffffffffffffffffffffffffff1673ffffffffffffffffffffffffffffffffffffffff1614612047576040517f08c379a00000000000000000000000000000000000000000000000000000000081526004018080602001828103825260208152602001807f4f776e61626c653a2063616c6c6572206973206e6f7420746865206f776e657281525060200191505060405180910390fd5b600073ffffffffffffffffffffffffffffffffffffffff168173ffffffffffffffffffffffffffffffffffffffff1614156120cd576040517f08c379a0000000000000000000000000000000000000000000000000000000008152600401808060200182810382526026815260200180612f4f6026913960400191505060405180910390fd5b8073ffffffffffffffffffffffffffffffffffffffff1660008054906101000a900473ffffffffffffffffffffffffffffffffffffffff1673ffffffffffffffffffffffffffffffffffffffff167f8be0079c531659141344cd1fd0a4f28419497f9722a3daafe3b4186f6b6457e060405160405180910390a3806000806101000a81548173ffffffffffffffffffffffffffffffffffffffff021916908373ffffffffffffffffffffffffffffffffffffffff16021790555050565b60008083141561219d576000905061220a565b60008284029050828482816121ae57fe5b0414612205576040517f08c379a0000000000000000000000000000000000000000000000000000000008152600401808060200182810382526021815260200180612f9b6021913960400191505060405180910390fd5b809150505b92915050565b600061225283836040518060400160405280601a81526020017f536166654d6174683a206469766973696f6e206279207a65726f000000000000815250612a39565b905092915050565b600033905090565b6000808284019050838110156122e0576040517f08c379a000000000000000000000000000000000000000000000000000000000815260040180806020018281038252601b8152602001807f536166654d6174683a206164646974696f6e206f766572666c6f77000000000081525060200191505060405180910390fd5b8091505092915050565b60008183116122f957816122fb565b825b905092915050565b60006005828154811061231257fe5b9060005260206000209060050201905080600201544311612333575061265f565b60008160000160009054906101000a900473ffffffffffffffffffffffffffffffffffffffff1673ffffffffffffffffffffffffffffffffffffffff166370a08231306040518263ffffffff1660e01b8152600401808273ffffffffffffffffffffffffffffffffffffffff16815260200191505060206040518083038186803b1580156123c057600080fd5b505afa1580156123d4573d6000803e3d6000fd5b505050506040513d60208110156123ea57600080fd5b81019080805190602001909291905050509050600081141561241657438260020181905550505061265f565b6000612426836002015443611723565b9050600061246e6007546124608660010154612452612443611391565b8761218a90919063ffffffff16565b61218a90919063ffffffff16565b61221090919063ffffffff16565b9050600160009054906101000a900473ffffffffffffffffffffffffffffffffffffffff1673ffffffffffffffffffffffffffffffffffffffff166340c10f19600260009054906101000a900473ffffffffffffffffffffffffffffffffffffffff166124e5600a8561221090919063ffffffff16565b6040518363ffffffff1660e01b8152600401808373ffffffffffffffffffffffffffffffffffffffff16815260200182815260200192505050600060405180830381600087803b15801561253857600080fd5b505af115801561254c573d6000803e3d6000fd5b50505050600160009054906101000a900473ffffffffffffffffffffffffffffffffffffffff1673ffffffffffffffffffffffffffffffffffffffff166340c10f1930836040518363ffffffff1660e01b8152600401808373ffffffffffffffffffffffffffffffffffffffff16815260200182815260200192505050600060405180830381600087803b1580156125e357600080fd5b505af11580156125f7573d6000803e3d6000fd5b505050506000612606866118fa565b90506126486126358261262764e8d4a510008661218a90919063ffffffff16565b61221090919063ffffffff16565b866003015461226290919063ffffffff16565b856003018190555043856002018190555050505050505b50565b60006126a483836040518060400160405280601e81526020017f536166654d6174683a207375627472616374696f6e206f766572666c6f770000815250612aff565b905092915050565b6000600160009054906101000a900473ffffffffffffffffffffffffffffffffffffffff1673ffffffffffffffffffffffffffffffffffffffff166370a08231306040518263ffffffff1660e01b8152600401808273ffffffffffffffffffffffffffffffffffffffff16815260200191505060206040518083038186803b15801561273757600080fd5b505afa15801561274b573d6000803e3d6000fd5b505050506040513d602081101561276157600080fd5b81019080805190602001909291905050509050600160009054906101000a900473ffffffffffffffffffffffffffffffffffffffff1673ffffffffffffffffffffffffffffffffffffffff1663a9059cbb848385116127c057846127c2565b835b6040518363ffffffff1660e01b8152600401808373ffffffffffffffffffffffffffffffffffffffff16815260200182815260200192505050602060405180830381600087803b15801561281557600080fd5b505af1158015612829573d6000803e3d6000fd5b505050506040513d602081101561283f57600080fd5b810190808051906020019092919050505050505050565b6128f38363a9059cbb60e01b8484604051602401808373ffffffffffffffffffffffffffffffffffffffff16815260200182815260200192505050604051602081830303815290604052907bffffffffffffffffffffffffffffffffffffffffffffffffffffffff19166020820180517bffffffffffffffffffffffffffffffffffffffffffffffffffffffff8381831617835250505050612bbf565b505050565b6000806006600086815260200190815260200160002060008573ffffffffffffffffffffffffffffffffffffffff1673ffffffffffffffffffffffffffffffffffffffff168152602001908152602001600020905061296e61295b8686866117d5565b826001015461218a90919063ffffffff16565b9150509392505050565b612a33846323b872dd60e01b858585604051602401808473ffffffffffffffffffffffffffffffffffffffff1681526020018373ffffffffffffffffffffffffffffffffffffffff1681526020018281526020019350505050604051602081830303815290604052907bffffffffffffffffffffffffffffffffffffffffffffffffffffffff19166020820180517bffffffffffffffffffffffffffffffffffffffffffffffffffffffff8381831617835250505050612bbf565b50505050565b60008083118290612ae5576040517f08c379a00000000000000000000000000000000000000000000000000000000081526004018080602001828103825283818151815260200191508051906020019080838360005b83811015612aaa578082015181840152602081019050612a8f565b50505050905090810190601f168015612ad75780820380516001836020036101000a031916815260200191505b509250505060405180910390fd5b506000838581612af157fe5b049050809150509392505050565b6000838311158290612bac576040517f08c379a00000000000000000000000000000000000000000000000000000000081526004018080602001828103825283818151815260200191508051906020019080838360005b83811015612b71578082015181840152602081019050612b56565b50505050905090810190601f168015612b9e5780820380516001836020036101000a031916815260200191505b509250505060405180910390fd5b5060008385039050809150509392505050565b6060612c21826040518060400160405280602081526020017f5361666545524332303a206c6f772d6c6576656c2063616c6c206661696c65648152508573ffffffffffffffffffffffffffffffffffffffff16612cae9092919063ffffffff16565b9050600081511115612ca957808060200190516020811015612c4257600080fd5b8101908080519060200190929190505050612ca8576040517f08c379a000000000000000000000000000000000000000000000000000000000815260040180806020018281038252602a815260200180612fbc602a913960400191505060405180910390fd5b5b505050565b6060612cbd8484600085612cc6565b90509392505050565b606082471015612d21576040517f08c379a0000000000000000000000000000000000000000000000000000000008152600401808060200182810382526026815260200180612f756026913960400191505060405180910390fd5b612d2a85612e6f565b612d9c576040517f08c379a000000000000000000000000000000000000000000000000000000000815260040180806020018281038252601d8152602001807f416464726573733a2063616c6c20746f206e6f6e2d636f6e747261637400000081525060200191505060405180910390fd5b600060608673ffffffffffffffffffffffffffffffffffffffff1685876040518082805190602001908083835b60208310612dec5780518252602082019150602081019050602083039250612dc9565b6001836020036101000a03801982511681845116808217855250505050505090500191505060006040518083038185875af1925050503d8060008114612e4e576040519150601f19603f3d011682016040523d82523d6000602084013e612e53565b606091505b5091509150612e63828286612e82565b92505050949350505050565b600080823b905060008111915050919050565b60608315612e9257829050612f47565b600083511115612ea55782518084602001fd5b816040517f08c379a00000000000000000000000000000000000000000000000000000000081526004018080602001828103825283818151815260200191508051906020019080838360005b83811015612f0c578082015181840152602081019050612ef1565b50505050905090810190601f168015612f395780820380516001836020036101000a031916815260200191505b509250505060405180910390fd5b939250505056fe4f776e61626c653a206e6577206f776e657220697320746865207a65726f2061646472657373416464726573733a20696e73756666696369656e742062616c616e636520666f722063616c6c536166654d6174683a206d756c7469706c69636174696f6e206f766572666c6f775361666545524332303a204552433230206f7065726174696f6e20646964206e6f742073756363656564a264697066735822122060011a75ee612d220e084eb28b282f977528b0eb0c4d3f56c93c374433d1ad0364736f6c63430007000033",
  "immutableReferences": {},
  "source": "// SPDX-License-Identifier: MIT\npragma solidity ^0.7.0;\n\nimport \"@openzeppelin/contracts/token/ERC20/ERC20.sol\";\nimport \"@openzeppelin/contracts/access/Ownable.sol\";\nimport {SafeMath} from \"@openzeppelin/contracts/math/SafeMath.sol\";\nimport {SafeERC20} from \"@openzeppelin/contracts/token/ERC20/SafeERC20.sol\";\n\ncontract NovaToken is ERC20(\"NOVA\", \"NOVA\"), Ownable {\n    /// @notice Creates `_amount` token to `_to`. Must only be called by the owner (MasterUniverse).\n    function mint(address _to, uint256 _amount) public onlyOwner {\n        _mint(_to, _amount);\n    }\n}\n\n// MasterUniverse is the master of Nova. He can make Nova and he is a fair guy.\n//\n// Note that it's ownable and the owner wields tremendous power. The ownership\n// will be transferred to a governance smart contract once NOVA is sufficiently\n// distributed and the community can show to govern itself.\n//\n// Have fun reading it. Hopefully it's bug-free. God bless.\ncontract MasterUniverse is Ownable {\n    using SafeMath for uint256;\n    using SafeERC20 for IERC20;\n\n    address private constant GUARD = address(0);\n\n    // Info of each user.\n    struct UserInfo {\n        uint256 lastStakedTime;\n        uint256 amount; // How many LP tokens the user has provided.\n        uint256 rewardDebt; // Reward debt. See explanation below.\n        address next;\n        //\n        // We do some fancy math here. Basically, any point in time, the amount of NOVAs\n        // entitled to a user but is pending to be distributed is:\n        //\n        //   pending reward = (user.amount * pool.accNovaPerShare) - user.rewardDebt\n        //\n        // Whenever a user deposits or withdraws LP tokens to a pool. Here's what happens:\n        //   1. The pool's `accNovaPerShare` (and `lastRewardBlock`) gets updated.\n        //   2. User receives the pending reward sent to his/her address.\n        //   3. User's `amount` gets updated.\n        //   4. User's `rewardDebt` gets updated.\n    }\n\n    // Info of each pool.\n    struct PoolInfo {\n        IERC20 lpToken; // Address of LP token contract.\n        uint256 allocPoint; // How many allocation points assigned to this pool. NOVAs to distribute per block.\n        uint256 lastRewardBlock; // Last block number that NOVAs distribution occurs.\n        uint256 accNovaPerShare; // Accumulated NOVAs per share, times 1e12. See below.\n        uint256 totalLpStaked; // Total Amount of LP Tokens Staked.\n        //uint256 totalPlasma; // cached totalPlasma calcul - too much gas consumption\n    }\n\n    // The NOVA TOKEN!\n    NovaToken public nova;\n    // Dev address.\n    address public devaddr;\n    // Block number when bonus NOVA period ends.\n    uint256 public bonusEndBlock;\n    // NOVA tokens created per block.\n    uint256 public novaPerBlock;\n    // Bonus muliplier for early nova makers.\n    uint256 public constant BONUS_MULTIPLIER = 10;\n    // Info of each pool.\n    PoolInfo[] public poolInfo;\n    // Info of each user that stakes LP tokens.\n    mapping(uint256 => mapping(address => UserInfo)) public userInfo;\n    // Total allocation points. Must be the sum of all allocation points in all pools.\n    uint256 public totalAllocPoint = 0;\n    // The block number when NOVA mining starts.\n    uint256 public startBlock;\n    // The timestamp when NOVA mining starts\n    uint256 public startTimestamp;\n\n    event Deposit(address indexed user, uint256 indexed pid, uint256 amount);\n    event Withdraw(address indexed user, uint256 indexed pid, uint256 amount);\n    event EmergencyWithdraw(\n        address indexed user,\n        uint256 indexed pid,\n        uint256 amount\n    );\n\n    constructor(\n        NovaToken _nova,\n        address _devaddr,\n        uint256 _novaPerBlock,\n        uint256 _startBlock,\n        uint256 _bonusEndBlock\n    ) {\n        nova = _nova;\n        devaddr = _devaddr;\n        novaPerBlock = _novaPerBlock;\n        bonusEndBlock = _bonusEndBlock;\n        startBlock = _startBlock;\n        startTimestamp = block.timestamp;\n    }\n\n    function poolLength() public view returns (uint256) {\n        return poolInfo.length;\n    }\n\n    // Add a new lp to the pool. Can only be called by the owner.\n    // XXX DO NOT add the same LP token more than once. Rewards will be messed up if you do.\n    function add(\n        uint256 _allocPoint,\n        IERC20 _lpToken,\n        bool _withUpdate\n    ) public onlyOwner {\n        if (_withUpdate) {\n            massUpdatePools();\n        }\n        uint256 lastRewardBlock = block.number > startBlock\n            ? block.number\n            : startBlock;\n        totalAllocPoint = totalAllocPoint.add(_allocPoint);\n        poolInfo.push(\n            PoolInfo({\n                lpToken: _lpToken,\n                allocPoint: _allocPoint,\n                lastRewardBlock: lastRewardBlock,\n                accNovaPerShare: 0,\n                totalLpStaked: 0\n                //startTimestamp: block.timestamp\n                //totalPlasma: 0\n            })\n        );\n    }\n\n    uint256 private constant tinyLimit = 10;\n    uint256 private constant commonLimit = 100;\n    uint256 private constant scaleUp = 10000;\n\n    function maxBuffRate(uint256 _pid,address _user)\n        public\n        view\n        returns (uint256)\n    {\n        PoolInfo storage pool = poolInfo[_pid];\n        UserInfo storage user = userInfo[_pid][_user];\n        require(pool.totalLpStaked > 0, \"0 div\");\n        uint256 percentage = user.amount.mul(scaleUp).div(\n            pool.totalLpStaked\n        );\n\n        if (percentage <= tinyLimit) {\n            return 90;\n        } else if (percentage > tinyLimit && percentage < commonLimit) {\n            return 150;\n        } else if (percentage >= commonLimit) {\n            return 40;\n        }\n\n        revert(\"bad\");\n    }\n\n    // Update the given pool's NOVA allocation point. Can only be called by the owner.\n    function set(\n        uint256 _pid,\n        uint256 _allocPoint,\n        bool _withUpdate\n    ) public onlyOwner {\n        if (_withUpdate) {\n            massUpdatePools();\n        }\n        totalAllocPoint = totalAllocPoint.sub(poolInfo[_pid].allocPoint).add(\n            _allocPoint\n        );\n        poolInfo[_pid].allocPoint = _allocPoint;\n    }\n\n    // Return reward multiplier over the given _from to _to block.\n    function getMultiplier(uint256 _from, uint256 _to)\n        public\n        view\n        returns (uint256)\n    {\n        if (_to <= bonusEndBlock) {\n            return _to.sub(_from).mul(BONUS_MULTIPLIER);\n        } else if (_from >= bonusEndBlock) {\n            return _to.sub(_from);\n        } else {\n            return\n                bonusEndBlock.sub(_from).mul(BONUS_MULTIPLIER).add(\n                    _to.sub(bonusEndBlock)\n                );\n        }\n    }\n\n    function calculateBuffRate(\n        uint256 _pid,\n        address _user,\n        uint256 _now_\n    ) public\n      view\n      returns (uint256) {\n        UserInfo storage user = userInfo[_pid][_user];\n        uint256 max = maxBuffRate(_pid, _user);\n        uint256 d = uint256((_now_ - user.lastStakedTime) / 1 days);\n        uint256 buffRate;\n        // After 7 days all types of users hit there max buffrate - simplify calcul for gas optim\n        if(d >= 7){\n            buffRate = max;\n        } else {\n            buffRate = uint256((10 * ((30 ** d) / (2 ** d))) / (10 ** d));\n            if(buffRate > max){\n                buffRate = max;\n            }\n        }\n\n        // uint16 buffRate = 10;\n        // for (\n        //     uint256 d = user.lastStakedTime;\n        //     d + 1 days <= _now_;\n        //     d += 1 days\n        // ) {\n        //     buffRate += (buffRate * 50) / 100;\n        // }\n\n        // if(buffRate > max){\n        //     buffRate = max;\n        // }\n        \n        return buffRate;\n    }\n\n    function calculateNovaPerBlock() public view returns (uint256)\n    {\n        uint currentTimestamp = block.timestamp; \n        uint daysSinceStartStaking = (currentTimestamp - startTimestamp).mul(100).div(60).div(60).div(24);\n        uint256 halvingDiv = 0;\n\n        if(daysSinceStartStaking >= 15000){\n            return 0;\n        }\n\n        if(daysSinceStartStaking >= 7000){\n            halvingDiv = 8;\n        } else if(daysSinceStartStaking >= 3000){\n            halvingDiv = 4;\n        } else if(daysSinceStartStaking >= 1000){\n            halvingDiv = 2;\n        } \n\n        uint256 novaPerBlockNow = novaPerBlock;\n        if (halvingDiv > 0){\n            novaPerBlockNow = novaPerBlockNow.div(halvingDiv);\n        }\n\n        return novaPerBlockNow;\n    }\n\n    function plasmaPower(\n        uint256 _pid,\n        address _user,\n        uint256 _now_\n    ) private\n      view\n      returns (uint256) {\n        UserInfo storage user = userInfo[_pid][_user];\n        return user.amount.mul(calculateBuffRate(_pid, _user, _now_));\n    }\n\n    function totalPlasmaPower(uint256 _pid)\n        public\n        view\n        returns (uint256)\n    {\n        uint256 total = 100;\n        //uint256 _now_ = block.timestamp;\n \n        // for (\n        //     address iter = userInfo[_pid][GUARD].next;\n        //     iter != GUARD;\n        //     iter = userInfo[_pid][iter].next\n        // ) {\n        //     if(userInfo[_pid][iter].amount == 0) continue;\n        //     total += plasmaPower(_pid, iter, _now_);\n        // }\n\n        return total;\n    }\n\n    // View function to see pending NOVAs on frontend.\n    function pendingNova(uint256 _pid, address _user)\n        public\n        view\n        returns (uint256)\n    {\n        PoolInfo storage pool = poolInfo[_pid];\n        UserInfo storage user = userInfo[_pid][_user];\n        uint256 accNovaPerShare = pool.accNovaPerShare;\n        uint256 plasma = plasmaPower(_pid, _user, block.timestamp);\n        uint256 totalPlasma = totalPlasmaPower(_pid);\n\n        if (block.number > pool.lastRewardBlock && totalPlasma > 0) {\n            uint256 multiplier = getMultiplier(\n                pool.lastRewardBlock,\n                block.number\n            );\n            uint256 novaReward = multiplier\n                .mul(calculateNovaPerBlock())\n                .mul(pool.allocPoint)\n                .div(totalAllocPoint);\n\n            accNovaPerShare = accNovaPerShare.add(\n                novaReward.mul(1e12).div(totalPlasma)\n            );\n        }\n\n        return plasma.mul(accNovaPerShare).div(1e12).sub(user.rewardDebt);\n    }\n\n    // Update reward variables for all pools. Be careful of gas spending!\n    function massUpdatePools() public {\n        uint256 length = poolInfo.length;\n        for (uint256 pid = 0; pid < length; ++pid) {\n            updatePool(pid);\n        }\n    }\n\n    function calculateFeesPercentage(uint256 _pid, address _user)\n        public\n        view\n        returns (uint256)\n    {\n        UserInfo storage user = userInfo[_pid][_user];\n        uint currentTimestamp = block.timestamp; \n        uint daysSinceStartStaking = (currentTimestamp - user.lastStakedTime).div(60).div(60).div(24);\n        uint feesPercentage = max(30 - daysSinceStartStaking.div(2), 1); // -0.5% by day - start to 30, and min to 1\n        return feesPercentage;\n    }\n\n    function max(uint a, uint b) private pure returns (uint) {\n        return a > b ? a : b;\n    }\n\n    // Update reward variables of the given pool to be up-to-date.\n    function updatePool(uint256 _pid) private {\n        PoolInfo storage pool = poolInfo[_pid];\n        if (block.number <= pool.lastRewardBlock) {\n            return;\n        }\n        uint256 lpSupply = pool.lpToken.balanceOf(address(this));\n        if (lpSupply == 0) {\n            pool.lastRewardBlock = block.number;\n            return;\n        }\n        uint256 multiplier = getMultiplier(pool.lastRewardBlock, block.number);\n        uint256 novaReward = multiplier\n            .mul(calculateNovaPerBlock())\n            .mul(pool.allocPoint)\n            .div(totalAllocPoint);\n        nova.mint(devaddr, novaReward.div(10));\n        nova.mint(address(this), novaReward);\n        uint256 totalPlasma = totalPlasmaPower(_pid);\n        //pool.totalPlasma = totalPlasma;\n        pool.accNovaPerShare = pool.accNovaPerShare.add(\n            novaReward.mul(1e12).div(totalPlasma)\n        );\n        pool.lastRewardBlock = block.number;\n    }\n\n    // Deposit LP tokens to MasterUniverse for NOVA allocation.\n    function deposit(uint256 _pid, uint256 _amount) external {\n        require(_pid < poolLength(), \"bad pid\");\n        require(_amount > 0, \"amount could'n be 0\");\n\n        PoolInfo storage pool = poolInfo[_pid];\n        UserInfo storage user = userInfo[_pid][msg.sender];\n\n        updatePool(_pid);\n\n        // this is the first time we see this new staker - so we make them\n        // the head of the list\n        if (user.amount == 0) {\n            // actually now should record the time\n            user.lastStakedTime = block.timestamp; \n            user.next = userInfo[_pid][GUARD].next;\n            userInfo[_pid][GUARD].next = msg.sender;\n        }\n\n        // they already staked so let's harvest\n        if (user.amount > 0) {\n            // TODO : prevent transfer if time lock not finished\n            uint256 pending = pendingNova(_pid, msg.sender);\n            if (pending > 0) {\n                uint feesPercentage = calculateFeesPercentage(_pid, msg.sender);\n                uint256 fees = pending.mul(feesPercentage).div(100);\n                uint256 gain = pending.sub(fees);\n                safeNovaTransfer(devaddr, fees);\n                safeNovaTransfer(msg.sender, gain);\n            }\n        }\n\n        if (_amount > 0) {\n            user.amount = user.amount.add(_amount);\n            pool.lpToken.safeTransferFrom(\n                address(msg.sender),\n                address(this),\n                _amount\n            );\n        }\n\n        pool.totalLpStaked = pool.totalLpStaked.add(_amount);\n        uint256 plasma = plasmaPower(_pid, msg.sender, block.timestamp);\n        user.rewardDebt = plasma.mul(pool.accNovaPerShare).div(1e12);\n        emit Deposit(msg.sender, _pid, _amount);\n    }\n\n    // Withdraw LP tokens from MasterUniverse.\n    function withdraw(uint256 _pid, uint256 _amount) external {\n        require(_pid < poolLength(), \"bad pid\");\n        PoolInfo storage pool = poolInfo[_pid];\n        UserInfo storage user = userInfo[_pid][msg.sender];\n        //require(block.number > bonusEndBlock, \"withdraw: Withdrawals are not available yet, it's lock during 24h after the launch.\");\n        require(user.amount >= _amount, \"withdraw: not good\");\n        updatePool(_pid);\n        uint256 pending = pendingNova(_pid, msg.sender);\n        if (pending > 0) {\n            uint feesPercentage = calculateFeesPercentage(_pid, msg.sender);\n            uint256 fees = pending.mul(feesPercentage).div(100);\n            uint256 gain = pending.sub(fees);\n            safeNovaTransfer(devaddr, fees);\n            safeNovaTransfer(msg.sender, gain);\n        }\n        if (_amount > 0) {\n            user.amount = user.amount.sub(_amount);\n            pool.totalLpStaked = pool.totalLpStaked.sub(_amount);\n            pool.lpToken.safeTransfer(address(msg.sender), _amount);\n        }\n\n        uint256 plasma = 0;\n        if(pool.totalLpStaked > 0){\n            plasma = plasmaPower(_pid, msg.sender, block.timestamp);\n        }\n        user.rewardDebt = plasma.mul(pool.accNovaPerShare).div(1e12);\n        //user.lastStakedTime = block.timestamp; // reinit buffrate : TODO test this\n        emit Withdraw(msg.sender, _pid, _amount);\n    }\n\n    // Withdraw without caring about rewards. EMERGENCY ONLY.\n    function emergencyWithdraw(uint256 _pid) public {\n        PoolInfo storage pool = poolInfo[_pid];\n        UserInfo storage user = userInfo[_pid][msg.sender];\n        uint256 amount = user.amount;\n        user.amount = 0;\n        user.rewardDebt = 0;\n        pool.lpToken.safeTransfer(address(msg.sender), amount);\n        emit EmergencyWithdraw(msg.sender, _pid, amount);\n    }\n\n    // Safe nova transfer function, just in case\n    // if rounding error causes pool to not have enough NOVAs.\n    function safeNovaTransfer(address _to, uint256 _amount) private {\n        uint256 novaBal = nova.balanceOf(address(this));\n        nova.transfer(_to, _amount > novaBal ? novaBal : _amount);\n    }\n\n    // Update dev address by the previous dev.\n    function dev(address _devaddr) public {\n        require(msg.sender == devaddr, \"dev: wut?\");\n        devaddr = _devaddr;\n    }\n}\n\n",
  "sourcePath": "/Users/romain/Work/02_lab/komet/contracts/MasterUniverse.sol",
  "compiler": {
    "name": "solc",
    "version": "0.7.0+commit.9e61f92b.Emscripten.clang"
  },
  "schemaVersion": "3.3.2",
  "updatedAt": "2020-12-12T22:28:12.462Z",
  "networkType": "ethereum",
  "devdoc": {
    "kind": "dev",
    "methods": {
      "owner()": {
        "details": "Returns the address of the current owner."
      },
      "renounceOwnership()": {
        "details": "Leaves the contract without owner. It will not be possible to call `onlyOwner` functions anymore. Can only be called by the current owner. NOTE: Renouncing ownership will leave the contract without an owner, thereby removing any functionality that is only available to the owner."
      },
      "transferOwnership(address)": {
        "details": "Transfers ownership of the contract to a new account (`newOwner`). Can only be called by the current owner."
      }
    },
    "version": 1
  },
  "userdoc": {
    "kind": "user",
    "methods": {},
    "version": 1
  }
}