{
  "contractName": "MasterUniverse2",
  "abi": [
    {
      "inputs": [
        {
          "internalType": "contract NovaToken2",
          "name": "_nova",
          "type": "address"
        },
        {
          "internalType": "address",
          "name": "_devaddr",
          "type": "address"
        },
        {
          "internalType": "uint256",
          "name": "_novaPerBlock",
          "type": "uint256"
        },
        {
          "internalType": "uint256",
          "name": "_startBlock",
          "type": "uint256"
        },
        {
          "internalType": "uint256",
          "name": "_bonusEndBlock",
          "type": "uint256"
        }
      ],
      "stateMutability": "nonpayable",
      "type": "constructor"
    },
    {
      "anonymous": false,
      "inputs": [
        {
          "indexed": true,
          "internalType": "address",
          "name": "user",
          "type": "address"
        },
        {
          "indexed": true,
          "internalType": "uint256",
          "name": "pid",
          "type": "uint256"
        },
        {
          "indexed": false,
          "internalType": "uint256",
          "name": "amount",
          "type": "uint256"
        }
      ],
      "name": "Deposit",
      "type": "event"
    },
    {
      "anonymous": false,
      "inputs": [
        {
          "indexed": true,
          "internalType": "address",
          "name": "user",
          "type": "address"
        },
        {
          "indexed": true,
          "internalType": "uint256",
          "name": "pid",
          "type": "uint256"
        },
        {
          "indexed": false,
          "internalType": "uint256",
          "name": "amount",
          "type": "uint256"
        }
      ],
      "name": "EmergencyWithdraw",
      "type": "event"
    },
    {
      "anonymous": false,
      "inputs": [
        {
          "indexed": true,
          "internalType": "address",
          "name": "previousOwner",
          "type": "address"
        },
        {
          "indexed": true,
          "internalType": "address",
          "name": "newOwner",
          "type": "address"
        }
      ],
      "name": "OwnershipTransferred",
      "type": "event"
    },
    {
      "anonymous": false,
      "inputs": [
        {
          "indexed": true,
          "internalType": "address",
          "name": "user",
          "type": "address"
        },
        {
          "indexed": true,
          "internalType": "uint256",
          "name": "pid",
          "type": "uint256"
        },
        {
          "indexed": false,
          "internalType": "uint256",
          "name": "amount",
          "type": "uint256"
        }
      ],
      "name": "Withdraw",
      "type": "event"
    },
    {
      "inputs": [],
      "name": "BONUS_MULTIPLIER",
      "outputs": [
        {
          "internalType": "uint256",
          "name": "",
          "type": "uint256"
        }
      ],
      "stateMutability": "view",
      "type": "function",
      "constant": true
    },
    {
      "inputs": [],
      "name": "bonusEndBlock",
      "outputs": [
        {
          "internalType": "uint256",
          "name": "",
          "type": "uint256"
        }
      ],
      "stateMutability": "view",
      "type": "function",
      "constant": true
    },
    {
      "inputs": [],
      "name": "devaddr",
      "outputs": [
        {
          "internalType": "address",
          "name": "",
          "type": "address"
        }
      ],
      "stateMutability": "view",
      "type": "function",
      "constant": true
    },
    {
      "inputs": [],
      "name": "nova",
      "outputs": [
        {
          "internalType": "contract NovaToken2",
          "name": "",
          "type": "address"
        }
      ],
      "stateMutability": "view",
      "type": "function",
      "constant": true
    },
    {
      "inputs": [],
      "name": "novaPerBlock",
      "outputs": [
        {
          "internalType": "uint256",
          "name": "",
          "type": "uint256"
        }
      ],
      "stateMutability": "view",
      "type": "function",
      "constant": true
    },
    {
      "inputs": [],
      "name": "owner",
      "outputs": [
        {
          "internalType": "address",
          "name": "",
          "type": "address"
        }
      ],
      "stateMutability": "view",
      "type": "function",
      "constant": true
    },
    {
      "inputs": [
        {
          "internalType": "uint256",
          "name": "",
          "type": "uint256"
        }
      ],
      "name": "poolInfo",
      "outputs": [
        {
          "internalType": "contract IERC20",
          "name": "lpToken",
          "type": "address"
        },
        {
          "internalType": "uint256",
          "name": "allocPoint",
          "type": "uint256"
        },
        {
          "internalType": "uint256",
          "name": "lastRewardBlock",
          "type": "uint256"
        },
        {
          "internalType": "uint256",
          "name": "accNovaPerShare",
          "type": "uint256"
        },
        {
          "internalType": "uint256",
          "name": "totalPlasmaPower",
          "type": "uint256"
        }
      ],
      "stateMutability": "view",
      "type": "function",
      "constant": true
    },
    {
      "inputs": [],
      "name": "renounceOwnership",
      "outputs": [],
      "stateMutability": "nonpayable",
      "type": "function"
    },
    {
      "inputs": [],
      "name": "startBlock",
      "outputs": [
        {
          "internalType": "uint256",
          "name": "",
          "type": "uint256"
        }
      ],
      "stateMutability": "view",
      "type": "function",
      "constant": true
    },
    {
      "inputs": [],
      "name": "startTimestamp",
      "outputs": [
        {
          "internalType": "uint256",
          "name": "",
          "type": "uint256"
        }
      ],
      "stateMutability": "view",
      "type": "function",
      "constant": true
    },
    {
      "inputs": [],
      "name": "totalAllocPoint",
      "outputs": [
        {
          "internalType": "uint256",
          "name": "",
          "type": "uint256"
        }
      ],
      "stateMutability": "view",
      "type": "function",
      "constant": true
    },
    {
      "inputs": [
        {
          "internalType": "address",
          "name": "newOwner",
          "type": "address"
        }
      ],
      "name": "transferOwnership",
      "outputs": [],
      "stateMutability": "nonpayable",
      "type": "function"
    },
    {
      "inputs": [
        {
          "internalType": "uint256",
          "name": "",
          "type": "uint256"
        },
        {
          "internalType": "address",
          "name": "",
          "type": "address"
        }
      ],
      "name": "userInfo",
      "outputs": [
        {
          "internalType": "uint256",
          "name": "amount",
          "type": "uint256"
        },
        {
          "internalType": "uint256",
          "name": "rewardDebt",
          "type": "uint256"
        },
        {
          "internalType": "uint256",
          "name": "lastStakedTime",
          "type": "uint256"
        },
        {
          "internalType": "uint256",
          "name": "buffRate",
          "type": "uint256"
        },
        {
          "internalType": "uint256",
          "name": "plasmaPower",
          "type": "uint256"
        }
      ],
      "stateMutability": "view",
      "type": "function",
      "constant": true
    },
    {
      "inputs": [],
      "name": "poolLength",
      "outputs": [
        {
          "internalType": "uint256",
          "name": "",
          "type": "uint256"
        }
      ],
      "stateMutability": "view",
      "type": "function",
      "constant": true
    },
    {
      "inputs": [
        {
          "internalType": "uint256",
          "name": "_allocPoint",
          "type": "uint256"
        },
        {
          "internalType": "contract IERC20",
          "name": "_lpToken",
          "type": "address"
        },
        {
          "internalType": "bool",
          "name": "_withUpdate",
          "type": "bool"
        }
      ],
      "name": "add",
      "outputs": [],
      "stateMutability": "nonpayable",
      "type": "function"
    },
    {
      "inputs": [
        {
          "internalType": "uint256",
          "name": "_pid",
          "type": "uint256"
        },
        {
          "internalType": "uint256",
          "name": "_allocPoint",
          "type": "uint256"
        },
        {
          "internalType": "bool",
          "name": "_withUpdate",
          "type": "bool"
        }
      ],
      "name": "set",
      "outputs": [],
      "stateMutability": "nonpayable",
      "type": "function"
    },
    {
      "inputs": [
        {
          "internalType": "uint256",
          "name": "_from",
          "type": "uint256"
        },
        {
          "internalType": "uint256",
          "name": "_to",
          "type": "uint256"
        }
      ],
      "name": "getMultiplier",
      "outputs": [
        {
          "internalType": "uint256",
          "name": "",
          "type": "uint256"
        }
      ],
      "stateMutability": "view",
      "type": "function",
      "constant": true
    },
    {
      "inputs": [
        {
          "internalType": "uint256",
          "name": "_from",
          "type": "uint256"
        },
        {
          "internalType": "uint256",
          "name": "_to",
          "type": "uint256"
        }
      ],
      "name": "calculateNovaPerBlock",
      "outputs": [
        {
          "internalType": "uint256",
          "name": "",
          "type": "uint256"
        }
      ],
      "stateMutability": "view",
      "type": "function",
      "constant": true
    },
    {
      "inputs": [
        {
          "internalType": "uint256",
          "name": "_pid",
          "type": "uint256"
        },
        {
          "internalType": "address",
          "name": "_user",
          "type": "address"
        }
      ],
      "name": "pendingNova",
      "outputs": [
        {
          "internalType": "uint256",
          "name": "",
          "type": "uint256"
        }
      ],
      "stateMutability": "view",
      "type": "function",
      "constant": true
    },
    {
      "inputs": [],
      "name": "massUpdatePools",
      "outputs": [],
      "stateMutability": "nonpayable",
      "type": "function"
    },
    {
      "inputs": [
        {
          "internalType": "uint256",
          "name": "_pid",
          "type": "uint256"
        },
        {
          "internalType": "uint256",
          "name": "_amount",
          "type": "uint256"
        }
      ],
      "name": "deposit",
      "outputs": [],
      "stateMutability": "nonpayable",
      "type": "function"
    },
    {
      "inputs": [
        {
          "internalType": "uint256",
          "name": "_pid",
          "type": "uint256"
        },
        {
          "internalType": "uint256",
          "name": "_amount",
          "type": "uint256"
        }
      ],
      "name": "withdraw",
      "outputs": [],
      "stateMutability": "nonpayable",
      "type": "function"
    },
    {
      "inputs": [
        {
          "internalType": "uint256",
          "name": "_pid",
          "type": "uint256"
        }
      ],
      "name": "emergencyWithdraw",
      "outputs": [],
      "stateMutability": "nonpayable",
      "type": "function"
    },
    {
      "inputs": [
        {
          "internalType": "address",
          "name": "_devaddr",
          "type": "address"
        }
      ],
      "name": "dev",
      "outputs": [],
      "stateMutability": "nonpayable",
      "type": "function"
    }
  ],
  "bytecode": "0x608060405260006007556040518060a00160405280600062ffffff16815260200161fde862ffffff1681526020016202f9b862ffffff1681526020016206f15862ffffff168152602001620ee09862ffffff16815250600a9060056200006792919062000235565b503480156200007557600080fd5b5060405162002dfc38038062002dfc833981810160405260a08110156200009b57600080fd5b8101908080519060200190929190805190602001909291908051906020019092919080519060200190929190805190602001909291905050506000620000e66200022d60201b60201c565b9050806000806101000a81548173ffffffffffffffffffffffffffffffffffffffff021916908373ffffffffffffffffffffffffffffffffffffffff1602179055508073ffffffffffffffffffffffffffffffffffffffff16600073ffffffffffffffffffffffffffffffffffffffff167f8be0079c531659141344cd1fd0a4f28419497f9722a3daafe3b4186f6b6457e060405160405180910390a35084600160006101000a81548173ffffffffffffffffffffffffffffffffffffffff021916908373ffffffffffffffffffffffffffffffffffffffff16021790555083600260006101000a81548173ffffffffffffffffffffffffffffffffffffffff021916908373ffffffffffffffffffffffffffffffffffffffff160217905550826004819055508060038190555081600881905550426009819055505050505050620002a0565b600033905090565b82600581019282156200026e579160200282015b828111156200026d578251829062ffffff1690559160200191906001019062000249565b5b5090506200027d919062000281565b5090565b5b808211156200029c57600081600090555060010162000282565b5090565b612b4c80620002b06000396000f3fe608060405234801561001057600080fd5b50600436106101585760003560e01c8063715018a6116100c3578063c673fa371161007c578063c673fa3714610513578063d49e77cd14610575578063e16faa64146105a9578063e2bbb158146105f5578063e6fd48bc1461062d578063f2fde38b1461064b57610158565b8063715018a6146103a95780638aa28550146103b35780638d88a90e146103d15780638da5cb5b146104155780638dbb1e3a1461044957806393f1a40b1461049557610158565b8063441a3e7011610115578063441a3e70146102b957806348cd4cb1146102f1578063516e16711461030f5780635312ea8e1461032d578063630b5ba11461035b57806364482f791461036557610158565b8063081e3eda1461015d5780631526fe271461017b57806317caf6f1146101ef5780631aed65531461020d5780631e5ba66c1461022b5780631eaaa0451461025f575b600080fd5b61016561068f565b6040518082815260200191505060405180910390f35b6101a76004803603602081101561019157600080fd5b810190808035906020019092919050505061069c565b604051808673ffffffffffffffffffffffffffffffffffffffff1681526020018581526020018481526020018381526020018281526020019550505050505060405180910390f35b6101f76106ff565b6040518082815260200191505060405180910390f35b610215610705565b6040518082815260200191505060405180910390f35b61023361070b565b604051808273ffffffffffffffffffffffffffffffffffffffff16815260200191505060405180910390f35b6102b76004803603606081101561027557600080fd5b8101908080359060200190929190803573ffffffffffffffffffffffffffffffffffffffff169060200190929190803515159060200190929190505050610731565b005b6102ef600480360360408110156102cf57600080fd5b81019080803590602001909291908035906020019092919050505061091b565b005b6102f9610cf2565b6040518082815260200191505060405180910390f35b610317610cf8565b6040518082815260200191505060405180910390f35b6103596004803603602081101561034357600080fd5b8101908080359060200190929190505050610cfe565b005b610363610e55565b005b6103a76004803603606081101561037b57600080fd5b810190808035906020019092919080359060200190929190803515159060200190929190505050610e82565b005b6103b1610fcc565b005b6103bb611152565b6040518082815260200191505060405180910390f35b610413600480360360208110156103e757600080fd5b81019080803573ffffffffffffffffffffffffffffffffffffffff169060200190929190505050611157565b005b61041d61125e565b604051808273ffffffffffffffffffffffffffffffffffffffff16815260200191505060405180910390f35b61047f6004803603604081101561045f57600080fd5b810190808035906020019092919080359060200190929190505050611287565b6040518082815260200191505060405180910390f35b6104e1600480360360408110156104ab57600080fd5b8101908080359060200190929190803573ffffffffffffffffffffffffffffffffffffffff169060200190929190505050611339565b604051808681526020018581526020018481526020018381526020018281526020019550505050505060405180910390f35b61055f6004803603604081101561052957600080fd5b8101908080359060200190929190803573ffffffffffffffffffffffffffffffffffffffff16906020019092919050505061137c565b6040518082815260200191505060405180910390f35b61057d61150a565b604051808273ffffffffffffffffffffffffffffffffffffffff16815260200191505060405180910390f35b6105df600480360360408110156105bf57600080fd5b810190808035906020019092919080359060200190929190505050611530565b6040518082815260200191505060405180910390f35b61062b6004803603604081101561060b57600080fd5b810190808035906020019092919080359060200190929190505050611657565b005b610635611a49565b6040518082815260200191505060405180910390f35b61068d6004803603602081101561066157600080fd5b81019080803573ffffffffffffffffffffffffffffffffffffffff169060200190929190505050611a4f565b005b6000600580549050905090565b600581815481106106a957fe5b90600052602060002090600502016000915090508060000160009054906101000a900473ffffffffffffffffffffffffffffffffffffffff16908060010154908060020154908060030154908060040154905085565b60075481565b60035481565b600160009054906101000a900473ffffffffffffffffffffffffffffffffffffffff1681565b610739611c5a565b73ffffffffffffffffffffffffffffffffffffffff1660008054906101000a900473ffffffffffffffffffffffffffffffffffffffff1673ffffffffffffffffffffffffffffffffffffffff16146107f9576040517f08c379a00000000000000000000000000000000000000000000000000000000081526004018080602001828103825260208152602001807f4f776e61626c653a2063616c6c6572206973206e6f7420746865206f776e657281525060200191505060405180910390fd5b801561080857610807610e55565b5b6000600854431161081b5760085461081d565b435b905061083484600754611c6290919063ffffffff16565b60078190555060056040518060a001604052808573ffffffffffffffffffffffffffffffffffffffff168152602001868152602001838152602001600081526020016000815250908060018154018082558091505060019003906000526020600020906005020160009091909190915060008201518160000160006101000a81548173ffffffffffffffffffffffffffffffffffffffff021916908373ffffffffffffffffffffffffffffffffffffffff16021790555060208201518160010155604082015181600201556060820151816003015560808201518160040155505050505050565b61092361068f565b8210610997576040517f08c379a00000000000000000000000000000000000000000000000000000000081526004018080602001828103825260078152602001807f626164207069640000000000000000000000000000000000000000000000000081525060200191505060405180910390fd5b6000600583815481106109a657fe5b9060005260206000209060050201905060006006600085815260200190815260200160002060003373ffffffffffffffffffffffffffffffffffffffff1673ffffffffffffffffffffffffffffffffffffffff16815260200190815260200160002090508281600001541015610a84576040517f08c379a00000000000000000000000000000000000000000000000000000000081526004018080602001828103825260128152602001807f77697468647261773a206e6f7420676f6f64000000000000000000000000000081525060200191505060405180910390fd5b610a8d84611cea565b6000610ad78260010154610ac964e8d4a51000610abb87600301548760040154611f7d90919063ffffffff16565b61200390919063ffffffff16565b61204d90919063ffffffff16565b9050600080821115610b69576000610aef8733612097565b9050610b176064610b098386611f7d90919063ffffffff16565b61200390919063ffffffff16565b91506000610b2e838561204d90919063ffffffff16565b9050610b5c600260009054906101000a900473ffffffffffffffffffffffffffffffffffffffff1684612167565b610b663382612167565b50505b6000851115610c6157610bc133868660000160009054906101000a900473ffffffffffffffffffffffffffffffffffffffff1673ffffffffffffffffffffffffffffffffffffffff166123119092919063ffffffff16565b610bd885846000015461204d90919063ffffffff16565b8360000181905550610bed83600001546123b3565b8360030181905550600083600401549050610c1984600301548560000154611f7d90919063ffffffff16565b8460040181905550610c4e8460040154610c4083886004015461204d90919063ffffffff16565b611c6290919063ffffffff16565b8560040181905550428460020181905550505b610c9364e8d4a51000610c8586600301548660040154611f7d90919063ffffffff16565b61200390919063ffffffff16565b8360010181905550853373ffffffffffffffffffffffffffffffffffffffff167ff279e6a1f5e320cca91135676d9cb6e44ca8a08c0b88342bcdb1144f6511b568876040518082815260200191505060405180910390a3505050505050565b60085481565b60045481565b600060058281548110610d0d57fe5b9060005260206000209060050201905060006006600084815260200190815260200160002060003373ffffffffffffffffffffffffffffffffffffffff1673ffffffffffffffffffffffffffffffffffffffff16815260200190815260200160002090506000816000015490506000826000018190555060008260010181905550610da98260040154846004015461204d90919063ffffffff16565b8360040181905550610e0033828560000160009054906101000a900473ffffffffffffffffffffffffffffffffffffffff1673ffffffffffffffffffffffffffffffffffffffff166123119092919063ffffffff16565b833373ffffffffffffffffffffffffffffffffffffffff167fbb757047c2b5f3974fe26b7c10f732e7bce710b0952a71082702781e62ae0595836040518082815260200191505060405180910390a350505050565b6000600580549050905060005b81811015610e7e57610e7381611cea565b806001019050610e62565b5050565b610e8a611c5a565b73ffffffffffffffffffffffffffffffffffffffff1660008054906101000a900473ffffffffffffffffffffffffffffffffffffffff1673ffffffffffffffffffffffffffffffffffffffff1614610f4a576040517f08c379a00000000000000000000000000000000000000000000000000000000081526004018080602001828103825260208152602001807f4f776e61626c653a2063616c6c6572206973206e6f7420746865206f776e657281525060200191505060405180910390fd5b8015610f5957610f58610e55565b5b610f9e82610f9060058681548110610f6d57fe5b90600052602060002090600502016001015460075461204d90919063ffffffff16565b611c6290919063ffffffff16565b6007819055508160058481548110610fb257fe5b906000526020600020906005020160010181905550505050565b610fd4611c5a565b73ffffffffffffffffffffffffffffffffffffffff1660008054906101000a900473ffffffffffffffffffffffffffffffffffffffff1673ffffffffffffffffffffffffffffffffffffffff1614611094576040517f08c379a00000000000000000000000000000000000000000000000000000000081526004018080602001828103825260208152602001807f4f776e61626c653a2063616c6c6572206973206e6f7420746865206f776e657281525060200191505060405180910390fd5b600073ffffffffffffffffffffffffffffffffffffffff1660008054906101000a900473ffffffffffffffffffffffffffffffffffffffff1673ffffffffffffffffffffffffffffffffffffffff167f8be0079c531659141344cd1fd0a4f28419497f9722a3daafe3b4186f6b6457e060405160405180910390a360008060006101000a81548173ffffffffffffffffffffffffffffffffffffffff021916908373ffffffffffffffffffffffffffffffffffffffff160217905550565b600a81565b600260009054906101000a900473ffffffffffffffffffffffffffffffffffffffff1673ffffffffffffffffffffffffffffffffffffffff163373ffffffffffffffffffffffffffffffffffffffff161461121a576040517f08c379a00000000000000000000000000000000000000000000000000000000081526004018080602001828103825260098152602001807f6465763a207775743f000000000000000000000000000000000000000000000081525060200191505060405180910390fd5b80600260006101000a81548173ffffffffffffffffffffffffffffffffffffffff021916908373ffffffffffffffffffffffffffffffffffffffff16021790555050565b60008060009054906101000a900473ffffffffffffffffffffffffffffffffffffffff16905090565b600060035482116112bf576112b8600a6112aa858561204d90919063ffffffff16565b611f7d90919063ffffffff16565b9050611333565b60035483106112e2576112db838361204d90919063ffffffff16565b9050611333565b6113306112fa6003548461204d90919063ffffffff16565b611322600a6113148760035461204d90919063ffffffff16565b611f7d90919063ffffffff16565b611c6290919063ffffffff16565b90505b92915050565b6006602052816000526040600020602052806000526040600020600091509150508060000154908060010154908060020154908060030154908060040154905085565b6000806005848154811061138c57fe5b9060005260206000209060050201905060006006600086815260200190815260200160002060008573ffffffffffffffffffffffffffffffffffffffff1673ffffffffffffffffffffffffffffffffffffffff168152602001908152602001600020905060008260030154905082600201544311801561141157506000836004015414155b156114bb576000611426846002015443611287565b9050600061147460075461146687600101546114586114498a6002015443611530565b87611f7d90919063ffffffff16565b611f7d90919063ffffffff16565b61200390919063ffffffff16565b90506114b66114a7866004015461149964e8d4a5100085611f7d90919063ffffffff16565b61200390919063ffffffff16565b84611c6290919063ffffffff16565b925050505b6114ff82600101546114f164e8d4a510006114e3858760040154611f7d90919063ffffffff16565b61200390919063ffffffff16565b61204d90919063ffffffff16565b935050505092915050565b600260009054906101000a900473ffffffffffffffffffffffffffffffffffffffff1681565b60008060085484039050600060085484039050600061154e83612400565b9050600061155b83612400565b9050600081831415611589576115826001830360020a60045461200390919063ffffffff16565b9050611649565b600085600a600185036005811061159c57fe5b01540390506000600a60018503600581106115b357fe5b01548603905060006115d66001870360020a60045461200390919063ffffffff16565b905060006115f56001870360020a60045461200390919063ffffffff16565b905061164261160d8a8a61204d90919063ffffffff16565b6116208386611f7d90919063ffffffff16565b6116338588611f7d90919063ffffffff16565b0161200390919063ffffffff16565b9450505050505b809550505050505092915050565b61165f61068f565b82106116d3576040517f08c379a00000000000000000000000000000000000000000000000000000000081526004018080602001828103825260078152602001807f626164207069640000000000000000000000000000000000000000000000000081525060200191505060405180910390fd5b60008111611749576040517f08c379a00000000000000000000000000000000000000000000000000000000081526004018080602001828103825260138152602001807f616d6f756e7420636f756c64276e20626520300000000000000000000000000081525060200191505060405180910390fd5b60006005838154811061175857fe5b9060005260206000209060050201905060006006600085815260200190815260200160002060003373ffffffffffffffffffffffffffffffffffffffff1673ffffffffffffffffffffffffffffffffffffffff16815260200190815260200160002090506117c584611cea565b6000816000015414156117dc574281600201819055505b6000816000015411156118c9576000611833826001015461182564e8d4a5100061181787600301548760040154611f7d90919063ffffffff16565b61200390919063ffffffff16565b61204d90919063ffffffff16565b905060008111156118c757600061184a8633612097565b9050600061187460646118668486611f7d90919063ffffffff16565b61200390919063ffffffff16565b9050600061188b828561204d90919063ffffffff16565b90506118b9600260009054906101000a900473ffffffffffffffffffffffffffffffffffffffff1683612167565b6118c33382612167565b5050505b505b60008311156119ba576119233330858560000160009054906101000a900473ffffffffffffffffffffffffffffffffffffffff1673ffffffffffffffffffffffffffffffffffffffff16612490909392919063ffffffff16565b61193a838260000154611c6290919063ffffffff16565b816000018190555061194f81600001546123b3565b816003018190555060008160040154905061197b82600301548360000154611f7d90919063ffffffff16565b82600401819055506119b082600401546119a283866004015461204d90919063ffffffff16565b611c6290919063ffffffff16565b8360040181905550505b6119ec64e8d4a510006119de84600301548460040154611f7d90919063ffffffff16565b61200390919063ffffffff16565b8160010181905550833373ffffffffffffffffffffffffffffffffffffffff167f90890809c654f11d6e72a28fa60149770a0d11ec6c92319d6ceb2bb0a4ea1a15856040518082815260200191505060405180910390a350505050565b60095481565b611a57611c5a565b73ffffffffffffffffffffffffffffffffffffffff1660008054906101000a900473ffffffffffffffffffffffffffffffffffffffff1673ffffffffffffffffffffffffffffffffffffffff1614611b17576040517f08c379a00000000000000000000000000000000000000000000000000000000081526004018080602001828103825260208152602001807f4f776e61626c653a2063616c6c6572206973206e6f7420746865206f776e657281525060200191505060405180910390fd5b600073ffffffffffffffffffffffffffffffffffffffff168173ffffffffffffffffffffffffffffffffffffffff161415611b9d576040517f08c379a0000000000000000000000000000000000000000000000000000000008152600401808060200182810382526026815260200180612a806026913960400191505060405180910390fd5b8073ffffffffffffffffffffffffffffffffffffffff1660008054906101000a900473ffffffffffffffffffffffffffffffffffffffff1673ffffffffffffffffffffffffffffffffffffffff167f8be0079c531659141344cd1fd0a4f28419497f9722a3daafe3b4186f6b6457e060405160405180910390a3806000806101000a81548173ffffffffffffffffffffffffffffffffffffffff021916908373ffffffffffffffffffffffffffffffffffffffff16021790555050565b600033905090565b600080828401905083811015611ce0576040517f08c379a000000000000000000000000000000000000000000000000000000000815260040180806020018281038252601b8152602001807f536166654d6174683a206164646974696f6e206f766572666c6f77000000000081525060200191505060405180910390fd5b8091505092915050565b600060058281548110611cf957fe5b9060005260206000209060050201905080600201544311611d1a5750611f7a565b600081600401541415611d365743816002018190555050611f7a565b6000611d46826002015443611287565b90506000611d94600754611d868560010154611d78611d69886002015443611530565b87611f7d90919063ffffffff16565b611f7d90919063ffffffff16565b61200390919063ffffffff16565b9050600160009054906101000a900473ffffffffffffffffffffffffffffffffffffffff1673ffffffffffffffffffffffffffffffffffffffff166340c10f19600260009054906101000a900473ffffffffffffffffffffffffffffffffffffffff16611e0b600a8561200390919063ffffffff16565b6040518363ffffffff1660e01b8152600401808373ffffffffffffffffffffffffffffffffffffffff16815260200182815260200192505050600060405180830381600087803b158015611e5e57600080fd5b505af1158015611e72573d6000803e3d6000fd5b50505050600160009054906101000a900473ffffffffffffffffffffffffffffffffffffffff1673ffffffffffffffffffffffffffffffffffffffff166340c10f1930836040518363ffffffff1660e01b8152600401808373ffffffffffffffffffffffffffffffffffffffff16815260200182815260200192505050600060405180830381600087803b158015611f0957600080fd5b505af1158015611f1d573d6000803e3d6000fd5b50505050611f65611f528460040154611f4464e8d4a5100085611f7d90919063ffffffff16565b61200390919063ffffffff16565b8460030154611c6290919063ffffffff16565b83600301819055504383600201819055505050505b50565b600080831415611f905760009050611ffd565b6000828402905082848281611fa157fe5b0414611ff8576040517f08c379a0000000000000000000000000000000000000000000000000000000008152600401808060200182810382526021815260200180612acc6021913960400191505060405180910390fd5b809150505b92915050565b600061204583836040518060400160405280601a81526020017f536166654d6174683a206469766973696f6e206279207a65726f000000000000815250612551565b905092915050565b600061208f83836040518060400160405280601e81526020017f536166654d6174683a207375627472616374696f6e206f766572666c6f770000815250612617565b905092915050565b6000806006600085815260200190815260200160002060008473ffffffffffffffffffffffffffffffffffffffff1673ffffffffffffffffffffffffffffffffffffffff1681526020019081526020016000209050600042905060006121336018612125603c612117603c8860020154880361200390919063ffffffff16565b61200390919063ffffffff16565b61200390919063ffffffff16565b9050600061215861214e60028461200390919063ffffffff16565b601e0360016126d7565b90508094505050505092915050565b6000600160009054906101000a900473ffffffffffffffffffffffffffffffffffffffff1673ffffffffffffffffffffffffffffffffffffffff166370a08231306040518263ffffffff1660e01b8152600401808273ffffffffffffffffffffffffffffffffffffffff16815260200191505060206040518083038186803b1580156121f257600080fd5b505afa158015612206573d6000803e3d6000fd5b505050506040513d602081101561221c57600080fd5b81019080805190602001909291905050509050600160009054906101000a900473ffffffffffffffffffffffffffffffffffffffff1673ffffffffffffffffffffffffffffffffffffffff1663a9059cbb8483851161227b578461227d565b835b6040518363ffffffff1660e01b8152600401808373ffffffffffffffffffffffffffffffffffffffff16815260200182815260200192505050602060405180830381600087803b1580156122d057600080fd5b505af11580156122e4573d6000803e3d6000fd5b505050506040513d60208110156122fa57600080fd5b810190808051906020019092919050505050505050565b6123ae8363a9059cbb60e01b8484604051602401808373ffffffffffffffffffffffffffffffffffffffff16815260200182815260200192505050604051602081830303815290604052907bffffffffffffffffffffffffffffffffffffffffffffffffffffffff19166020820180517bffffffffffffffffffffffffffffffffffffffffffffffffffffffff83818316178352505050506126f0565b505050565b6000600582116123c657600f90506123fb565b6005821180156123d7575060148211155b156123e557600a90506123fb565b605082116123f657600590506123fb565b600290505b919050565b600080600a60046005811061241157fe5b015483106124225760059050612487565b600a60036005811061243057fe5b015483106124415760049050612486565b600a60026005811061244f57fe5b015483106124605760039050612485565b600a60016005811061246e57fe5b0154831061247f5760029050612484565b600190505b5b5b5b80915050919050565b61254b846323b872dd60e01b858585604051602401808473ffffffffffffffffffffffffffffffffffffffff1681526020018373ffffffffffffffffffffffffffffffffffffffff1681526020018281526020019350505050604051602081830303815290604052907bffffffffffffffffffffffffffffffffffffffffffffffffffffffff19166020820180517bffffffffffffffffffffffffffffffffffffffffffffffffffffffff83818316178352505050506126f0565b50505050565b600080831182906125fd576040517f08c379a00000000000000000000000000000000000000000000000000000000081526004018080602001828103825283818151815260200191508051906020019080838360005b838110156125c25780820151818401526020810190506125a7565b50505050905090810190601f1680156125ef5780820380516001836020036101000a031916815260200191505b509250505060405180910390fd5b50600083858161260957fe5b049050809150509392505050565b60008383111582906126c4576040517f08c379a00000000000000000000000000000000000000000000000000000000081526004018080602001828103825283818151815260200191508051906020019080838360005b8381101561268957808201518184015260208101905061266e565b50505050905090810190601f1680156126b65780820380516001836020036101000a031916815260200191505b509250505060405180910390fd5b5060008385039050809150509392505050565b60008183116126e657816126e8565b825b905092915050565b6060612752826040518060400160405280602081526020017f5361666545524332303a206c6f772d6c6576656c2063616c6c206661696c65648152508573ffffffffffffffffffffffffffffffffffffffff166127df9092919063ffffffff16565b90506000815111156127da5780806020019051602081101561277357600080fd5b81019080805190602001909291905050506127d9576040517f08c379a000000000000000000000000000000000000000000000000000000000815260040180806020018281038252602a815260200180612aed602a913960400191505060405180910390fd5b5b505050565b60606127ee84846000856127f7565b90509392505050565b606082471015612852576040517f08c379a0000000000000000000000000000000000000000000000000000000008152600401808060200182810382526026815260200180612aa66026913960400191505060405180910390fd5b61285b856129a0565b6128cd576040517f08c379a000000000000000000000000000000000000000000000000000000000815260040180806020018281038252601d8152602001807f416464726573733a2063616c6c20746f206e6f6e2d636f6e747261637400000081525060200191505060405180910390fd5b600060608673ffffffffffffffffffffffffffffffffffffffff1685876040518082805190602001908083835b6020831061291d57805182526020820191506020810190506020830392506128fa565b6001836020036101000a03801982511681845116808217855250505050505090500191505060006040518083038185875af1925050503d806000811461297f576040519150601f19603f3d011682016040523d82523d6000602084013e612984565b606091505b50915091506129948282866129b3565b92505050949350505050565b600080823b905060008111915050919050565b606083156129c357829050612a78565b6000835111156129d65782518084602001fd5b816040517f08c379a00000000000000000000000000000000000000000000000000000000081526004018080602001828103825283818151815260200191508051906020019080838360005b83811015612a3d578082015181840152602081019050612a22565b50505050905090810190601f168015612a6a5780820380516001836020036101000a031916815260200191505b509250505060405180910390fd5b939250505056fe4f776e61626c653a206e6577206f776e657220697320746865207a65726f2061646472657373416464726573733a20696e73756666696369656e742062616c616e636520666f722063616c6c536166654d6174683a206d756c7469706c69636174696f6e206f766572666c6f775361666545524332303a204552433230206f7065726174696f6e20646964206e6f742073756363656564a264697066735822122014db70ee135dab635cace2c95730d6ce5b76d034c6064380b215aac18ddca62664736f6c63430007000033",
  "immutableReferences": {},
  "source": "// SPDX-License-Identifier: MIT\npragma solidity ^0.7.0;\n\nimport \"@openzeppelin/contracts/access/Ownable.sol\";\nimport {SafeMath} from \"@openzeppelin/contracts/math/SafeMath.sol\";\nimport {SafeERC20} from \"@openzeppelin/contracts/token/ERC20/SafeERC20.sol\";\nimport \"./NovaToken2.sol\";\n\n// MasterUniverse is the master of Nova. He can make Nova and he is a fair guy.\n//\n// Note that it's ownable and the owner wields tremendous power. The ownership\n// will be transferred to a governance smart contract once NOVA is sufficiently\n// distributed and the community can show to govern itself.\n//\n// Have fun reading it. Hopefully it's bug-free. God bless.\ncontract MasterUniverse2 is Ownable {\n    using SafeMath for uint256;\n    using SafeERC20 for IERC20;\n\n    address private constant GUARD = address(0);\n\n    // Info of each user.\n    struct UserInfo {\n        uint256 amount; // How many LP tokens the user has provided.\n        uint256 rewardDebt; // Reward debt. See explanation below.\n        uint256 lastStakedTime; // Usefull for fees calculate\n        uint256 buffRate; // Calculated per share of LP\n        uint256 plasmaPower;\n        //\n        // We do some fancy math here. Basically, any point in time, the amount of NOVAs\n        // entitled to a user but is pending to be distributed is:\n        //\n        //   pending reward = (user.amount * pool.accNovaPerShare) - user.rewardDebt\n        //\n        // Whenever a user deposits or withdraws LP tokens to a pool. Here's what happens:\n        //   1. The pool's `accNovaPerShare` (and `lastRewardBlock`) gets updated.\n        //   2. User receives the pending reward sent to his/her address.\n        //   3. User's `amount` gets updated.\n        //   4. User's `rewardDebt` gets updated.\n    }\n\n    // Info of each pool.\n    struct PoolInfo {\n        IERC20 lpToken; // Address of LP token contract.\n        uint256 allocPoint; // How many allocation points assigned to this pool. NOVAs to distribute per block.\n        uint256 lastRewardBlock; // Last block number that NOVAs distribution occurs.\n        uint256 accNovaPerShare; // Accumulated NOVAs per share, times 1e12. See below.\n        uint256 totalPlasmaPower;\n    }\n\n    // The NOVA TOKEN!\n    NovaToken2 public nova;\n    // Dev address.\n    address public devaddr;\n    // Block number when bonus NOVA period ends.\n    uint256 public bonusEndBlock;\n    // NOVA tokens created per block.\n    uint256 public novaPerBlock;\n    // Bonus muliplier for early nova makers.\n    uint256 public constant BONUS_MULTIPLIER = 10;\n    // Info of each pool.\n    PoolInfo[] public poolInfo;\n    // Info of each user that stakes LP tokens.\n    mapping(uint256 => mapping(address => UserInfo)) public userInfo;\n    // Total allocation points. Must be the sum of all allocation points in all pools.\n    uint256 public totalAllocPoint = 0;\n    // The block number when NOVA mining starts.\n    uint256 public startBlock;\n    // The timestamp when NOVA mining starts\n    uint256 public startTimestamp;\n    // Halving constant : 1 => 0 | 2 => 10 * 6500 | 3 ...\n    uint256[5] private halvings = [0,65000,195000,455000,975000];\n\n    uint256 private constant TINY_LIMIT = 5;\n    uint256 private constant COMMON_LIMIT = 20;\n    uint256 private constant HUGE_LIMIT = 80;\n\n    event Deposit(address indexed user, uint256 indexed pid, uint256 amount);\n    event Withdraw(address indexed user, uint256 indexed pid, uint256 amount);\n    event EmergencyWithdraw(address indexed user, uint256 indexed pid, uint256 amount);\n\n    constructor(\n        NovaToken2 _nova,\n        address _devaddr,\n        uint256 _novaPerBlock,\n        uint256 _startBlock,\n        uint256 _bonusEndBlock\n    ) {\n        nova = _nova;\n        devaddr = _devaddr;\n        novaPerBlock = _novaPerBlock;\n        bonusEndBlock = _bonusEndBlock;\n        startBlock = _startBlock;\n        startTimestamp = block.timestamp;\n    }\n\n    function poolLength() public view returns (uint256) {\n        return poolInfo.length;\n    }\n\n    // Add a new lp to the pool. Can only be called by the owner.\n    // XXX DO NOT add the same LP token more than once. Rewards will be messed up if you do.\n    function add(uint256 _allocPoint, IERC20 _lpToken, bool _withUpdate) public onlyOwner {\n        if (_withUpdate) {\n            massUpdatePools();\n        }\n        uint256 lastRewardBlock = block.number > startBlock ? block.number : startBlock;\n        totalAllocPoint = totalAllocPoint.add(_allocPoint);\n        poolInfo.push(PoolInfo({\n            lpToken: _lpToken,\n            allocPoint: _allocPoint,\n            lastRewardBlock: lastRewardBlock,\n            accNovaPerShare: 0,\n            totalPlasmaPower: 0\n        }));\n    }\n\n    // Update the given pool's NOVA allocation point. Can only be called by the owner.\n    function set(uint256 _pid, uint256 _allocPoint, bool _withUpdate) public onlyOwner {\n        if (_withUpdate) {\n            massUpdatePools();\n        }\n        totalAllocPoint = totalAllocPoint.sub(poolInfo[_pid].allocPoint).add(_allocPoint);\n        poolInfo[_pid].allocPoint = _allocPoint;\n    }\n\n    // Return reward multiplier over the given _from to _to block.\n    function getMultiplier(uint256 _from, uint256 _to) public view returns (uint256) {\n        if (_to <= bonusEndBlock) {\n            return _to.sub(_from).mul(BONUS_MULTIPLIER);\n        } else if (_from >= bonusEndBlock) {\n            return _to.sub(_from);\n        } else {\n            return bonusEndBlock.sub(_from).mul(BONUS_MULTIPLIER).add(\n                _to.sub(bonusEndBlock)\n            );\n        }\n    }\n\n    function calculateBuffRate(uint _amount) private pure returns (uint256) {\n        if (_amount <= TINY_LIMIT) {\n            return 15;\n        } else if (_amount > TINY_LIMIT && _amount <= COMMON_LIMIT) {\n            return 10;\n        } else if (_amount <= HUGE_LIMIT) {\n            return 5;\n        } else {\n            return 2;\n        }\n    }\n\n    // From pool.lastRewardBlock, to block.number\n    function calculateNovaPerBlock(uint256 _from, uint256 _to) public view returns (uint256)\n    {\n        // _from = 5 | _to = 20\n        uint256 countFrom = _from - startBlock;\n        uint256 countTo = _to - startBlock;\n        uint256 fromHalvingCycle = getHalvingCycleByBlockCount(countFrom); //1\n        uint256 toHalvingCycle = getHalvingCycleByBlockCount(countTo); //2\n        uint256 novaPerBlockNow;\n\n        if(fromHalvingCycle == toHalvingCycle){\n            novaPerBlockNow = novaPerBlock.div(2**(toHalvingCycle-1));\n        } else {\n            uint256 blockWithPreviousHalving = halvings[toHalvingCycle-1] - countFrom; // 10 - 5\n            uint256 blockWithCurrentHalving = countTo - halvings[toHalvingCycle-1]; // 20 - 10\n            uint previousNovaPerBlock = novaPerBlock.div(2**(fromHalvingCycle-1)); // div 1\n            uint currentNovaPerBlock = novaPerBlock.div(2**(toHalvingCycle-1)); // div 2\n            novaPerBlockNow = (blockWithPreviousHalving.mul(previousNovaPerBlock) + blockWithCurrentHalving.mul(currentNovaPerBlock)).div(countTo.sub(countFrom)); // (5*1 + 10*0.5) / 15\n        }\n        return novaPerBlockNow;\n    }\n\n    function getHalvingCycleByBlockCount(uint256 _blockCount) private view returns (uint256)\n    {\n        uint256 halvingCycle;\n        if(_blockCount >= halvings[4]){\n            halvingCycle = 5;\n        } else if(_blockCount >= halvings[3]){\n            halvingCycle = 4;\n        } else if(_blockCount >= halvings[2]){\n            halvingCycle = 3;\n        } else if(_blockCount >= halvings[1]){\n            halvingCycle = 2;\n        }  else {\n            halvingCycle = 1;\n        }\n        return halvingCycle;\n    }\n\n    // View function to see pending NOVAs on frontend.\n    function pendingNova(uint256 _pid, address _user) external view returns (uint256) {\n        PoolInfo storage pool = poolInfo[_pid];\n        UserInfo storage user = userInfo[_pid][_user];\n        uint256 accNovaPerShare = pool.accNovaPerShare;\n        if (block.number > pool.lastRewardBlock && pool.totalPlasmaPower != 0) {\n            uint256 multiplier = getMultiplier(pool.lastRewardBlock, block.number);\n            uint256 novaReward = multiplier.mul(calculateNovaPerBlock(pool.lastRewardBlock, block.number)).mul(pool.allocPoint).div(totalAllocPoint);\n            accNovaPerShare = accNovaPerShare.add(novaReward.mul(1e12).div(pool.totalPlasmaPower));\n        }\n\n        return user.plasmaPower.mul(accNovaPerShare).div(1e12).sub(user.rewardDebt);\n    }\n\n    // Update reward variables for all pools. Be careful of gas spending!\n    function massUpdatePools() public {\n        uint256 length = poolInfo.length;\n        for (uint256 pid = 0; pid < length; ++pid) {\n            updatePool(pid);\n        }\n    }\n\n    function calculateFeesPercentage(uint256 _pid, address _user) private view returns (uint256) {\n        UserInfo storage user = userInfo[_pid][_user];\n        uint currentTimestamp = block.timestamp; \n        uint daysSinceStartStaking = (currentTimestamp - user.lastStakedTime).div(60).div(60).div(24);\n        uint feesPercentage = max(30 - daysSinceStartStaking.div(2), 1); // -1% by two days - start to 30, and min to 1\n        return feesPercentage;\n    }\n\n    function max(uint a, uint b) private pure returns (uint) {\n        return a > b ? a : b;\n    }\n\n    // Update reward variables of the given pool to be up-to-date.\n    function updatePool(uint256 _pid) private {\n        PoolInfo storage pool = poolInfo[_pid];\n        if (block.number <= pool.lastRewardBlock) {\n            return;\n        }\n        //uint256 lpSupply = pool.lpToken.balanceOf(address(this));\n        if (pool.totalPlasmaPower == 0) {\n            pool.lastRewardBlock = block.number;\n            return;\n        }\n        uint256 multiplier = getMultiplier(pool.lastRewardBlock, block.number);\n        uint256 novaReward = multiplier.mul(calculateNovaPerBlock(pool.lastRewardBlock, block.number)).mul(pool.allocPoint).div(totalAllocPoint);\n        nova.mint(devaddr, novaReward.div(10));\n        nova.mint(address(this), novaReward);\n        pool.accNovaPerShare = pool.accNovaPerShare.add(novaReward.mul(1e12).div(pool.totalPlasmaPower));\n        pool.lastRewardBlock = block.number;\n    }\n\n    // Deposit LP tokens to MasterUniverse for NOVA allocation.\n    function deposit(uint256 _pid, uint256 _amount) external {\n        require(_pid < poolLength(), \"bad pid\");\n        require(_amount > 0, \"amount could'n be 0\");\n\n        PoolInfo storage pool = poolInfo[_pid];\n        UserInfo storage user = userInfo[_pid][msg.sender];\n\n        updatePool(_pid);\n\n        if (user.amount == 0) {\n            user.lastStakedTime = block.timestamp; \n        }\n\n        // they already staked so let's harvest\n        if (user.amount > 0) {\n            uint256 pending = user.plasmaPower.mul(pool.accNovaPerShare).div(1e12).sub(user.rewardDebt);\n            if (pending > 0) {\n                uint feesPercentage = calculateFeesPercentage(_pid, msg.sender);\n                uint256 fees = pending.mul(feesPercentage).div(100);\n                uint256 gain = pending.sub(fees);\n                safeNovaTransfer(devaddr, fees);\n                safeNovaTransfer(msg.sender, gain);\n            }\n        }\n\n        if (_amount > 0) {\n            pool.lpToken.safeTransferFrom(address(msg.sender),address(this),_amount);\n            user.amount = user.amount.add(_amount);\n            user.buffRate = calculateBuffRate(user.amount);\n            uint prevPlasmaPower = user.plasmaPower;\n            user.plasmaPower = user.amount.mul(user.buffRate);\n            pool.totalPlasmaPower = pool.totalPlasmaPower.sub(prevPlasmaPower).add(user.plasmaPower);\n        }\n\n        user.rewardDebt = user.plasmaPower.mul(pool.accNovaPerShare).div(1e12);\n        emit Deposit(msg.sender, _pid, _amount);\n    }\n\n    // Withdraw LP tokens from MasterUniverse.\n    function withdraw(uint256 _pid, uint256 _amount) external {\n        require(_pid < poolLength(), \"bad pid\");\n\n        PoolInfo storage pool = poolInfo[_pid];\n        UserInfo storage user = userInfo[_pid][msg.sender];\n\n        require(user.amount >= _amount, \"withdraw: not good\");\n\n        updatePool(_pid);\n\n        uint256 pending = user.plasmaPower.mul(pool.accNovaPerShare).div(1e12).sub(user.rewardDebt);\n        uint256 fees;\n        if(pending > 0) {\n            uint feesPercentage = calculateFeesPercentage(_pid, msg.sender);\n            fees = pending.mul(feesPercentage).div(100);\n            uint256 gain = pending.sub(fees);\n            safeNovaTransfer(devaddr, fees);\n            safeNovaTransfer(msg.sender, gain);\n        }\n\n        if (_amount > 0) {\n            pool.lpToken.safeTransfer(address(msg.sender), _amount);\n            user.amount = user.amount.sub(_amount);\n            user.buffRate = calculateBuffRate(user.amount);\n            uint prevPlasmaPower = user.plasmaPower;\n            user.plasmaPower = user.amount.mul(user.buffRate);\n            pool.totalPlasmaPower = pool.totalPlasmaPower.sub(prevPlasmaPower).add(user.plasmaPower);\n            user.lastStakedTime = block.timestamp;\n        }\n\n        user.rewardDebt = user.plasmaPower.mul(pool.accNovaPerShare).div(1e12);\n        emit Withdraw(msg.sender, _pid, _amount);\n    }\n\n    // Withdraw without caring about rewards. EMERGENCY ONLY.\n    function emergencyWithdraw(uint256 _pid) public {\n        PoolInfo storage pool = poolInfo[_pid];\n        UserInfo storage user = userInfo[_pid][msg.sender];\n        uint256 amount = user.amount;\n        user.amount = 0;\n        user.rewardDebt = 0;\n        pool.totalPlasmaPower = pool.totalPlasmaPower.sub(user.plasmaPower);\n        pool.lpToken.safeTransfer(address(msg.sender), amount);\n        emit EmergencyWithdraw(msg.sender, _pid, amount);\n    }\n\n    // Safe nova transfer function, just in case\n    // if rounding error causes pool to not have enough NOVAs.\n    function safeNovaTransfer(address _to, uint256 _amount) private {\n        uint256 novaBal = nova.balanceOf(address(this));\n        nova.transfer(_to, _amount > novaBal ? novaBal : _amount);\n    }\n\n    // Update dev address by the previous dev.\n    function dev(address _devaddr) public {\n        require(msg.sender == devaddr, \"dev: wut?\");\n        devaddr = _devaddr;\n    }\n}\n",
  "sourcePath": "/Users/leojpod/Dev/crypto/komet/contracts/MasterUniverse2.sol",
  "compiler": {
    "name": "solc",
    "version": "0.7.0+commit.9e61f92b.Emscripten.clang"
  },
  "schemaVersion": "3.3.2",
  "updatedAt": "2020-12-10T22:14:48.951Z",
  "networkType": "ethereum",
  "devdoc": {
    "kind": "dev",
    "methods": {
      "owner()": {
        "details": "Returns the address of the current owner."
      },
      "renounceOwnership()": {
        "details": "Leaves the contract without owner. It will not be possible to call `onlyOwner` functions anymore. Can only be called by the current owner. NOTE: Renouncing ownership will leave the contract without an owner, thereby removing any functionality that is only available to the owner."
      },
      "transferOwnership(address)": {
        "details": "Transfers ownership of the contract to a new account (`newOwner`). Can only be called by the current owner."
      }
    },
    "version": 1
  },
  "userdoc": {
    "kind": "user",
    "methods": {},
    "version": 1
  }
}