{
  "contractName": "NovaMigrationV2",
  "abi": [
    {
      "inputs": [
        {
          "internalType": "contract ERC20",
          "name": "_novaV1",
          "type": "address"
        },
        {
          "internalType": "contract NovaToken2",
          "name": "_novaV2",
          "type": "address"
        }
      ],
      "stateMutability": "nonpayable",
      "type": "constructor"
    },
    {
      "inputs": [],
      "name": "novaV1",
      "outputs": [
        {
          "internalType": "contract ERC20",
          "name": "",
          "type": "address"
        }
      ],
      "stateMutability": "view",
      "type": "function",
      "constant": true
    },
    {
      "inputs": [],
      "name": "novaV2",
      "outputs": [
        {
          "internalType": "contract NovaToken2",
          "name": "",
          "type": "address"
        }
      ],
      "stateMutability": "view",
      "type": "function",
      "constant": true
    },
    {
      "inputs": [],
      "name": "claimRewards",
      "outputs": [],
      "stateMutability": "nonpayable",
      "type": "function"
    },
    {
      "inputs": [
        {
          "internalType": "uint256",
          "name": "_amount",
          "type": "uint256"
        }
      ],
      "name": "swap",
      "outputs": [],
      "stateMutability": "nonpayable",
      "type": "function"
    }
  ],
  "bytecode": "0x608060405234801561001057600080fd5b50604051612059380380612059833981810160405281019061003291906117f0565b81600160006101000a81548173ffffffffffffffffffffffffffffffffffffffff021916908373ffffffffffffffffffffffffffffffffffffffff16021790555080600260006101000a81548173ffffffffffffffffffffffffffffffffffffffff021916908373ffffffffffffffffffffffffffffffffffffffff160217905550602d600080734f66536b90dd852fc9b6fa587b5325994f7087e373ffffffffffffffffffffffffffffffffffffffff1673ffffffffffffffffffffffffffffffffffffffff16815260200190815260200160002081905550609c60008073c9705c60f6bbbef941b8a6a67606908e188d45f973ffffffffffffffffffffffffffffffffffffffff1673ffffffffffffffffffffffffffffffffffffffff16815260200190815260200160002081905550600a600080730702c3d8fba3a889f178a108da5af3c714c228a373ffffffffffffffffffffffffffffffffffffffff1673ffffffffffffffffffffffffffffffffffffffff1681526020019081526020016000208190555060026000807383efa8293a5c40fca10d3f4a8b29ad027f53f8a373ffffffffffffffffffffffffffffffffffffffff1673ffffffffffffffffffffffffffffffffffffffff168152602001908152602001600020819055506101f060008073b45b74eb35790d20e5f4225b0ac49d5bb074696e73ffffffffffffffffffffffffffffffffffffffff1673ffffffffffffffffffffffffffffffffffffffff16815260200190815260200160002081905550600560008073735660e3c4049988393471d60817f0983852aee673ffffffffffffffffffffffffffffffffffffffff1673ffffffffffffffffffffffffffffffffffffffff1681526020019081526020016000208190555060026000807374375faba79502580c2906144ac99117a4a3f3b573ffffffffffffffffffffffffffffffffffffffff1673ffffffffffffffffffffffffffffffffffffffff16815260200190815260200160002081905550608760008073c13ba51d26d1b2022fa51e25243bb49a54c4a95373ffffffffffffffffffffffffffffffffffffffff1673ffffffffffffffffffffffffffffffffffffffff16815260200190815260200160002081905550603d600080735ad32c7aee7f06575ee0740cda8e6bd095cc391973ffffffffffffffffffffffffffffffffffffffff1673ffffffffffffffffffffffffffffffffffffffff168152602001908152602001600020819055506062600080731471cd9bd621e8506e427eac447ccd92d7855be573ffffffffffffffffffffffffffffffffffffffff1673ffffffffffffffffffffffffffffffffffffffff1681526020019081526020016000208190555060076000807363bc843b9640c4d79d6ae0105bc39f773172d12173ffffffffffffffffffffffffffffffffffffffff1673ffffffffffffffffffffffffffffffffffffffff1681526020019081526020016000208190555061018b60008072290ffc9e9d19bda7b25c6e44d8adf55dfbf2dd73ffffffffffffffffffffffffffffffffffffffff1673ffffffffffffffffffffffffffffffffffffffff168152602001908152602001600020819055506002600080739ceb5bca65e595956320ade1656fb38200c5226573ffffffffffffffffffffffffffffffffffffffff1673ffffffffffffffffffffffffffffffffffffffff16815260200190815260200160002081905550604160008073d965952823153e5cbc611be87e8322cfc329f05673ffffffffffffffffffffffffffffffffffffffff1673ffffffffffffffffffffffffffffffffffffffff16815260200190815260200160002081905550600260008073a1f2d9c5bb44d03fe1b530d18182a008c17a6bcc73ffffffffffffffffffffffffffffffffffffffff1673ffffffffffffffffffffffffffffffffffffffff16815260200190815260200160002081905550602c600080739543746e414926d1695ec001bc7b76277895490f73ffffffffffffffffffffffffffffffffffffffff1673ffffffffffffffffffffffffffffffffffffffff168152602001908152602001600020819055506007600080731724ab964c750f4ba543970ad652961535d48d8573ffffffffffffffffffffffffffffffffffffffff1673ffffffffffffffffffffffffffffffffffffffff16815260200190815260200160002081905550601260008073c8d46eb7881975f9ae15216feeba2ff58e55803c73ffffffffffffffffffffffffffffffffffffffff1673ffffffffffffffffffffffffffffffffffffffff16815260200190815260200160002081905550600b60008073354371c378a880d2695c445226f36b94b8de1f6173ffffffffffffffffffffffffffffffffffffffff1673ffffffffffffffffffffffffffffffffffffffff1681526020019081526020016000208190555060086000807306da20ff018e3dc3cfa9ea16f687bf3b2266891473ffffffffffffffffffffffffffffffffffffffff1673ffffffffffffffffffffffffffffffffffffffff16815260200190815260200160002081905550604460008073f85fa2414a0647142c061cbaddb892ea91696ecf73ffffffffffffffffffffffffffffffffffffffff1673ffffffffffffffffffffffffffffffffffffffff168152602001908152602001600020819055506004600080733caff18d45e051a25f0b4acd9f5c40001c541f7f73ffffffffffffffffffffffffffffffffffffffff1673ffffffffffffffffffffffffffffffffffffffff16815260200190815260200160002081905550600b6000807362c704b3645ed6274c5220d324253b816855bc7c73ffffffffffffffffffffffffffffffffffffffff1673ffffffffffffffffffffffffffffffffffffffff16815260200190815260200160002081905550601c60008073f41499f6e105786576fb99cb0c060626fb9f3a3173ffffffffffffffffffffffffffffffffffffffff1673ffffffffffffffffffffffffffffffffffffffff168152602001908152602001600020819055506002600080739428b02560e91608bd9780a916d5eb89eb9a4b6d73ffffffffffffffffffffffffffffffffffffffff1673ffffffffffffffffffffffffffffffffffffffff1681526020019081526020016000208190555060016000807364e5624790084f8fb0e0cdf3e400828f2b68eae373ffffffffffffffffffffffffffffffffffffffff1673ffffffffffffffffffffffffffffffffffffffff1681526020019081526020016000208190555060246000807374379c5eca1cbb6ecc1699755dfddc256f4162a473ffffffffffffffffffffffffffffffffffffffff1673ffffffffffffffffffffffffffffffffffffffff16815260200190815260200160002081905550602460008073d814a8e950d84d78e7ac94cb1d24739073f3026e73ffffffffffffffffffffffffffffffffffffffff1673ffffffffffffffffffffffffffffffffffffffff16815260200190815260200160002081905550600260008073c4feac1e44e8f051560b1e8b0b02dd8dd7c1148573ffffffffffffffffffffffffffffffffffffffff1673ffffffffffffffffffffffffffffffffffffffff1681526020019081526020016000208190555060086000807358440dac3d6962f3fad231e2e238f02a7fba8d7a73ffffffffffffffffffffffffffffffffffffffff1673ffffffffffffffffffffffffffffffffffffffff1681526020019081526020016000208190555060096000807374de89721e8e86576b828b5f42057abfb74f41c373ffffffffffffffffffffffffffffffffffffffff1673ffffffffffffffffffffffffffffffffffffffff168152602001908152602001600020819055506075600080734dbe965abcb9ebc4c6e9d95aeb631e5b58e70d5b73ffffffffffffffffffffffffffffffffffffffff1673ffffffffffffffffffffffffffffffffffffffff16815260200190815260200160002081905550602360008073d895689d4e6390bfd43aeeff844bc8c98e76f7cd73ffffffffffffffffffffffffffffffffffffffff1673ffffffffffffffffffffffffffffffffffffffff16815260200190815260200160002081905550601c600080739f9692fff5ce2c81737f62bcca101a7a7bc31c4673ffffffffffffffffffffffffffffffffffffffff1673ffffffffffffffffffffffffffffffffffffffff168152602001908152602001600020819055506016600080731012e83da77e283910d00e9dc1af5b103d62db1273ffffffffffffffffffffffffffffffffffffffff1673ffffffffffffffffffffffffffffffffffffffff16815260200190815260200160002081905550600660008073dbfe90f5bf1425eea1489978048fb03b1d37ed2f73ffffffffffffffffffffffffffffffffffffffff1673ffffffffffffffffffffffffffffffffffffffff16815260200190815260200160002081905550600c6000807301b23f8cc7fbf107b0f39aa0ba7c17ebafb5d61873ffffffffffffffffffffffffffffffffffffffff1673ffffffffffffffffffffffffffffffffffffffff16815260200190815260200160002081905550600660008073408c9b38919ddef2eed0008e4f89a378ec5c392273ffffffffffffffffffffffffffffffffffffffff1673ffffffffffffffffffffffffffffffffffffffff16815260200190815260200160002081905550601760008073fa6eb99d1f3a8692f39d8794b2ce72d7e391e2e073ffffffffffffffffffffffffffffffffffffffff1673ffffffffffffffffffffffffffffffffffffffff16815260200190815260200160002081905550601060008073dedee77ec7163a77040dc18578776b39b58ce87873ffffffffffffffffffffffffffffffffffffffff1673ffffffffffffffffffffffffffffffffffffffff16815260200190815260200160002081905550601160008073fcff948994b89c47d39a77806ad06f63482524b173ffffffffffffffffffffffffffffffffffffffff1673ffffffffffffffffffffffffffffffffffffffff16815260200190815260200160002081905550600260008073ab7559304ead66d8ca0bc1e0365b6d1ae89c907773ffffffffffffffffffffffffffffffffffffffff1673ffffffffffffffffffffffffffffffffffffffff16815260200190815260200160002081905550600a60008073e7083ea81d723a15400feaf8424317aba068f7e273ffffffffffffffffffffffffffffffffffffffff1673ffffffffffffffffffffffffffffffffffffffff168152602001908152602001600020819055506003600080734ced6205d981bdeb8f75daabaff56cb18728131573ffffffffffffffffffffffffffffffffffffffff1673ffffffffffffffffffffffffffffffffffffffff16815260200190815260200160002081905550600f60008073934adbb72e3a8cbbd4dc0934fd2bd579948eaefb73ffffffffffffffffffffffffffffffffffffffff1673ffffffffffffffffffffffffffffffffffffffff1681526020019081526020016000208190555060066000807392a0bfef7926cb7ba584c37227b5b74b911068ff73ffffffffffffffffffffffffffffffffffffffff1673ffffffffffffffffffffffffffffffffffffffff16815260200190815260200160002081905550600660008073e8b32939133dd60a04161cf61829270bd8b5fc5773ffffffffffffffffffffffffffffffffffffffff1673ffffffffffffffffffffffffffffffffffffffff168152602001908152602001600020819055506009600080739053a30186a6c54422981859116c427f998cd89473ffffffffffffffffffffffffffffffffffffffff1673ffffffffffffffffffffffffffffffffffffffff16815260200190815260200160002081905550600260008073c494a87a34f90c6cbf423776fda3c072edb42a6573ffffffffffffffffffffffffffffffffffffffff1673ffffffffffffffffffffffffffffffffffffffff16815260200190815260200160002081905550600560008073a9c83863bbfc4f152b7118f07608d4f61fd6090e73ffffffffffffffffffffffffffffffffffffffff1673ffffffffffffffffffffffffffffffffffffffff16815260200190815260200160002081905550600560008073bd1e1cc9613b510d1669d1e79fd0115c70a4c7be73ffffffffffffffffffffffffffffffffffffffff1673ffffffffffffffffffffffffffffffffffffffff16815260200190815260200160002081905550600760008073597aab0305ed1d37d1a009854303e927c468b52c73ffffffffffffffffffffffffffffffffffffffff1673ffffffffffffffffffffffffffffffffffffffff16815260200190815260200160002081905550600260008073d6fc9b58774bf3fa0b1ae0f1e701ba360e8b316b73ffffffffffffffffffffffffffffffffffffffff1673ffffffffffffffffffffffffffffffffffffffff168152602001908152602001600020819055506008600080735330d616c96118e6fc5290475b8ea377cffb66b473ffffffffffffffffffffffffffffffffffffffff1673ffffffffffffffffffffffffffffffffffffffff168152602001908152602001600020819055506003600080730e3c7363decabfe24637caad9e6432c6ab75064873ffffffffffffffffffffffffffffffffffffffff1673ffffffffffffffffffffffffffffffffffffffff168152602001908152602001600020819055506006600080730e3c7363decabfe24637caad9e6432c6ab75064873ffffffffffffffffffffffffffffffffffffffff1673ffffffffffffffffffffffffffffffffffffffff16815260200190815260200160002081905550601160008073c2f3192dc907ea10e12582135d1335ad0846faaf73ffffffffffffffffffffffffffffffffffffffff1673ffffffffffffffffffffffffffffffffffffffff16815260200190815260200160002081905550600360008073c6afa04760a511a59d821ca1c2ee41c0cfa8792773ffffffffffffffffffffffffffffffffffffffff1673ffffffffffffffffffffffffffffffffffffffff16815260200190815260200160002081905550600f600080736f974385abbcb0417332d9f906ad42e75fc2f31c73ffffffffffffffffffffffffffffffffffffffff1673ffffffffffffffffffffffffffffffffffffffff1681526020019081526020016000208190555060036000807396e803c8c5aa5084a6507cf5b71289d3e9b1449573ffffffffffffffffffffffffffffffffffffffff1673ffffffffffffffffffffffffffffffffffffffff168152602001908152602001600020819055506004600080730dd12bc0b1f2fe03600a1f828cb50f046938295b73ffffffffffffffffffffffffffffffffffffffff1673ffffffffffffffffffffffffffffffffffffffff16815260200190815260200160002081905550600360008073111cd92405b1dfbd19882d361418f49d99d8fed873ffffffffffffffffffffffffffffffffffffffff1673ffffffffffffffffffffffffffffffffffffffff168152602001908152602001600020819055506001600080738948e76b10612d4c3360917b02edfa45b56588a973ffffffffffffffffffffffffffffffffffffffff1673ffffffffffffffffffffffffffffffffffffffff16815260200190815260200160002081905550601f600080738ca6f5e6ba3e7b85c9094d7cc04308f3707134fa73ffffffffffffffffffffffffffffffffffffffff1673ffffffffffffffffffffffffffffffffffffffff16815260200190815260200160002081905550600d60008073c66135b1671ad1f2cae217ff19234a77f7a0b00c73ffffffffffffffffffffffffffffffffffffffff1673ffffffffffffffffffffffffffffffffffffffff16815260200190815260200160002081905550610109600080730799442ce0f90f8837fdeece82cd2735625b4bf973ffffffffffffffffffffffffffffffffffffffff1673ffffffffffffffffffffffffffffffffffffffff1681526020019081526020016000208190555061012c600080731b03a6a7b2ec1ae8d13751867f53b2d1ebb8f36773ffffffffffffffffffffffffffffffffffffffff1673ffffffffffffffffffffffffffffffffffffffff1681526020019081526020016000208190555050506118b0565b6000815190506117d581611882565b92915050565b6000815190506117ea81611899565b92915050565b6000806040838503121561180357600080fd5b6000611811858286016117c6565b9250506020611822858286016117db565b9150509250929050565b600061183782611862565b9050919050565b60006118498261182c565b9050919050565b600061185b8261182c565b9050919050565b600073ffffffffffffffffffffffffffffffffffffffff82169050919050565b61188b8161183e565b811461189657600080fd5b50565b6118a281611850565b81146118ad57600080fd5b50565b61079a806118bf6000396000f3fe608060405234801561001057600080fd5b506004361061004c5760003560e01c80632640689a14610051578063372500ab1461006f578063526dbd911461007957806394b918de14610097575b600080fd5b6100596100b3565b6040516100669190610609565b60405180910390f35b6100776100d9565b005b6100816101f2565b60405161008e9190610624565b60405180910390f35b6100b160048036038101906100ac91906104b1565b610218565b005b600160009054906101000a900473ffffffffffffffffffffffffffffffffffffffff1681565b60008060003373ffffffffffffffffffffffffffffffffffffffff1673ffffffffffffffffffffffffffffffffffffffff168152602001908152602001600020541161015a576040517f08c379a00000000000000000000000000000000000000000000000000000000081526004016101519061063f565b60405180910390fd5b6101ac33670de0b6b3a76400006000803373ffffffffffffffffffffffffffffffffffffffff1673ffffffffffffffffffffffffffffffffffffffff16815260200190815260200160002054026102d7565b60008060003373ffffffffffffffffffffffffffffffffffffffff1673ffffffffffffffffffffffffffffffffffffffff16815260200190815260200160002081905550565b600260009054906101000a900473ffffffffffffffffffffffffffffffffffffffff1681565b600160009054906101000a900473ffffffffffffffffffffffffffffffffffffffff1673ffffffffffffffffffffffffffffffffffffffff166323b872dd3330846040518463ffffffff1660e01b8152600401610277939291906105a9565b602060405180830381600087803b15801561029157600080fd5b505af11580156102a5573d6000803e3d6000fd5b505050506040513d601f19601f820116820180604052508101906102c99190610488565b506102d433826102d7565b50565b6000600260009054906101000a900473ffffffffffffffffffffffffffffffffffffffff1673ffffffffffffffffffffffffffffffffffffffff166370a08231306040518263ffffffff1660e01b8152600401610334919061058e565b60206040518083038186803b15801561034c57600080fd5b505afa158015610360573d6000803e3d6000fd5b505050506040513d601f19601f8201168201806040525081019061038491906104da565b9050600260009054906101000a900473ffffffffffffffffffffffffffffffffffffffff1673ffffffffffffffffffffffffffffffffffffffff1663a9059cbb848385116103d257846103d4565b835b6040518363ffffffff1660e01b81526004016103f19291906105e0565b602060405180830381600087803b15801561040b57600080fd5b505af115801561041f573d6000803e3d6000fd5b505050506040513d601f19601f820116820180604052508101906104439190610488565b50505050565b60008151905061045881610736565b92915050565b60008135905061046d8161074d565b92915050565b6000815190506104828161074d565b92915050565b60006020828403121561049a57600080fd5b60006104a884828501610449565b91505092915050565b6000602082840312156104c357600080fd5b60006104d18482850161045e565b91505092915050565b6000602082840312156104ec57600080fd5b60006104fa84828501610473565b91505092915050565b61050c816106b8565b82525050565b61051b81610670565b82525050565b61052a816106ca565b82525050565b610539816106ee565b82525050565b600061054c60208361065f565b91507f6e6f206d6f7265207265776172647320666f72207468697320616464726573736000830152602082019050919050565b610588816106ae565b82525050565b60006020820190506105a36000830184610512565b92915050565b60006060820190506105be6000830186610503565b6105cb6020830185610512565b6105d8604083018461057f565b949350505050565b60006040820190506105f56000830185610512565b610602602083018461057f565b9392505050565b600060208201905061061e6000830184610521565b92915050565b60006020820190506106396000830184610530565b92915050565b600060208201905081810360008301526106588161053f565b9050919050565b600082825260208201905092915050565b600061067b8261068e565b9050919050565b60008115159050919050565b600073ffffffffffffffffffffffffffffffffffffffff82169050919050565b6000819050919050565b60006106c382610712565b9050919050565b60006106d5826106dc565b9050919050565b60006106e78261068e565b9050919050565b60006106f982610700565b9050919050565b600061070b8261068e565b9050919050565b600061071d82610724565b9050919050565b600061072f8261068e565b9050919050565b61073f81610682565b811461074a57600080fd5b50565b610756816106ae565b811461076157600080fd5b5056fea26469706673582212202ad562dd82ae956a70ebdc29cac99349c5b6503cc46dd8c1c3b5753c4955d8cb64736f6c63430007000033",
  "immutableReferences": {},
  "source": "// SPDX-License-Identifier: MIT\npragma solidity ^0.7.0;\npragma experimental ABIEncoderV2;\n\nimport \"@openzeppelin/contracts/token/ERC20/ERC20.sol\";\nimport \"@openzeppelin/contracts/math/SafeMath.sol\";\nimport \"./NovaToken2.sol\";\n\ncontract NovaMigrationV2 {\n    using SafeMath for uint256;\n    mapping (address => uint256) rewards;\n    ERC20 public novaV1;\n    NovaToken2 public novaV2;\n\n    constructor(\n        ERC20 _novaV1,\n        NovaToken2 _novaV2\n    ) {\n        novaV1 = _novaV1;\n        novaV2 = _novaV2;\n\n        // INIT REWARDS\n        rewards[0x4F66536B90dd852fc9B6Fa587b5325994f7087e3] = 45;\n        rewards[0xC9705c60f6bBbef941b8a6A67606908E188D45f9] = 156;\n        rewards[0x0702c3D8Fba3a889f178a108DA5aF3C714C228a3] = 10;\n        rewards[0x83EfA8293a5C40FcA10D3F4A8b29Ad027F53F8a3] = 2;\n        rewards[0xB45b74Eb35790d20e5f4225b0AC49D5bb074696E] = 496;\n        rewards[0x735660e3c4049988393471d60817F0983852Aee6] = 5;\n        rewards[0x74375faBA79502580C2906144ac99117a4A3F3B5] = 2;\n        rewards[0xC13bA51d26d1b2022Fa51e25243bb49A54c4A953] = 135;\n        rewards[0x5aD32C7aeE7F06575EE0740cda8E6bd095CC3919] = 61;\n        rewards[0x1471cD9Bd621E8506e427eaC447cCD92d7855be5] = 98;\n        rewards[0x63BC843b9640c4D79d6aE0105bc39F773172d121] = 7;\n        rewards[0x00290ffc9e9D19bdA7b25c6e44d8ADF55DFBf2dD] = 395;\n        rewards[0x9ceB5Bca65e595956320aDE1656Fb38200c52265] = 2;\n        rewards[0xD965952823153E5CBc611be87e8322cfc329f056] = 65;\n        rewards[0xA1F2D9c5bb44d03FE1b530D18182A008c17A6BcC] = 2;\n        rewards[0x9543746e414926D1695eC001BC7B76277895490f] = 44;\n        rewards[0x1724AB964c750F4ba543970ad652961535D48d85] = 7;\n        rewards[0xC8D46eb7881975F9aE15216FeEBa2ff58E55803c] = 18;\n        rewards[0x354371c378a880D2695c445226F36B94b8dE1F61] = 11;\n        rewards[0x06da20fF018e3Dc3cFA9ea16f687bf3b22668914] = 8;\n        rewards[0xF85fA2414a0647142C061CBADDB892Ea91696Ecf] = 68;\n        rewards[0x3cAFF18D45E051a25F0B4ACd9F5C40001C541f7F] = 4;\n        rewards[0x62C704b3645Ed6274c5220d324253b816855BC7C] = 11;\n        rewards[0xF41499F6E105786576fb99cB0c060626Fb9f3A31] = 28;\n        rewards[0x9428b02560e91608BD9780a916d5eB89Eb9a4b6D] = 2;\n        rewards[0x64e5624790084F8Fb0e0cdF3e400828F2b68eAE3] = 1;\n        rewards[0x74379C5ECA1cBb6Ecc1699755dfdDc256F4162A4] = 36;\n        rewards[0xD814a8e950D84D78E7AC94Cb1d24739073F3026e] = 36;\n        rewards[0xc4feAC1E44e8f051560B1E8B0b02dd8dD7c11485] = 2;\n        rewards[0x58440dAc3D6962F3FAD231e2E238F02A7FbA8D7a] = 8;\n        rewards[0x74De89721e8E86576b828B5F42057ABFb74F41C3] = 9;\n        rewards[0x4DbE965AbCb9eBc4c6E9d95aEb631e5B58E70d5b] = 117;\n        rewards[0xD895689d4e6390bFd43AeEff844bC8C98E76F7cD] = 35;\n        rewards[0x9F9692FfF5Ce2C81737f62bccA101a7a7bC31c46] = 28;\n        rewards[0x1012e83Da77E283910D00E9Dc1Af5B103d62db12] = 22;\n        rewards[0xDbFe90f5bF1425eEa1489978048Fb03B1D37Ed2F] = 6;\n        rewards[0x01b23f8cc7FBF107b0F39AA0Ba7C17eBAFb5D618] = 12;\n        rewards[0x408c9B38919DDeF2EeD0008e4f89a378ec5c3922] = 6;\n        rewards[0xFA6eb99d1F3A8692f39d8794B2Ce72D7E391E2e0] = 23;\n        rewards[0xdeDee77Ec7163a77040dc18578776b39B58cE878] = 16;\n        rewards[0xfCFf948994B89C47d39a77806Ad06f63482524b1] = 17;\n        rewards[0xAb7559304eAd66D8CA0BC1e0365b6d1aE89c9077] = 2;\n        rewards[0xE7083ea81d723a15400fEaF8424317aBA068f7e2] = 10;\n        rewards[0x4CeD6205D981bDEB8F75DAAbAfF56Cb187281315] = 3;\n        rewards[0x934AdbB72e3a8CbBd4DC0934Fd2Bd579948EAEfB] = 15;\n        rewards[0x92A0bfeF7926Cb7bA584c37227b5b74B911068ff] = 6;\n        rewards[0xe8B32939133DD60A04161cF61829270bD8b5Fc57] = 6;\n        rewards[0x9053a30186a6C54422981859116C427f998CD894] = 9;\n        rewards[0xc494a87A34F90C6CBf423776fDA3c072edB42a65] = 2;\n        rewards[0xa9C83863bbfc4f152B7118F07608D4F61Fd6090e] = 5;\n        rewards[0xBd1E1Cc9613B510d1669D1e79Fd0115C70a4C7be] = 5;\n        rewards[0x597aAB0305ed1D37d1a009854303e927C468b52c] = 7;\n        rewards[0xD6FC9B58774Bf3fa0B1ae0f1E701BA360E8B316B] = 2;\n        rewards[0x5330D616c96118E6fc5290475B8eA377CfFB66B4] = 8;\n        rewards[0x0e3c7363dEcaBFE24637CAAD9e6432c6Ab750648] = 3;\n        rewards[0x0e3c7363dEcaBFE24637CAAD9e6432c6Ab750648] = 6;\n        rewards[0xC2F3192dC907EA10e12582135d1335aD0846faAf] = 17;\n        rewards[0xc6AFa04760A511a59D821CA1c2EE41C0cFa87927] = 3;\n        rewards[0x6f974385AbBcB0417332d9f906ad42e75Fc2F31c] = 15;\n        rewards[0x96e803C8c5aA5084a6507cf5b71289d3E9B14495] = 3;\n        rewards[0x0dd12bc0B1F2fE03600A1f828CB50f046938295b] = 4;\n        rewards[0x111cD92405B1Dfbd19882D361418F49D99d8FED8] = 3;\n        rewards[0x8948e76B10612d4C3360917B02EDfA45b56588a9] = 1;\n        rewards[0x8ca6F5e6ba3e7B85c9094D7Cc04308F3707134fA] = 31;\n        rewards[0xC66135b1671aD1f2cAE217ff19234A77F7A0B00c] = 13;\n        rewards[0x0799442CE0f90F8837fdeEce82Cd2735625B4bf9] = 265;\n        // Just for unit test\n        rewards[0x1B03a6A7b2EC1aE8D13751867F53b2d1EBB8F367] = 300;\n    }\n\n    function claimRewards() external {\n        require(rewards[msg.sender] > 0, \"no more rewards for this address\");\n        safeNovaTransfer(msg.sender, rewards[msg.sender]*1 ether);\n        rewards[msg.sender] = 0;\n    }\n\n    function swap(uint256 _amount) external {\n        novaV1.transferFrom(msg.sender, address(this), _amount);\n        safeNovaTransfer(msg.sender, _amount);\n    }\n\n    // Safe nova transfer function, just in case\n    // if rounding error causes pool to not have enough NOVAs.\n    function safeNovaTransfer(address _to, uint256 _amount) private {\n        uint256 novaBal = novaV2.balanceOf(address(this));\n        novaV2.transfer(_to, _amount > novaBal ? novaBal : _amount);\n    }\n}\n",
  "sourcePath": "/Users/romain/Work/02_lab/komet/contracts/NovaMigrationV2.sol",
  "compiler": {
    "name": "solc",
    "version": "0.7.0+commit.9e61f92b.Emscripten.clang"
  },
  "schemaVersion": "3.3.2",
  "updatedAt": "2020-12-12T22:28:14.114Z",
  "networkType": "ethereum",
  "devdoc": {
    "kind": "dev",
    "methods": {},
    "version": 1
  },
  "userdoc": {
    "kind": "user",
    "methods": {},
    "version": 1
  }
}