{
  "contractName": "NovaMigration2",
  "abi": [
    {
      "inputs": [
        {
          "internalType": "contract IMasterUniverseV1",
          "name": "_masterUniverseV1",
          "type": "address"
        },
        {
          "internalType": "contract IMasterUniverseV2",
          "name": "_masterUniverseV2",
          "type": "address"
        },
        {
          "internalType": "contract IERC20",
          "name": "_novaV1",
          "type": "address"
        },
        {
          "internalType": "contract NovaToken2",
          "name": "_novaV2",
          "type": "address"
        }
      ],
      "stateMutability": "nonpayable",
      "type": "constructor"
    },
    {
      "inputs": [],
      "name": "NOVA_REWARD",
      "outputs": [
        {
          "internalType": "uint256",
          "name": "",
          "type": "uint256"
        }
      ],
      "stateMutability": "view",
      "type": "function"
    },
    {
      "inputs": [],
      "name": "masterUniverseV1",
      "outputs": [
        {
          "internalType": "contract IMasterUniverseV1",
          "name": "",
          "type": "address"
        }
      ],
      "stateMutability": "view",
      "type": "function"
    },
    {
      "inputs": [],
      "name": "masterUniverseV2",
      "outputs": [
        {
          "internalType": "contract IMasterUniverseV2",
          "name": "",
          "type": "address"
        }
      ],
      "stateMutability": "view",
      "type": "function"
    },
    {
      "inputs": [],
      "name": "novaV1",
      "outputs": [
        {
          "internalType": "contract IERC20",
          "name": "",
          "type": "address"
        }
      ],
      "stateMutability": "view",
      "type": "function"
    },
    {
      "inputs": [],
      "name": "novaV2",
      "outputs": [
        {
          "internalType": "contract NovaToken2",
          "name": "",
          "type": "address"
        }
      ],
      "stateMutability": "view",
      "type": "function"
    },
    {
      "inputs": [],
      "name": "migrate",
      "outputs": [],
      "stateMutability": "nonpayable",
      "type": "function"
    },
    {
      "inputs": [
        {
          "internalType": "uint256",
          "name": "_amount",
          "type": "uint256"
        }
      ],
      "name": "swap",
      "outputs": [],
      "stateMutability": "nonpayable",
      "type": "function"
    }
  ],
  "bytecode": "0x60c06040523480156200001157600080fd5b50604051620013f3380380620013f383398181016040528101906200003791906200018c565b8373ffffffffffffffffffffffffffffffffffffffff1660808173ffffffffffffffffffffffffffffffffffffffff1660601b815250508273ffffffffffffffffffffffffffffffffffffffff1660a08173ffffffffffffffffffffffffffffffffffffffff1660601b81525050816000806101000a81548173ffffffffffffffffffffffffffffffffffffffff021916908373ffffffffffffffffffffffffffffffffffffffff16021790555080600160006101000a81548173ffffffffffffffffffffffffffffffffffffffff021916908373ffffffffffffffffffffffffffffffffffffffff16021790555050505050620002e4565b60008151905062000141816200027c565b92915050565b600081519050620001588162000296565b92915050565b6000815190506200016f81620002b0565b92915050565b6000815190506200018681620002ca565b92915050565b60008060008060808587031215620001a357600080fd5b6000620001b38782880162000147565b9450506020620001c6878288016200015e565b9350506040620001d98782880162000130565b9250506060620001ec8782880162000175565b91505092959194509250565b600062000205826200025c565b9050919050565b60006200021982620001f8565b9050919050565b60006200022d82620001f8565b9050919050565b60006200024182620001f8565b9050919050565b60006200025582620001f8565b9050919050565b600073ffffffffffffffffffffffffffffffffffffffff82169050919050565b62000287816200020c565b81146200029357600080fd5b50565b620002a18162000220565b8114620002ad57600080fd5b50565b620002bb8162000234565b8114620002c757600080fd5b50565b620002d58162000248565b8114620002e157600080fd5b50565b60805160601c60a05160601c6110d1620003226000398061018852806104fa52508061016452806101d8528061028352806103e552506110d16000f3fe608060405234801561001057600080fd5b506004361061007d5760003560e01c8063526dbd911161005b578063526dbd91146100dc5780638fd3ab80146100fa57806394b918de14610104578063d9ff8a91146101205761007d565b80632640689a146100825780633d172417146100a05780633e8a71db146100be575b600080fd5b61008a61013e565b6040516100979190610d6a565b60405180910390f35b6100a8610162565b6040516100b59190610d85565b60405180910390f35b6100c6610186565b6040516100d39190610da0565b60405180910390f35b6100e46101aa565b6040516100f19190610dbb565b60405180910390f35b6101026101d0565b005b61011e60048036038101906101199190610b28565b6106a8565b005b61012861080a565b6040516101359190610e38565b60405180910390f35b60008054906101000a900473ffffffffffffffffffffffffffffffffffffffff1681565b7f000000000000000000000000000000000000000000000000000000000000000081565b7f000000000000000000000000000000000000000000000000000000000000000081565b600160009054906101000a900473ffffffffffffffffffffffffffffffffffffffff1681565b60006201fa407f000000000000000000000000000000000000000000000000000000000000000073ffffffffffffffffffffffffffffffffffffffff1663e6fd48bc6040518163ffffffff1660e01b815260040160206040518083038186803b15801561023c57600080fd5b505afa158015610250573d6000803e3d6000fd5b505050506040513d601f19601f820116820180604052508101906102749190610b51565b01905060006102816109d0565b7f000000000000000000000000000000000000000000000000000000000000000073ffffffffffffffffffffffffffffffffffffffff166393f1a40b83336040518363ffffffff1660e01b81526004016102dc929190610e53565b60806040518083038186803b1580156102f457600080fd5b505afa158015610308573d6000803e3d6000fd5b505050506040513d601f19601f8201168201806040525081019061032c9190610aff565b90506000816020015111610375576040517f08c379a000000000000000000000000000000000000000000000000000000000815260040161036c90610e18565b60405180910390fd5b60006103e16103b16103d36201fa406103c561039e87600001518a61081090919063ffffffff16565b6103b76104e2896020015161085a90919063ffffffff16565b61085a90919063ffffffff16565b6108ca90919063ffffffff16565b6108ca90919063ffffffff16565b90507f000000000000000000000000000000000000000000000000000000000000000073ffffffffffffffffffffffffffffffffffffffff168360405160240161042b9190610e38565b6040516020818303038152906040527f08b9cf5c000000000000000000000000000000000000000000000000000000007bffffffffffffffffffffffffffffffffffffffffffffffffffffffff19166020820180517bffffffffffffffffffffffffffffffffffffffffffffffffffffffff83818316178352505050506040516104b59190610cf3565b600060405180830381855af49150503d80600081146104f0576040519150601f19603f3d011682016040523d82523d6000602084013e6104f5565b606091505b5050507f000000000000000000000000000000000000000000000000000000000000000073ffffffffffffffffffffffffffffffffffffffff16838360200151604051602401610546929190610e7c565b6040516020818303038152906040527f777b93a2000000000000000000000000000000000000000000000000000000007bffffffffffffffffffffffffffffffffffffffffffffffffffffffff19166020820180517bffffffffffffffffffffffffffffffffffffffffffffffffffffffff83818316178352505050506040516105d09190610cf3565b600060405180830381855af49150503d806000811461060b576040519150601f19603f3d011682016040523d82523d6000602084013e610610565b606091505b505050600160009054906101000a900473ffffffffffffffffffffffffffffffffffffffff1673ffffffffffffffffffffffffffffffffffffffff166340c10f1933836040518363ffffffff1660e01b8152600401610670929190610d41565b600060405180830381600087803b15801561068a57600080fd5b505af115801561069e573d6000803e3d6000fd5b5050505050505050565b60008054906101000a900473ffffffffffffffffffffffffffffffffffffffff1673ffffffffffffffffffffffffffffffffffffffff166323b872dd3360008054906101000a900473ffffffffffffffffffffffffffffffffffffffff16846040518463ffffffff1660e01b815260040161072593929190610d0a565b602060405180830381600087803b15801561073f57600080fd5b505af1158015610753573d6000803e3d6000fd5b505050506040513d601f19601f820116820180604052508101906107779190610ad6565b50600160009054906101000a900473ffffffffffffffffffffffffffffffffffffffff1673ffffffffffffffffffffffffffffffffffffffff166340c10f1933836040518363ffffffff1660e01b81526004016107d5929190610d41565b600060405180830381600087803b1580156107ef57600080fd5b505af1158015610803573d6000803e3d6000fd5b5050505050565b6104e281565b600061085283836040518060400160405280601e81526020017f536166654d6174683a207375627472616374696f6e206f766572666c6f770000815250610914565b905092915050565b60008083141561086d57600090506108c4565b600082840290508284828161087e57fe5b04146108bf576040517f08c379a00000000000000000000000000000000000000000000000000000000081526004016108b690610df8565b60405180910390fd5b809150505b92915050565b600061090c83836040518060400160405280601a81526020017f536166654d6174683a206469766973696f6e206279207a65726f00000000000081525061096f565b905092915050565b600083831115829061095c576040517f08c379a00000000000000000000000000000000000000000000000000000000081526004016109539190610dd6565b60405180910390fd5b5060008385039050809150509392505050565b600080831182906109b6576040517f08c379a00000000000000000000000000000000000000000000000000000000081526004016109ad9190610dd6565b60405180910390fd5b5060008385816109c257fe5b049050809150509392505050565b6040518060800160405280600081526020016000815260200160008152602001600073ffffffffffffffffffffffffffffffffffffffff1681525090565b600081519050610a1d81611056565b92915050565b600081519050610a328161106d565b92915050565b600060808284031215610a4a57600080fd5b610a546080610ea5565b90506000610a6484828501610ac1565b6000830152506020610a7884828501610ac1565b6020830152506040610a8c84828501610ac1565b6040830152506060610aa084828501610a0e565b60608301525092915050565b600081359050610abb81611084565b92915050565b600081519050610ad081611084565b92915050565b600060208284031215610ae857600080fd5b6000610af684828501610a23565b91505092915050565b600060808284031215610b1157600080fd5b6000610b1f84828501610a38565b91505092915050565b600060208284031215610b3a57600080fd5b6000610b4884828501610aac565b91505092915050565b600060208284031215610b6357600080fd5b6000610b7184828501610ac1565b91505092915050565b610b8381610f4c565b82525050565b610b9281610f04565b82525050565b6000610ba382610ed2565b610bad8185610ee8565b9350610bbd818560208601611012565b80840191505092915050565b610bd281610f5e565b82525050565b610be181610f82565b82525050565b610bf081610fa6565b82525050565b610bff81610fca565b82525050565b6000610c1082610edd565b610c1a8185610ef3565b9350610c2a818560208601611012565b610c3381611045565b840191505092915050565b6000610c4b602183610ef3565b91507f536166654d6174683a206d756c7469706c69636174696f6e206f766572666c6f60008301527f77000000000000000000000000000000000000000000000000000000000000006020830152604082019050919050565b6000610cb1600a83610ef3565b91507f4e6f206465706f736974000000000000000000000000000000000000000000006000830152602082019050919050565b610ced81610f42565b82525050565b6000610cff8284610b98565b915081905092915050565b6000606082019050610d1f6000830186610b7a565b610d2c6020830185610b89565b610d396040830184610ce4565b949350505050565b6000604082019050610d566000830185610b7a565b610d636020830184610ce4565b9392505050565b6000602082019050610d7f6000830184610bc9565b92915050565b6000602082019050610d9a6000830184610bd8565b92915050565b6000602082019050610db56000830184610be7565b92915050565b6000602082019050610dd06000830184610bf6565b92915050565b60006020820190508181036000830152610df08184610c05565b905092915050565b60006020820190508181036000830152610e1181610c3e565b9050919050565b60006020820190508181036000830152610e3181610ca4565b9050919050565b6000602082019050610e4d6000830184610ce4565b92915050565b6000604082019050610e686000830185610ce4565b610e756020830184610b7a565b9392505050565b6000604082019050610e916000830185610ce4565b610e9e6020830184610ce4565b9392505050565b6000604051905081810181811067ffffffffffffffff82111715610ec857600080fd5b8060405250919050565b600081519050919050565b600081519050919050565b600081905092915050565b600082825260208201905092915050565b6000610f0f82610f22565b9050919050565b60008115159050919050565b600073ffffffffffffffffffffffffffffffffffffffff82169050919050565b6000819050919050565b6000610f5782610fee565b9050919050565b6000610f6982610f70565b9050919050565b6000610f7b82610f22565b9050919050565b6000610f8d82610f94565b9050919050565b6000610f9f82610f22565b9050919050565b6000610fb182610fb8565b9050919050565b6000610fc382610f22565b9050919050565b6000610fd582610fdc565b9050919050565b6000610fe782610f22565b9050919050565b6000610ff982611000565b9050919050565b600061100b82610f22565b9050919050565b60005b83811015611030578082015181840152602081019050611015565b8381111561103f576000848401525b50505050565b6000601f19601f8301169050919050565b61105f81610f04565b811461106a57600080fd5b50565b61107681610f16565b811461108157600080fd5b50565b61108d81610f42565b811461109857600080fd5b5056fea2646970667358221220035b7d2f7d183fe71e9adb4bbc36eca70805e7a4c661fcbf9a3565d23dd9053864736f6c63430007000033",
  "immutableReferences": {
    "2937": [
      {
        "length": 32,
        "start": 356
      },
      {
        "length": 32,
        "start": 472
      },
      {
        "length": 32,
        "start": 643
      },
      {
        "length": 32,
        "start": 997
      }
    ],
    "2939": [
      {
        "length": 32,
        "start": 392
      },
      {
        "length": 32,
        "start": 1274
      }
    ]
  },
  "source": "// SPDX-License-Identifier: MIT\npragma solidity ^0.7.0;\npragma experimental ABIEncoderV2;\n\nimport \"@openzeppelin/contracts/token/ERC20/IERC20.sol\";\nimport \"@openzeppelin/contracts/math/SafeMath.sol\";\nimport \"./NovaToken2.sol\";\n\nstruct UserInfoV1 {\n    uint256 lastStakedTime;\n    uint256 amount; // How many LP tokens the user has provided.\n    uint256 rewardDebt; // Reward debt. See explanation below.\n    address next;\n}\n\ninterface IMasterUniverseV1 {\n    function emergencyWithdraw(uint256 _pid) external;\n\n    function poolLength() external view returns (uint256);\n\n    function userInfo(uint256 _pid, address _user)\n        external\n        view\n        returns (UserInfoV1 memory);\n\n    function startTimestamp() external view returns (uint256);\n}\n\ninterface IMasterUniverseV2 {\n    function deposit(uint256 _pid, uint256 _amount) external;\n\n    function poolLength() external view returns (uint256);\n}\n\ncontract NovaMigration2 {\n    using SafeMath for uint256;\n\n    IMasterUniverseV1 public immutable masterUniverseV1;\n    IMasterUniverseV2 public immutable masterUniverseV2;\n\n    IERC20 public novaV1;\n    NovaToken2 public novaV2;\n    uint256 public constant NOVA_REWARD = 1250;\n\n    constructor(\n        IMasterUniverseV1 _masterUniverseV1,\n        IMasterUniverseV2 _masterUniverseV2,\n        IERC20 _novaV1,\n        NovaToken2 _novaV2\n    ) {\n        masterUniverseV1 = _masterUniverseV1;\n        masterUniverseV2 = _masterUniverseV2;\n        novaV1 = _novaV1;\n        novaV2 = _novaV2;\n    }\n\n    function migrate() external {\n        uint256 rewardEndTime = masterUniverseV1.startTimestamp() + 36 hours;\n        uint256 _pid = 0;\n        UserInfoV1 memory userInfoV1 = masterUniverseV1.userInfo(\n            _pid,\n            msg.sender\n        );\n\n        require(userInfoV1.amount > 0, \"No deposit\");\n\n        uint256 pendingNova = userInfoV1\n            .amount\n            .mul(NOVA_REWARD)\n            .mul(rewardEndTime.sub(userInfoV1.lastStakedTime))\n            .div(36 hours)\n            .div(945);\n\n        address(masterUniverseV1).delegatecall(\n            abi.encodeWithSignature(\"emergencyWithdraw(uint256 _pid)\", _pid)\n        );\n        address(masterUniverseV2).delegatecall(\n            abi.encodeWithSignature(\n                \"deposit(uint256 _pid, uint256 _amount)\",\n                _pid,\n                userInfoV1.amount\n            )\n        );\n\n        novaV2.mint(msg.sender, pendingNova);\n    }\n\n    function swap(uint256 _amount) external {\n        novaV1.transferFrom(msg.sender, address(novaV1), _amount);\n        novaV2.mint(msg.sender, _amount);\n    }\n}\n",
  "sourcePath": "/Users/romain/Work/02_lab/komet/contracts/NovaMigration2.sol",
  "compiler": {
    "name": "solc",
    "version": "0.7.0+commit.9e61f92b.Emscripten.clang"
  },
  "schemaVersion": "3.3.2",
  "updatedAt": "2020-12-10T21:00:45.283Z",
  "devdoc": {
    "kind": "dev",
    "methods": {},
    "version": 1
  },
  "userdoc": {
    "kind": "user",
    "methods": {},
    "version": 1
  }
}