{
  "contractName": "TokenTimelock",
  "abi": [
    {
      "inputs": [
        {
          "internalType": "contract IERC20",
          "name": "token_",
          "type": "address"
        },
        {
          "internalType": "address",
          "name": "beneficiary_",
          "type": "address"
        },
        {
          "internalType": "uint256",
          "name": "releaseTime_",
          "type": "uint256"
        }
      ],
      "stateMutability": "nonpayable",
      "type": "constructor"
    },
    {
      "inputs": [],
      "name": "token",
      "outputs": [
        {
          "internalType": "contract IERC20",
          "name": "",
          "type": "address"
        }
      ],
      "stateMutability": "view",
      "type": "function"
    },
    {
      "inputs": [],
      "name": "beneficiary",
      "outputs": [
        {
          "internalType": "address",
          "name": "",
          "type": "address"
        }
      ],
      "stateMutability": "view",
      "type": "function"
    },
    {
      "inputs": [],
      "name": "releaseTime",
      "outputs": [
        {
          "internalType": "uint256",
          "name": "",
          "type": "uint256"
        }
      ],
      "stateMutability": "view",
      "type": "function"
    },
    {
      "inputs": [],
      "name": "release",
      "outputs": [],
      "stateMutability": "nonpayable",
      "type": "function"
    }
  ],
  "bytecode": "0x608060405234801561001057600080fd5b506040516109543803806109548339818101604052606081101561003357600080fd5b810190808051906020019092919080519060200190929190805190602001909291905050504281116100b0576040517f08c379a00000000000000000000000000000000000000000000000000000000081526004018080602001828103825260328152602001806109226032913960400191505060405180910390fd5b826000806101000a81548173ffffffffffffffffffffffffffffffffffffffff021916908373ffffffffffffffffffffffffffffffffffffffff16021790555081600160006101000a81548173ffffffffffffffffffffffffffffffffffffffff021916908373ffffffffffffffffffffffffffffffffffffffff160217905550806002819055505050506107d88061014a6000396000f3fe608060405234801561001057600080fd5b506004361061004c5760003560e01c806338af3eed1461005157806386d1a69f14610085578063b91d40011461008f578063fc0c546a146100ad575b600080fd5b6100596100e1565b604051808273ffffffffffffffffffffffffffffffffffffffff16815260200191505060405180910390f35b61008d61010b565b005b6100976102f6565b6040518082815260200191505060405180910390f35b6100b5610300565b604051808273ffffffffffffffffffffffffffffffffffffffff16815260200191505060405180910390f35b6000600160009054906101000a900473ffffffffffffffffffffffffffffffffffffffff16905090565b600254421015610166576040517f08c379a00000000000000000000000000000000000000000000000000000000081526004018080602001828103825260328152602001806107246032913960400191505060405180910390fd5b60008060009054906101000a900473ffffffffffffffffffffffffffffffffffffffff1673ffffffffffffffffffffffffffffffffffffffff166370a08231306040518263ffffffff1660e01b8152600401808273ffffffffffffffffffffffffffffffffffffffff16815260200191505060206040518083038186803b1580156101f057600080fd5b505afa158015610204573d6000803e3d6000fd5b505050506040513d602081101561021a57600080fd5b8101908080519060200190929190505050905060008111610286576040517f08c379a00000000000000000000000000000000000000000000000000000000081526004018080602001828103825260238152602001806107806023913960400191505060405180910390fd5b6102f3600160009054906101000a900473ffffffffffffffffffffffffffffffffffffffff168260008054906101000a900473ffffffffffffffffffffffffffffffffffffffff1673ffffffffffffffffffffffffffffffffffffffff166103299092919063ffffffff16565b50565b6000600254905090565b60008060009054906101000a900473ffffffffffffffffffffffffffffffffffffffff16905090565b6103c68363a9059cbb60e01b8484604051602401808373ffffffffffffffffffffffffffffffffffffffff16815260200182815260200192505050604051602081830303815290604052907bffffffffffffffffffffffffffffffffffffffffffffffffffffffff19166020820180517bffffffffffffffffffffffffffffffffffffffffffffffffffffffff83818316178352505050506103cb565b505050565b606061042d826040518060400160405280602081526020017f5361666545524332303a206c6f772d6c6576656c2063616c6c206661696c65648152508573ffffffffffffffffffffffffffffffffffffffff166104ba9092919063ffffffff16565b90506000815111156104b55780806020019051602081101561044e57600080fd5b81019080805190602001909291905050506104b4576040517f08c379a000000000000000000000000000000000000000000000000000000000815260040180806020018281038252602a815260200180610756602a913960400191505060405180910390fd5b5b505050565b60606104c984846000856104d2565b90509392505050565b60606104dd856106d8565b61054f576040517f08c379a000000000000000000000000000000000000000000000000000000000815260040180806020018281038252601d8152602001807f416464726573733a2063616c6c20746f206e6f6e2d636f6e747261637400000081525060200191505060405180910390fd5b600060608673ffffffffffffffffffffffffffffffffffffffff1685876040518082805190602001908083835b6020831061059f578051825260208201915060208101905060208303925061057c565b6001836020036101000a03801982511681845116808217855250505050505090500191505060006040518083038185875af1925050503d8060008114610601576040519150601f19603f3d011682016040523d82523d6000602084013e610606565b606091505b5091509150811561061b5780925050506106d0565b60008151111561062e5780518082602001fd5b836040517f08c379a00000000000000000000000000000000000000000000000000000000081526004018080602001828103825283818151815260200191508051906020019080838360005b8381101561069557808201518184015260208101905061067a565b50505050905090810190601f1680156106c25780820380516001836020036101000a031916815260200191505b509250505060405180910390fd5b949350505050565b60008060007fc5d2460186f7233c927e7db2dcc703c0e500b653ca82273b7bfad8045d85a47060001b9050833f915080821415801561071a57506000801b8214155b9250505091905056fe546f6b656e54696d656c6f636b3a2063757272656e742074696d65206973206265666f72652072656c656173652074696d655361666545524332303a204552433230206f7065726174696f6e20646964206e6f742073756363656564546f6b656e54696d656c6f636b3a206e6f20746f6b656e7320746f2072656c65617365a26469706673582212202a87d7219ffd936e5a2fdbbf42ea35d82fe6ceaf71204c02131f31d38cb3a1f964736f6c63430007000033546f6b656e54696d656c6f636b3a2072656c656173652074696d65206973206265666f72652063757272656e742074696d65",
  "immutableReferences": {},
  "source": "// SPDX-License-Identifier: MIT\n\npragma solidity ^0.7.0;\n\nimport \"./SafeERC20.sol\";\n\n/**\n * @dev A token holder contract that will allow a beneficiary to extract the\n * tokens after a given release time.\n *\n * Useful for simple vesting schedules like \"advisors get all of their tokens\n * after 1 year\".\n */\ncontract TokenTimelock {\n    using SafeERC20 for IERC20;\n\n    // ERC20 basic token contract being held\n    IERC20 private _token;\n\n    // beneficiary of tokens after they are released\n    address private _beneficiary;\n\n    // timestamp when token release is enabled\n    uint256 private _releaseTime;\n\n    constructor (IERC20 token_, address beneficiary_, uint256 releaseTime_) {\n        // solhint-disable-next-line not-rely-on-time\n        require(releaseTime_ > block.timestamp, \"TokenTimelock: release time is before current time\");\n        _token = token_;\n        _beneficiary = beneficiary_;\n        _releaseTime = releaseTime_;\n    }\n\n    /**\n     * @return the token being held.\n     */\n    function token() public view returns (IERC20) {\n        return _token;\n    }\n\n    /**\n     * @return the beneficiary of the tokens.\n     */\n    function beneficiary() public view returns (address) {\n        return _beneficiary;\n    }\n\n    /**\n     * @return the time when the tokens are released.\n     */\n    function releaseTime() public view returns (uint256) {\n        return _releaseTime;\n    }\n\n    /**\n     * @notice Transfers tokens held by timelock to beneficiary.\n     */\n    function release() public virtual {\n        // solhint-disable-next-line not-rely-on-time\n        require(block.timestamp >= _releaseTime, \"TokenTimelock: current time is before release time\");\n\n        uint256 amount = _token.balanceOf(address(this));\n        require(amount > 0, \"TokenTimelock: no tokens to release\");\n\n        _token.safeTransfer(_beneficiary, amount);\n    }\n}\n",
  "sourcePath": "@openzeppelin/contracts/token/ERC20/TokenTimelock.sol",
  "compiler": {
    "name": "solc",
    "version": "0.7.0+commit.9e61f92b.Emscripten.clang"
  },
  "schemaVersion": "3.3.2",
  "updatedAt": "2020-11-28T13:48:12.775Z",
  "devdoc": {
    "details": "A token holder contract that will allow a beneficiary to extract the tokens after a given release time. Useful for simple vesting schedules like \"advisors get all of their tokens after 1 year\".",
    "kind": "dev",
    "methods": {
      "beneficiary()": {
        "returns": {
          "_0": "the beneficiary of the tokens."
        }
      },
      "releaseTime()": {
        "returns": {
          "_0": "the time when the tokens are released."
        }
      },
      "token()": {
        "returns": {
          "_0": "the token being held."
        }
      }
    },
    "version": 1
  },
  "userdoc": {
    "kind": "user",
    "methods": {
      "release()": {
        "notice": "Transfers tokens held by timelock to beneficiary."
      }
    },
    "version": 1
  }
}